:100000000C94A6000C94C5000C94C5000C94C5007B
:100010000C94C5000C94C5000C94380A0C94C500CF
:100020000C94C5000C94C5000C94C5000C94C5003C
:100030000C94C5000C94C5000C94C5000C94C5002C
:100040000C94C5000C94C5000C94C5000C94C5001C
:100050000C94B50A0C9451040C94C5000C94C50082
:100060000C94C5000C94D43C0C94C5000C94C500B1
:100070000C94C5000C94C5000C94C5000C94C500EC
:100080000C94E63D0C94C5000C94C5000C94C5007E
:100090000C94033D0C94C5000C94C5000C94C50051
:1000A0000C94C5000C94C5000C94C5000C94C500BC
:1000B0000C94C5000C94C5000C94C5000C94C500AC
:1000C0000C94C5000C94C5000C94C500537973744E
:1000D000656D206F6E6C696E652E0A000A2A2A2AE9
:1000E0002A2A2A2A2A424F4F54494E4720434F4E2C
:1000F00054494B492A2A2A2A2A2A2A2A2A0A000A41
:10010000002C20636865636B20726174652025751F
:1001100020487A0025732025732C206368616E6E59
:10012000656C202575004D414320616464726573E0
:10013000732025783A25783A25783A25783A257833
:100140003A25783A25783A25780A000011241FBE0E
:10015000CFEFD1E2DEBFCDBF13E0A0E0B2E0E8E137
:10016000FDEB00E00BBF02C007900D92A23DB1076E
:10017000D9F711E1A2EDB3E001C01D92A93EB1078C
:10018000E1F70E9483030C948A5E0C940000CF93E5
:10019000DF93EC0188819981009751F4259A269A82
:1001A000279A2F982E9A2D9A80E092E00E94785BF1
:1001B0001982188283E0DF91CF910895CF93DF9366
:1001C000EC0188819981009721F088329105D9F45A
:1001D0000BC082ED93E064EC79E00E94FA0188E2C2
:1001E00090E09983888313C082ED93E00E942502FA
:1001F000009769F082ED93E00E9405028BE092E0A7
:100200000E94785BECCF1982188283E001C081E004
:10021000DF91CF9108958091DA039091DB030097ED
:1002200029F41092DD031092DC0308950E94AF03BD
:10023000E091DA03F091DB03228133814081518127
:10024000240F351F281B390B0CC04281538160815C
:100250007181460F571F481B590B4217530708F46B
:100260009A010480F581E02D309779F7280F391F26
:100270003093DD032093DC03089584EA92E00E942A
:10028000EE0D0895CF92DF92EF92FF920F931F939E
:10029000CF93DF937C01FC0180819181009729F04D
:1002A0008A35910509F06EC00BC01092DB031092E5
:1002B000DA038AE590E0F7019183808381E066C0EC
:1002C000673849F5CA01E091DA03F091DB0303C016
:1002D0000480F581E02D309741F32681378128177E
:1002E0003907B1F3E093DA03F093DB030FC01696FE
:1002F0002D913C9117972817390739F414962D91B1
:100300003C91159735832483DF01FD01A481B581DC
:10031000109769F7CECF623861F6C091DA03D091B9
:10032000DB0300E010E02BC0CE010E94500E0097CE
:10033000F1F08E819F8168E8AE010E94990D0097CF
:10034000A1F41F821E828C819D810115110521F06F
:10035000F8019583848304C09093DB038093DA03D0
:100360001D821C820E940B01D8CF0E943D018E018C
:100370009C818D81C92EE6016E01D82EE601209761
:1003800099F697CFF7011182108283E0DF91CF9128
:100390001F910F91FF90EF90DF90CF900895CF9332
:1003A000DF93EC010E943D018E819F81009769F0EF
:1003B000E091DA03F091DB0306C0EC17FD07A9F02A
:1003C0000480F581E02D3097C1F780916904909108
:1003D0006A049F838E838091DA039091DB039D836F
:1003E0008C83D093DB03C093DA030E940B01DF916F
:1003F000CF910895CF93DF93EC010E94300ECE0190
:100400000E94CF01DF91CF910895CF93DF93EC014C
:100410000E943C0ECE010E94CF01DF91CF91089542
:10042000CF93DF93EC010E94460ECE010E94CF01D4
:10043000DF91CF910895FC0180819181860F971FF4
:10044000918380830E940B01089521E030E0FC013C
:1004500086819781009711F020E030E0C90108956E
:10046000FC012281338180819181280F391FC901CC
:100470000895FC0180819181089521E030E0809110
:10048000DA039091DB03009711F420E030E0C9011A
:1004900008958091DA039091DB03009729F0209171
:1004A000DC033091DD0302C020E030E0C901089593
:1004B000CF93DF93EC01E091DA03F091DB038E1729
:1004C0009F0741F48C819D819093DB038093DA0335
:1004D00014C0FC01309731F0848195818C179D0701
:1004E000C1F707C01D821C821F821E82DF91CF913F
:1004F00008958C819D81958384830E940B01F2CFA6
:10050000EF92FF920F931F93DF93CF93CDB7DEB798
:1005100028970FB6F894DEBF0FBECDBF81E068E02C
:1005200046E00E94323D81E00E94AD3D0E949F0363
:100530000E94C00F0E94170D84EA92E060E070E014
:100540000E94CB0D0E94EF0EE091C502F091C60211
:1005500009958E010F5F1F4F88E0D8011D928A9583
:10056000E9F7C80160E070E048E050E00E94BF5D3C
:10057000ADEDBCE0F80188E001900D928150E1F70B
:100580008DEC9BEA60E070E08E010F5F1F4FA801C9
:100590000E948C068AE10E947206C8010E94EC0A41
:1005A000EDB7FEB772970FB6F894FEBF0FBEEDBF62
:1005B000319686E291E0ADB7BEB712969C938E93CA
:1005C00011978981828313828A81848315828B812A
:1005D000868317828C81808711868D81828713861E
:1005E0008E81848715868F81868717868885808B84
:1005F000118A0E94585BEDB7FEB772960FB6F89459
:10060000FEBF0FBEEDBF0E94E511E0911503F09112
:1006100016030995E091FC02F091FD020995E09125
:100620008603F09187030995E090FA02F090FB02AF
:1006300000911303109114030E946F062DB73EB76B
:10064000285030400FB6F8943EBF0FBE2DBFEDB717
:10065000FEB7319624E131E0ADB7BEB712963C93B8
:100660002E931197F382E282158304838683178287
:100670000E94585BE0912103F09122032DB73EB711
:10068000285F3F4F0FB6F8943EBF0FBE2DBF309787
:10069000D1F00995BC0100D000D081E091E0ADB768
:1006A000BEB712969C938E9311978DE790E00E94AF
:1006B000955AEDB7FEB7748363830E94585B0F9021
:1006C0000F900F900F9000D08FEF90E0ADB7BEB7B6
:1006D00012969C938E9311970E94585B0F900F90E7
:1006E00081E693E060E070E00E94CB0D28960FB6A3
:1006F000F894DEBF0FBECDBFCF91DF911F910F9158
:10070000FF90EF9008950E9480028CE892E00E9492
:10071000040E00D08CED90E0EDB7FEB7928381839C
:100720000E94585B8CEC90E0EDB7FEB7928381831A
:100730000E94585B0F900F900E94270DFDCFF894F8
:100740001092B60016BC89EF87BD82E084BD94E0AC
:1007500095BD95B395BB80936E00789408952091D4
:10076000DE033091DF038091DE039091DF032817D1
:100770003907A9F7C90108952091A20B3091A30B65
:100780004091A40B5091A50B8091A20B9091A30BCB
:10079000A091A40BB091A50B281739074A075B0756
:1007A00059F7B901CA0108956093A20B7093A30B86
:1007B0008093A40B9093A50B0895CF93DF93EC0146
:1007C0000E94AF03C80FD91F0E94AF038C1B9D0B63
:1007D00097FDFACFDF91CF9108958430910548F0CD
:1007E0000397880F991F880F991F969587950197F2
:1007F000F1F70895CF93DF93EC0184EE93E005C009
:100800000E94ED03219787EE93E02097C9F7DF91CF
:10081000CF910895AFB7F8942091DE033091DF03B4
:10082000280F391F3093DF032093DE032091E0036C
:10083000FC01E20FF11D20919E0B30919F0B409126
:10084000A00B5091A10B16C0ED57F0406091A20B88
:100850007091A30B8091A40B9091A50B6F5F7F4FBC
:100860008F4F9F4F6093A20B7093A30B8093A40BA9
:100870009093A50B722F632F942F852F2F5F3F4FDF
:100880004F4F5F4FED37F105F8F670939E0B609375
:100890009F0B9093A00B8093A10BE093E003AFBF5D
:1008A00008951F920F920FB60F920BB60F9211245C
:1008B0002F933F934F935F936F937F938F939F9368
:1008C000AF93BF93EF93FF938091DE039091DF038B
:1008D00001969093DF038093DE038091E0038F5FA6
:1008E0008093E0038091E0038D37A8F01092E0033D
:1008F0008091A20B9091A30BA091A40BB091A50B9A
:100900000196A11DB11D8093A20B9093A30BA09300
:10091000A40BB093A50B0E943D02009711F00E941A
:100920003D01FF91EF91BF91AF919F918F917F9189
:100930006F915F914F913F912F910F900BBE0F9050
:100940000FBE0F901F9018958091B10B90E0FC01A5
:10095000EE0FFF1F9695982F882797958795E80F9C
:10096000F91FEE54F44F108208958091AB0B90E084
:1009700008951C990BC081E06FE140E00E948C0952
:10098000813039F021E030E0813129F020E030E0A1
:1009900002C021E030E0C90108951C9911C081E036
:1009A0006FE140E00E948C09982F8151823050F015
:1009B0009F3141F0913041F081E0923031F402C03A
:1009C00081E0089580E0089580E00895CF93DF935B
:1009D000C0E1D7E20E94CD04882311F42197D1F71A
:1009E000DF91CF91089583B12C988DE090E001972D
:1009F000F1F782E06FE140E023E00E94A30983E089
:100A000090E00197F1F708950E94E6040E94F30434
:100A10002C9A1092340C08958091340C882321F084
:100A20000E94CD040E94040580E090E008951C9986
:100A300009C0282F803108F02FE085E06FE040E00A
:100A40000E94A3090895B82FA92FF62FE72F209110
:100A50003D0C30913E0C40913F0C5091400C2F5F6B
:100A60003F4F4F4F5F4F20933D0C30933E0C4093D0
:100A70003F0C5093400C862F8E5F87FD0CC021EEFB
:100A800033E0C9016B2F7A2F4F2F5E2F0E94365B08
:100A900020E030E002C02FEF3FEFC901089581E070
:100AA0006FE140E00E948C0908950F931F93182F67
:100AB000883049F0863039F0893029F0863119F0D4
:100AC000893109F03BC01C993CC00E94E6040E9499
:100AD0004F05082F1817C1F1183019F40E94F304BC
:100AE00026C0193139F4863199F482E06FE140E093
:100AF00029E008C0163161F4893151F482E06FE1D8
:100B000040E026E00E94A309E3E0F0E03197F1F72E
:100B100082E06FE140E0212F0E94A309083019F420
:100B2000E9E6F1E002C0E3E0F0E03197F1F70E947E
:100B30004F05811749F023E430E008C022E430E09B
:100B400005C024E430E002C020E430E0C9011F9178
:100B50000F91089581E08093340C1C9B05C02C9864
:100B600081EC9DE00197F1F786E10E9455050E9416
:100B7000E60408958091340C882311F40E94AA059C
:100B800081E090E008950F931F93DF93CF930F922E
:100B9000CDB7DEB78091340C882341F01C992AC070
:100BA0000E94CD04882331F110E003C00E94BA05F1
:100BB00011E08FB78983F8940E94E60488E060E82A
:100BC00047E021E00E94A30989E191E00197F1F754
:100BD00000E004C081E00E945609082F07FFFACF09
:100BE00089818FBF112311F00E940C0521E030E0B4
:100BF00006FD02C020E030E0C9010F90CF91DF91E7
:100C00001F910F9108958093630408950E944F05EA
:100C10008250813130F4E82FF0E0E752FD4F8081BF
:100C2000089581E00895282F8EE260E245E00E9459
:100C3000A30908958EE06CE00E9471098CE260EFD8
:100C400044E022E00E94A3098CE26EE041E025E04E
:100C50000E94A3098FE260E80E94710986E00E9469
:100C60005609682F8DE20E94710985E060E847E02F
:100C700021E00E94A3090895CF93DF93CDEFD3E045
:100C8000CE010197F1F70E9433091092B20B109236
:100C9000B10B1092B00B17982C9881EC9DE0019746
:100CA000F1F7179A82E06FE140E023E00E94A30988
:100CB0002197F1F78DE10E9456098EE10E945609B5
:100CC0000E941A068BEB92E060E070E00E94CB0D70
:100CD0000E94AA0581E090E0DF91CF910895809174
:100CE00062040895DF93CF930F92CDB7DEB7898367
:100CF0000E94E60429812093620488E06FE140E0CD
:100D00000E94A3090F90CF91DF9108950E9472066F
:100D100086E00E9455050895AF92BF92CF92DF9270
:100D2000EF92FF920F931F93DF93CF9300D0CDB735
:100D3000DEB7282F062F6A0182E2622F7A83998319
:100D40000E94710983E29981692F0E94710980E2F2
:100D5000602F0E94710981E27A81672F0E947109D8
:100D6000C114D104F1F186010F5F1F4F8BE2F60130
:100D700060810E94710978010894E11CF11C8AE2EB
:100D8000F60161810E94710957010894A11CB11CF0
:100D900089E2F80161810E94710965010894C11C12
:100DA000D11C88E2F70161810E94710986010F5F01
:100DB0001F4F87E2F50161810E9471097801089453
:100DC000E11CF11C86E2F60161810E94710985E255
:100DD000F80161810E94710984E2F70161810E943A
:100DE00071090F900F90CF91DF911F910F91FF909C
:100DF000EF90DF90CF90BF90AF9008958BEB92E093
:100E00000E94EE0D81E08093AB0B8091810C90915C
:100E1000820CA091830CB091840C0196A11DB11D90
:100E20008093810C9093820CA093830CB093840CDC
:100E300081E090E00895EF92FF92CF93DF9350917D
:100E4000B10B252F30E0F901EE0FFF1F3695322F41
:100E5000222737952795E20FF31FEE54F44F408178
:100E6000442309F4C8C01C99C6C02091340C222325
:100E700009F4C1C047FF16C00E94A40480916D0C04
:100E800090916E0CA0916F0CB091700C0196A11D09
:100E9000B11D80936D0C90936E0CA0936F0CB0936A
:100EA000700CA9C04330B0F40E94A4048091690C76
:100EB00090916A0CA0916B0CB0916C0C0196A11DE5
:100EC000B11D8093690C90936A0CA0936B0CB09346
:100ED0006C0C91C0C42FD0E022976C177D07B0F442
:100EE0000E94A4048091650C9091660CA091670CFF
:100EF000B091680C0196A11DB11D8093650C909373
:100F0000660CA093670CB093680C75C0652F70E0F9
:100F10009B01220F331F7695762F6627779567956D
:100F2000260F371F2D54344FB90150E00E94365B15
:100F30002091B10B822F90E0FC01EE0FFF1F9695E0
:100F4000982F882797958795E80FF91FEE5CF34F48
:100F500080818093A60B822F90E0FC01EE0FFF1F93
:100F60009695982F882797958795E80FF91FEE5447
:100F7000F44F10821092B10B80E090E0FC01EE0F74
:100F8000FF1F9695982F882797958795E80FF91F4B
:100F9000EE54F44F8081882311F00E94FE0687E012
:100FA0000E945609682F8093A70B8091AA0B882373
:100FB00011F0681710F46093AA0B84E070E00E94AF
:100FC000B9116091A60B83E070E00E94B911809185
:100FD000410C9091420CA091430CB091440C0196AD
:100FE000A11DB11D8093410C9093420CA093430C22
:100FF000B093440C02C0C0E0D0E0CE01DF91CF91AD
:10100000FF90EF9008950F931F93DF93CF930F926C
:10101000CDB7DEB78C01FC0180819181009729F06A
:10102000F5E081319F0719F506C081E195E0F801EF
:101030009183808321C06238F9F41092AB0B0E9437
:1010400033118FB78983F8940E948D1060E870E0A7
:101050000E941B0729812FBF1816190634F70E941A
:101060008810E0911B03F0911C030995DECFF80175
:101070001182108283E001C081E00F90CF91DF9157
:101080001F910F9108950E94170508951C9906C09D
:1010900085E06FE040E00E948C09089580E10895AA
:1010A0001F93CF93DF93182F1C9B05C02C98E1EC66
:1010B000FDE03197F1F70E94E60489E10E945505B1
:1010C00086E00E94C411009751F00E944608C82F84
:1010D00086E00E94C41181500E94170502C0C0E042
:1010E000D0E02C9A2C98612F6E5F81EE93E00E94E5
:1010F0000E0A0E94E60482E060EE45E00E948C0940
:10110000182F86E00E94C411009719F08C2F0E94BE
:1011100017058091340C882319F00E94AA0502C09B
:101120000E940405113011F0112369F580917D0CA6
:1011300090917E0CA0917F0CB091800C0196A11D26
:10114000B11D80937D0C90937E0CA0937F0CB09387
:10115000800C8CE00E94C411009709F445C0809176
:10116000590C90915A0CA0915B0CB0915C0C0196BB
:10117000A11DB11D8093590C90935A0CA0935B0C48
:10118000B0935C0C31C01330A9F48091750C909130
:10119000760CA091770CB091780C0196A11DB11D31
:1011A0008093750C9093760CA093770CB093780C89
:1011B00012E01DC01530A9F48091610C9091620C71
:1011C000A091630CB091640C0196A11DB11D809398
:1011D000610C9093620CA093630CB093640C13E0C9
:1011E00006C0173021F402C010E001C011E0812FC9
:1011F00090E0DF91CF911F910895CF93DF93EB01A2
:101200000E9423059C01009721F4CE010E94500802
:101210009C01C901DF91CF9108950F931F93809195
:10122000340C882321F40E94BA0511E001C010E0BB
:101230000E944F05863111F0813129F487E00E9428
:101240005609082F08C086E06FE140E00E948C0933
:10125000082F000F080F112311F00E940C05802F9A
:101260001F910F9108951092650410926404249ABE
:101270000F9A85B1836085B984B1876084B923985A
:1012800080E58CBD81E08DBD83E480938100B59ABB
:10129000EFE6F0E0808181608083ED9AEAE6F0E09D
:1012A00080818C60808375986D980895DF93CF93CB
:1012B0000F92CDB7DEB780689FB79983F8942898CE
:1012C0008EBD0DB407FEFDCF8EB51EBC0DB407FE5E
:1012D000FDCF8EB5289A99819FBF0F90CF91DF9156
:1012E0000895DF93CF930F92CDB7DEB7806C9FB791
:1012F0009983F89428988EBD0DB407FEFDCF8EB566
:101300006EBD0DB407FEFDCF8EB5289A89818FBFC3
:101310000F90CF91DF910895DF93CF9300D0CDB799
:10132000DEB74A8369830E9456096981862390E06B
:101330004A8102C0959587954A95E2F70F900F90E4
:10134000CF91DF9108951F93DF93CF9300D000D00A
:10135000CDB7DEB7182F2C834B836A830E945609C2
:10136000898399816A81862F8095892389832C813D
:1013700030E04B8102C0220F331F4A95E2F762230F
:101380008981682B812F0E9471090F900F900F9017
:101390000F90CF91DF911F910895DF93CF930F921C
:1013A000CDB7DEB7FC018FB78983F894289880E227
:1013B0008EBD0DB407FEFDCF8EB51EBC0DB407FE6D
:1013C000FDCF8EB5982F93509D37C8F4DF0111964D
:1013D00080831EBC0DB407FEFDCF9EB59D931EBC41
:1013E0000DB407FEFDCF8150C1F78EB5DF01A058C7
:1013F000BF4F8C93EF57FF4F81E0808308C010826E
:10140000DF01A058BF4F1C92EF57FF4F1082289A60
:1014100089818FBF0F90CF91DF910895DF93CF9394
:101420000F92CDB7DEB7FC018FB78983F894289867
:1014300080E68EBD0DB407FEFDCF8EB56EBD0DB43A
:1014400007FEFDCF8EB5CF0101966350860F911D2B
:1014500021912EBD0DB407FEFDCF2EB5E817F9077B
:10146000B9F7289A89818FBF0F90CF91DF910895A6
:101470001F920F920FB60F920BB60F9211242F935B
:101480003F934F935F936F937F938F939F93AF930C
:10149000BF93EF93FF93DF93CF9300D0CDB7DEB729
:1014A0008FB78A83F89428988FE88EBD0DB407FE15
:1014B000FDCF1EBC0DB407FEFDCF2EB5289A8A8144
:1014C0008FBF822F90E022FD39C023FF27C081E02B
:1014D0000E9456098F7189838981813149F0898100
:1014E000863031F08981813019F08981863131F57A
:1014F0002091B00B30E0C901880F991F3695322F2B
:10150000222737952795820F931F8E54944F0E9460
:10151000CD091092B00B0E94FE0610C026FD0EC031
:1015200083709070009751F427FF08C08EE00E94EE
:101530005609682F6F778EE00E9471090F900F9007
:10154000CF91DF91FF91EF91BF91AF919F918F91DB
:101550007F916F915F914F913F912F910F900BBEB3
:101560000F900FBE0F901F9018951F920F920FB6FD
:101570000F9211248F939F9380916404909165043E
:10158000019690936504809364049F918F910F90CE
:101590000FBE0F901F901895262F372FF901282F77
:1015A000392FD90188E091919D938150E1F70895F9
:1015B000282F392FD901862F972FFC0188E02D91F4
:1015C0009191291729F48150D1F721E030E002C030
:1015D00020E030E0C9010895282F392FD901E5E333
:1015E000FCE08D9181938CE0ED33F807D1F70895FD
:1015F000E0911703F091180309950895E09188038D
:10160000F091890309950895E0911D03F0911E035F
:1016100009950895E0911F03F0912003099508951D
:1016200080E090E008950895E091D502F091D6020F
:1016300009950895009731F0E091D502F091D60216
:1016400009950895E091D702F091D802099508957F
:1016500080E090E008950F931F93DF93CF93CDB771
:10166000DEB7E0970FB6F894DEBF0FBECDBF0E9485
:10167000DF108C010E948D10602FAE014F5F5F4F15
:101680000E949F3F882309F445C088A99801281B20
:101690003109C9010E9469100097E1F12E812223CE
:1016A00071F18A859B853BEA8D3C930721F03FEFE2
:1016B0008F3F930779F5223041F088E090E007C032
:1016C000019722912F3F41F00BC082E090E0FE0194
:1016D000E80FF91F3C96F4CF181619068CF30FC0CB
:1016E00089E1BE01645F7F4F0E94CD1189E10E94B4
:1016F000DA1165E37CE00E94D80A009759F088E18E
:10170000BE016A5E7F4F0E94CD11E0910003F0910F
:1017100001030995E0960FB6F894DEBF0FBECDBF6A
:10172000CF91DF911F910F910895AF92BF92CF9209
:10173000DF92EF92FF920F931F93DF93CF93CDB77A
:10174000DEB7E0970FB6F894DEBF0FBECDBF6C01D9
:101750008B01FE01319680E3DF011D928A95E9F746
:1017600081E089838CE00E94C4118C831D821F82DA
:101770008091660489878F5F8093660483E0E82EFA
:10178000E8868DEC9BEA9B878A8789E10E94DA11C3
:101790006AEE72E00E94D80A009731F082E08E83F0
:1017A0008FEF8C878D8709C089E10E94DA11BC0117
:1017B000CE010C960E94CC0AEE828DEC9BEA9D8BAA
:1017C0008C8BCE01469665E37CE00E94CC0A0E9499
:1017D0008D109FA78EA70E94DF1088AB7E01089412
:1017E000E11CF11CC7010E94963EA82E90E00E94C9
:1017F000F510009741F10E949510BC01C7014A2DD8
:101800000E94B43EA090CB02B090CC020E949510F2
:101810007C010E94E910BC01C701F5010995C114C2
:10182000D10489F0009721F08130910561F404C062
:10183000C80160E070E003C0C80164E070E041E00E
:1018400050E0F6010995E0960FB6F894DEBF0FBEA2
:10185000CDBFCF91DF911F910F91FF90EF90DF905F
:10186000CF90BF90AF9008950E94011080936604BE
:10187000E091D502F091D602099508950F931F9338
:10188000CF93DF938C01EB014115510549F0FA012B
:10189000828193810E946E12C801BE010E94950B45
:1018A000DF91CF911F910F9108951F93CF93DF93F5
:1018B000EC01162F888580FF1DC0EC81FD813097DB
:1018C000C9F0D0936A04C093690482E08887CE018E
:1018D00006960995992787FD909502978230910584
:1018E00010F0133829F4CE01BE010E947E0C02C014
:1018F00081E08887DF91CF911F910895CF92DF9289
:10190000EF92FF920F931F93CF93DF93EC017B0134
:10191000C0906904D0906A04009167041091680433
:10192000F80103C00190F081E02DEC17FD0719F0DC
:101930003097C1F746C0209709F443C088858823B3
:1019400009F118860BC0C017D10729F0C80167E854
:10195000AE010E94550CF80100811181011511059D
:1019600091F7EC81FD81309769F0CE15DF0551F0DC
:10197000D0936A04C0936904CE01069663E840E000
:1019800050E00995E0916704F0916804CE17DF07F5
:1019900091F48881998190936804809367040DC0C5
:1019A000808191818C179D0729F488819981918389
:1019B000808303C0FC01309799F7D0926A04C092EB
:1019C0006904DF91CF911F910F91FF90EF90DF900D
:1019D000CF9008951F93CF93DF9310926B04C09123
:1019E0006704D091680411E00EC08985882341F016
:1019F00018871986CE0162E840E050E00E94550C3D
:101A00000990D881C02D209781F7DF91CF911F9148
:101A1000089580911605982F9F5F9093160508955D
:101A20006091690470916A040E947E0C08958AE8AE
:101A30008093160510926D0410926C041092680445
:101A40001092670410926A041092690408958091BC
:101A50006B04882311F00E94EA0C70916C047723C8
:101A600009F455C020916D0430E0F901EE0FFF1F1D
:101A7000EE0FFF1FE20FF31FE259FB4F60816093EF
:101A800015054181528150931405409313058381BC
:101A9000948190931205809311052F5F3F4F2F7112
:101AA000307020936D04715070936C04009741F571
:101AB000809167049091680418C080916B0488231A
:101AC00011F00E94EA0C4091130550911405809189
:101AD0000F0590911005609115050E94550CE0913D
:101AE0000F05F091100580819181909310058093EE
:101AF0000F0580910F05909110050097F1F607C032
:101B0000613819F421E0FC0120870E94550C809176
:101B10006B0420916C0430E0280F311DC901089539
:101B200080916B0420916C0430E0280F311DC901B5
:101B3000089570916C047032D9F020916D04270FD4
:101B40002F7120930E0530E0F901EE0FFF1FEE0F0D
:101B5000FF1FE20FF31FE259FB4F60835283418363
:101B6000948383837F5F70936C0420E030E002C035
:101B700021E030E0C9010895CF93DF93C09169045B
:101B8000D0916A040E94550CD0936A04C0936904F2
:101B9000DF91CF910895FC01AB0190916704809192
:101BA00068049C01A32FB22F03C00D90BC91A02DFF
:101BB000AE17BF0791F01097C1F7309771F090837F
:101BC0008183F0936804E093670481E08087178243
:101BD0001682CF0161E80E94BC0D0895FC010097B8
:101BE00041F080858150823020F481E081878093AC
:101BF0006B04089521E030E0FC018085882311F416
:101C000020E030E0C9010895EF92FF92CF93DF9377
:101C1000E82EE7017E01F92EE70104C060E070E0E4
:101C20000E94CB0D899199910097C1F7DF91CF91D7
:101C3000FF90EF900895EF92FF92CF93DF93E82EFD
:101C4000E7017E01F92EE70102C00E94100D899183
:101C500099910097D1F7DF91CF91FF90EF90089580
:101C6000CF93DF93EC017B836A830E94AF03998358
:101C70008883DF91CF910895FC0180819181228139
:101C80003381820F931F918380830895CF93DF93D5
:101C9000EC010E94AF0399838883DF91CF9108956F
:101CA000CF93DF93EC010E94AF0328813981821B1F
:101CB000930B019621E030E04A815B814817590778
:101CC00010F020E030E0C901DF91CF910895EF924C
:101CD000FF92CF93DF93FC01C281D38180819181F8
:101CE000C80FD91F0E94AF03C81BD90BCE01DF91CB
:101CF000CF91FF90EF900895CF92DF92EF92FF92F5
:101D00000F931F93CF93DF938C017A01FC018081A5
:101D10009181009729F08B34910509F051C01EC0C4
:101D200088E195E00E943E57C82EE6017E01F92E1B
:101D3000E70109C06C817D81CE0102960E94FA0103
:101D40000990D881C02D2097A9F781E080931705CD
:101D50008BE490E0F8019183808337C06838A9F55F
:101D600088E195E00E943E57C82EE6016E01D92E0B
:101D7000E60123C0CE010296E816F906D9F488E1FF
:101D800095E0BE010E948C57E0906904F0906A04CF
:101D90008A859B8590936A0480936904EC85FD8510
:101DA000309719F08E859F850995F0926A04E0922C
:101DB0006904CECF0990D881C02D2097D9F6C8CF1D
:101DC000F8011182108283E001C081E0DF91CF91A0
:101DD0001F910F91FF90EF90DF90CF900895109298
:101DE000170588E195E00E943A5782E393E060E0AE
:101DF00070E00E94CB0D08950F931F93CF93DF9354
:101E0000EC010091690410916A041B870A875D87C1
:101E10004C873F872E8780911705882379F082E3CE
:101E200093E090936A0480936904CE0102960E9425
:101E3000FA0110936A040093690402C07D836C83E5
:101E400088E195E0BE010E948C5788E195E0BE01D3
:101E50000E94C557DF91CF911F910F9108950F9365
:101E60001F93CF93DF93EC0180911705882391F0A6
:101E70000091690410916A0482E393E090936A04EC
:101E800080936904CE0102960E94050210936A04B1
:101E90000093690488E195E0BE010E948C5788E1B7
:101EA00095E0BE010E94C557DF91CF911F910F9120
:101EB00008950F931F93CF93DF93EC018091170543
:101EC000882391F00091690410916A0482E393E001
:101ED00090936A0480936904CE0102960E941002D6
:101EE00010936A040093690488E195E0BE010E94A2
:101EF0008C5788E195E0BE010E94C557DF91CF91D4
:101F00001F910F910895CF93DF93EC0180911705F6
:101F1000882329F0CE0102960E94580204C01F8235
:101F20001E821986188688E195E0BE010E948C57B2
:101F3000DF91CF910895CF93DF93EC018091170546
:101F4000882331F0CE0102960E9425029C0114C024
:101F500088E195E00E943E57E82FF92F06C0EC1764
:101F6000FD0741F00190F081E02D3097C1F721E0AD
:101F700030E002C020E030E0C901DF91CF91089548
:101F80000E94133E08950F931F93FC01CB014091D3
:101F90001A0550911B0533832283158304837183B3
:101FA0006083F0931B05E0931A054115510511F468
:101FB0000E942D3E80E090E01F910F910895809146
:101FC0001A0590911B050097C1F010921B05109205
:101FD0001A05DC0114966D917C9115971296ED917E
:101FE000FC9113970995E0911A05F0911B05309724
:101FF00021F0808191810E942D3E08950E941E5BF8
:1020000008950E94195B089580E380931C0508954C
:10201000EF92FF92CF93DF9320911C0530E0C0E355
:10202000D0E0C21BD30B2F5D3A4FB901AE010E9425
:10203000365BCE01DF91CF91FF90EF900895AF9284
:10204000BF92CF92DF92EF92FF920F931F93CF93A5
:10205000DF937C01C0901D05D0901E0520911C05CA
:1020600030E08601005D1F4F021B130B0138110584
:10207000E0F4C0E3D0E0C21BD30B2F5D3A4FB901AF
:10208000AE010E94365BCE0DDF1D20911F05309101
:1020900020058091D3059091D405280F391FCE01DA
:1020A000B901A6010E94365B02C000E010E0C80141
:1020B000DF91CF911F910F91FF90EF90DF90CF9024
:1020C000BF90AF90089590911C05980F90931C05B8
:1020D000089540911D0550911E059C014817590710
:1020E00098F08091D3059091D405820F931F90931F
:1020F000D4058093D305421B530B50931E05409388
:102100001D0521E030E002C020E030E0C901089563
:1021100090931E0580931D0508952091D30530915D
:10212000D4052F5A3A4FC901089520911C0530E07B
:102130002F5D3A4FC901089521E030E080911F05DD
:102140009091200545E08135940711F420E030E0BE
:10215000C90108950E949C10009771F021E535E0B7
:1021600060911F057091200540911D0550911E053D
:10217000C9010E94365B0895A091D305B091D405A2
:102180001097B9F020911D0530911E05205D3F4F3D
:10219000AF5ABA4FE1E5F5E080E390E003C04D911E
:1021A0004193019682179307D4F31092D4051092AD
:1021B000D305089580911F05909120050895809181
:1021C0001D0590911E05089590911C0580E3891BC3
:1021D000089580E390911C05891B20911D05309185
:1021E0001E05280F311DC90108951F93CF93DF935A
:1021F000EC0110911C05812F90E08C179D076CF06D
:102200000E94E9108C0F9D1F8138910530F41C1B32
:1022100010931C0521E030E002C020E030E0C9014D
:10222000DF91CF911F910895CF93DF93E5EAFCE012
:10223000119211928CE0E53DF807D1F7C0E0D0E0B3
:10224000CE0123E0880F991F2A95E1F78B57934F12
:102250006AEE72E00E94CC0A2196C430D10581F763
:10226000DF91CF9108951092D4051092D30510926A
:102270001E0510921D0580E380931C0581E595E005
:102280009093200580931F050E94141108950F93C9
:102290001F93CF93DF93EC018B010E943311D093F6
:1022A0002005C0931F0510931E0500931D05DF91A7
:1022B000CF911F910F910895CF92DF92EF92FF92ED
:1022C0000F931F93DF93CF9300D0CDB7DEB78C0170
:1022D00069837A830E94331169817A81C62ED72E51
:1022E00021E8C216D10418F030E8C32ED12C809119
:1022F0001F0590912005B801A6010E94365BD0927F
:102300001E05C0921D05C6010F900F90CF91DF9161
:102310001F910F91FF90EF90DF90CF900895282F9D
:10232000392FD901E5EAFCE080E301900D9281505C
:10233000E1F7862F972FDC01E5E8FCE080E20190D1
:102340000D928150E1F70895E5EAFCE0282F392F3E
:10235000D90180E30D9001928150E1F7A5E8BCE03E
:10236000862F972FFC0180E201900D928150E1F7BA
:102370000895E82FF0E0EE0FFF1FEB55F34F718348
:10238000608381E090E00895E82FF0E0EE0FFF1FFA
:10239000EB55F34F80819181089590E0E3E0880F41
:1023A000991FEA95E1F78B53944F0E94CC0A81E084
:1023B00090E00895282F30E0F3E0220F331FFA95C4
:1023C000E1F72B53344FC90108958CE493E00E9448
:1023D000B2568CE393E00E94B25684E493E00E94EC
:1023E000B2560895EF92FF920F931F93CF93DF930E
:1023F0000E949C100097C9F084E493E00E94D2569A
:10240000E82EE7017E01F92EE701209791F10E9465
:10241000DF10998388830E94DA109B838A83C70127
:1024200004960E9408108CAB24C08CE393E00E94B9
:10243000D256EC017E01F92EE7012097D1F08CE411
:1024400093E00E94D2568C0199838883009779F09B
:1024500002960E941F10F80191838083B8016E5488
:102460007F4FC8018E579F4F0E948F1102C0C0E05E
:10247000D0E0CE01DF91CF911F910F91FF90EF90AF
:102480000895FC0180819181BC016E547F4F8E576D
:102490009F4F0E948F110895CF93DF93EC018CE33F
:1024A00093E0BE010E941D57009749F06881798131
:1024B0008CE493E00E94F8568CE393E009C084E436
:1024C00093E0BE010E941D57009729F084E493E039
:1024D000BE010E94F856DF91CF910895EF92FF92CE
:1024E000CF93DF93EC018CE393E0BE010E941D5774
:1024F000009791F00990D881C02D68817981CE0133
:1025000002960E945C11BE016E547F4FCE018E5721
:102510009F4F0E94A4111BC084E493E0BE010E945F
:102520001D570097A1F00E943311688179818A813B
:102530009B810E945C118CA990E00E94F5100E9482
:1025400095104CA92496BE0150E00E94365BDF91A5
:10255000CF91FF90EF900895CF93DF93EC018CE340
:1025600093E0BE010E941D57009729F02881398110
:102570002E5F3F4F0CC084E493E0BE010E941D57C4
:10258000009719F02A813B8102C020E030E0C901A8
:10259000DF91CF910895DC01ED91FC91119780813D
:1025A0009181089570E023E0660F771F2A95E1F787
:1025B0006E507040FC0120813181260F371FC90108
:1025C0000895DC01ED91FC91119770E06F5B7F4FF6
:1025D000660F771FE60FF71F808191810895089598
:1025E0009C0141505040460F571FDB0110C0FC9129
:1025F000E0E011968C911197BF01680F711D260FB5
:10260000371F2617370710F42F5F3F4F1296A41776
:10261000B50768F3A417B50749F49C9180E0280F2B
:10262000391F2817390710F42F5F3F4FC90108954C
:102630000F931F93DF93CF9300D0CDB7DEB70091F8
:10264000E2063091E90C20E010E0201B310B909164
:10265000EA0C290F311D3A83298329813A81A90186
:10266000480F511DCA016DEE7CE040E250E00E942F
:10267000F01249815A81B801635F724F0E94F012D3
:10268000009719F0382F292F02C02FEF3FEFC90113
:102690000F900F90CF91DF911F910F910895A0910E
:1026A000E2066A2F70E0685D7F4FFB01EB51F34F4C
:1026B000418150E083E0440F551F8A95E1F7495F5F
:1026C0005F4F22E054C0FC01E60FF71FEB51F34FC0
:1026D0003081313009F448C0313018F03336D1F44C
:1026E00002C02F5F44C02093E3060E941855009754
:1026F00009F047C09091E3068091E206E92FF0E0EF
:10270000E80FF11DE35FF24F8181890F8E5F8093A7
:10271000E30635C0832F90E0807C9070803891056F
:1027200049F0803C910549F080349105E9F420930B
:10273000E30627C02093E30606C02093E3068091BA
:10274000FD0C8F3F01F130E040E050E02A0F311DD9
:10275000411D511D285D3F4F4F4F5F4F84E062E0A8
:102760000E94042282E0089581818E5F280F822FCB
:1027700090E0481759070CF0A6CF2093E30680E0BD
:10278000089581E0089581E00895FC014381460F9A
:102790004093DC0C872F99272281280F2093DB0C94
:1027A000A181A093DA0C50815093D90C30E0281706
:1027B000390748F48A2F8F5F8093DA0C882319F445
:1027C0005F5F5093D90C842F90E070708617970745
:1027D00098F48091DB0C8F5F8093DB0C882361F48D
:1027E0008091DA0C8F5F8093DA0C882329F4809132
:1027F000D90C8F5F8093D90C0895BC018091DC0DBA
:102800009091DD0D44960E94C513E091DC0DF0918E
:10281000DD0D8091D90C848B8091DA0C858B8091B1
:10282000DB0C868B8091DC0C878B08959C01AB01BF
:1028300080E090E0B9010E94F012382F292FC901E1
:10284000089580E090E065EE7CE048E250E00E9470
:10285000F012009719F0382F292F02C02FEF3FEF09
:10286000C90108958AE30E941813089586E00E9422
:102870001813089581E10E94181308950E94143CD2
:1028800080E009C0E82FF0E0EE0FFF1FE65CF14F9B
:10289000118210828F5F8230A8F340E08CE290E0DA
:1028A0000DC0242F30E0289FF001299FF00D389FA4
:1028B000F00D1124E252F24F15A24F5F423088F31F
:1028C00080E094E09093ED068093EC0640E089E18F
:1028D00090E00EC0242F30E0289FF001299FF00DDA
:1028E000389FF00D1124E05CF14F118A108A4F5F80
:1028F000423080F34093EA0608951F93CF93DF930D
:102900002091EC063091ED062F5F3F4F4DE72030D0
:10291000340710F020E030E1522F432FE091030EF6
:10292000EE2339F0E091EE0DF091EF0DE417F5078D
:1029300059F3E0912F0EEE2339F0E0911A0EF09149
:102940001B0EE417F50701F33093ED062093EC0618
:102950001092EA0610E0E0E0F0E02CE230E020C067
:10296000412F50E0429FD001439FB00D529FB00DC8
:102970001124A252B24F95964C919597442321F47D
:102980001093EA06FD0110C0473049F4309731F04A
:1029900096965C91969746A1451708F4FD011F5F36
:1029A0001230F0F21093EA063097B1F122E025A33D
:1029B0002091E406208F2091E506218F2091E606E4
:1029C000228F2091E706238F148A158A168A178A88
:1029D00024EB30E0378F268F31A320A321E030E0B5
:1029E000358F248F17A221E026A323E024A312A26F
:1029F00020E123A32091EC063091ED063227232716
:102A00003227318B208B738B628BEF01DC0180E1ED
:102A10000D9009928150E1F7CF01DF91CF911F9185
:102A200008950F931F93CF93DF936091E20666237F
:102A3000E9F070E0C091D50CD091D60CC61BD70B35
:102A40008E0108521040635F724F8DE09DE0A80137
:102A50000E943F5BD093D60CC093D50CE5EEFCE012
:102A600014839E01285225831092E206DF91CF91B4
:102A70001F910F9108950F931F93CF93DF93209190
:102A8000EC063091ED062F5F3F4F4DE720303407C5
:102A900010F020E030E1522F432FE091500EF091E2
:102AA000510EE417F50779F3E091690EF0916A0E83
:102AB000E417F50741F33093ED062093EC0610E0A0
:102AC00049E150E019C0012F0F5F212F30E0249F12
:102AD000F001259FF00D349FF00D1124E05CF14FC3
:102AE000DF015096C089D189209729F41093EA0616
:102AF000309749F433C0102F123028F31093EA06B0
:102B0000E0E0F0E02BC04091EC065091ED06542738
:102B10004527542711965C934E93738B628B0097D5
:102B200031F480E1EF0119928A95E9F707C0EF01CE
:102B3000DC0180E10D9009928150E1F789E190E09C
:102B4000289FD001299FB00D389FB00D1124A05CA3
:102B5000B14F8091800E54968C935497CF01DF91A2
:102B6000CF911F910F91089540E013C0E42FF0E042
:102B7000542F5F5FEE0FFF1FE65CF14F2081318124
:102B80002817390729F44093EA0611821082089524
:102B9000452F423058F34093EA06089540E013C0B1
:102BA000E42FF0E0542F5F5FEE0FFF1FE65CF14F64
:102BB000208131812115310529F44093EA06918362
:102BC00080830895452F423058F34093EA060895D4
:102BD000BF92CF92DF92EF92FF920F931F93CF930A
:102BE000DF93C091DC0DD091DD0D843009F451C22A
:102BF00001E21DE01093DB0D0093DA0D1093D80C69
:102C00000093D70C833071F48DA190E08F70907099
:102C10008330910509F074C08C8D9D8D009709F06B
:102C200030C78DC0823009F08EC01092D60C109241
:102C3000D50C10923F0E10923E0E8091E7068F5FEA
:102C40008093E706882399F48091E6068F5F80934E
:102C5000E606882361F48091E5068F5F8093E506A0
:102C6000882329F48091E4068F5F8093E4068DA188
:102C7000873011F0853041F48EA18F5F8EA38837A5
:102C800009F0FFC61DA2FDC6882309F4FAC62C8DE3
:102C90003D8D2115310509F44EC09EA1292F2150EB
:102CA0002EA3992309F0EDC69FA1983031F0282F6B
:102CB0002150223048F4953039F41DA280E88093E9
:102CC000D50D0E94B520C6C5953048F423E030E00C
:102CD000092E02C0220F331F0A94E2F701C020E33D
:102CE0002EA39F5F9FA390E08F709070833091051B
:102CF000E1F0843091054CF48130910509F493C3DF
:102D00008230910509F0BDC60DC08630910509F4E9
:102D10003DC58830910509F439C58430910509F025
:102D2000B0C634C510921A0D81C384E08093D50DCE
:102D30000E94B520C1C58F70833009F0A2C688E01B
:102D40008093D50D7CC5853019F5E091D80DF091B3
:102D5000D90D80899189009709F493C61092DD0DF1
:102D60001092DC0D0C5010401093DB0D0093DA0D27
:102D70001093D80C0093D70C10923F0E10923E0E79
:102D80001092D60C1092D50C88E08093D50D7FC19F
:102D90008091E50C807F803609F073C69091E90C34
:102DA00080E02091EA0C820F911D2091D50C30918A
:102DB000D60C2817390708F464C688969093D60C69
:102DC0008093D50C8091ED0C8F3F09F45AC6C80151
:102DD00084970E943B37009759F4C80184970E945A
:102DE0007138009729F48091FD0C8F3F09F049C696
:102DF0008BEE9CE09093D70D8093D60D1092E20657
:102E00001092E106E091D60DF091D70D80818B32C2
:102E1000E9F18C3248F4863009F48DC1813109F42E
:102E2000AAC0882389F059C08A3309F462C08B3361
:102E300020F48C3209F051C024C68B3309F421C62A
:102E40008C3309F04AC006C08091E10680FD45C080
:102E5000816009C08091E10681FF04C086FD3DC00C
:102E6000806401C082608093E1060E944F1381302C
:102E700009F407C6813018F0823021F60AC6809125
:102E8000E206E82FF0E0E35FF24F1AC08091E1061E
:102E900082FD23C084608093E1068091E206282FA2
:102EA00030E0F901E35FF24F9381992349F0265D09
:102EB0003F4F442737FD4095542F84E060E016C013
:102EC000F093D70DE093D60D885F9181990F990FFC
:102ED000990F890F8093E20695CFE55EFC409F0134
:102EE000442737FD4095542F84E061E00E9404227E
:102EF000D0C50E9432142FEF8F3F920709F0C1C551
:102F0000E091E206F0E0EB51F34F80A50E945B1EDA
:102F1000E091E206F0E0EB51F34F80A58638B1F086
:102F2000873838F48138D9F08538C9F08038B9F459
:102F300013C0883841F0883818F08B3981F409C003
:102F40000E946B2310C00E94F4250DC00E949E2792
:102F50000AC00E94484F07C00E945F2104C010921F
:102F6000D60C1092D50C8091D50C9091D60C009770
:102F700009F487C58EC50E9411158091D50C9091DA
:102F8000D60CC0979093D60C8093D50C85E19DE02C
:102F90009093DB0D8093DA0D8091130D9091140DB9
:102FA000009739F00E943A14EFEF8F3F9E0709F027
:102FB00068C500910F0D1091100D0115110509F450
:102FC00060C580E49EE09093D90D8093D80D40C0F9
:102FD000888999890097B9F108171907A1F58A8995
:102FE0009B89009739F020910D0D30910E0D281717
:102FF000390749F5888199810097E1F48A819B819D
:103000000097C1F48C819D810097A1F48E819F81EE
:10301000009781F488859985009761F48A859B855E
:10302000009741F48C859D85009721F48E859F85BE
:103030000097C1F08DEE9CE0BE0140E150E00E949F
:10304000295B009779F06996D093D90DC093D80D7C
:10305000C091D80DD091D90DFEE0C237DF0708F43A
:10306000B7CF0FC51092DD0D1092DC0D82E080937A
:10307000D50D85E19DE09093DB0D8093DA0D909363
:10308000D80C8093D70C10923F0E10923E0E0E94E7
:10309000B52080913E0E90913F0E009709F4F1C447
:1030A0009C01205D3F4F3093D60C2093D50C0896A1
:1030B0009093E90C28522093EA0CE091D80DF091FE
:1030C000D90D24892093EC0C21E12093EB0CCDE069
:1030D000DDE09827892798279D838C831F821E8295
:1030E0008089918990930E0D80930D0D828993892B
:1030F0009B838A83DE01509780E101900D9281507D
:10310000E1F78DEE9CE06DEF7CE00E945D3B81E29B
:103110009DE09093DB0D8093DA0D0E943A14809528
:1031200090959F838E83009709F0A1C48FEF9FEF46
:103130009F838E839CC40E9411150E9436142FEF2A
:103140008F3F920709F09DC40DE01DE0E0900F0D48
:10315000F090100DE114F10409F493C4C0900D0D2A
:10316000D0900E0DC114D10409F48BC4CEEDDDE076
:10317000BDA0BB20A1F088899989E816F90679F4E9
:103180008A899B89C816D90651F48DEE9CE0BE0150
:1031900040E150E00E94295B009709F45DC1AC96C4
:1031A0008EE0C633D80721F780911A0D8F738230D5
:1031B000B9F4F092E906E092E80620E00DC0E22FB3
:1031C000F0E0EE0FFF1FE65CF14F808191812F5FF1
:1031D000E816F90609F45FC0223088F32093EA0666
:1031E00080911A0D82FD4DC484E1F80185878CE33E
:1031F00090E09093D60C8093D50C80E584878091E5
:10320000140D9091180D97833091130D9091170D17
:10321000968332872091120D9091160D9583218708
:103220009091110D9093EA064091150D448390877B
:103230008F5F8387882361F4832F8F5F8287882342
:1032400039F4822F8F5F8187882311F49F5F9087E5
:1032500080910D0D90910E0D9093E9068093E806F4
:1032600020910F0D3091100D30930E0D20930D0D08
:10327000F80193838283EDEFFCE0DF01509780E15A
:103280000D9001928150E1F78DEE9CE06DEF7CE0B6
:103290000E945D3BD0C31092EA0640E0C0E0D0E05F
:1032A0008CE290E026C0242F30E0289FF001299F77
:1032B000F00D389FF00D1124E252F24F25A1222388
:1032C00021F44093EA06EF0118C0273089F42097D3
:1032D00021F036A12EA1231758F4242F30E0289F87
:1032E000E001299FD00D389FD00D1124C252D24F3A
:1032F0004F5F4230C0F24093EA06209709F4C1C301
:10330000D093DD0DC093DC0D83E08EA38CA31AA2B5
:1033100084E08BA31FA280910F0D9091100D998BCB
:10332000888B80910D0D90910E0D9B8B8A8BDE0109
:10333000EDEEFCE080E101900D928150E1F781E03B
:103340008DA38091E406888F8091E506898F809116
:10335000E6068A8F8091E7068B8F81E090E09D8F53
:103360008C8F8091140D8F8B8091130D8E8B80919B
:10337000120D8D8B8091110D8C8B81E090E00E945D
:10338000FD138091190D282F30E0207F30702135FA
:1033900031050CF448C082958F7090E00597880F36
:1033A000991F880F991F5091EB0640E033C0F90137
:1033B000EB51F34F54AD552329F44093EA06109294
:1033C000EB0631C0513011F44F5F24C05230D9F4B4
:1033D00065AD6430C1F44093EA065093EB0636AD18
:1033E00020E087AD90E0822B932B9093E9068093A9
:1033F000E806853B910510F084EB90E09F8F8E8F5F
:1034000099A388A310C02E5D324FF9012081222399
:1034100031F0420F242F30E02817390744F240934F
:10342000EA065093EB0680E180931A0DEDE0FDE093
:1034300080911A0D8260858782E0848B84E0858B81
:10344000168A84EB878B80E490E09093D60C80936F
:10345000D50C80E68487B6C2D093DD0DC093DC0D19
:103460001092D50D80911A0D90E082FF03C01DA22D
:1034700080E24FC24091190D42954F70440F440FA6
:103480004093EA062091D50C3091D60C285230405A
:10349000241B31093093D60C2093D50C4B2D50E0D2
:1034A0004F7050704230510539F4AC014F73507079
:1034B0004231510551F429C04130510531F4AC017C
:1034C0004F7350704230510501F12115310531F42F
:1034D0009C012370307021153105B9F03091110D28
:1034E0002C89321779F43091120D2D89321751F44D
:1034F0003091130D2E89321729F43091140D2F8934
:10350000321719F081FD8FCF51C284FF4AC06C8DF4
:103510007D8D6115710509F444C0CE0148960E9465
:10352000C5133091150D8091D90C3817D1F5209124
:10353000160D8091DA0C2817A1F59091170D809146
:10354000DB0C981771F58091180D4091DC0C8417F5
:1035500041F5388F298F9A8F8B8F8FA18823D1F4D3
:103560002AA18CA19EA1891B922F9695969596953E
:10357000891B280F2AA387FD81959BA1392F36959A
:103580003695931B980F9BA3822F869586958695DB
:10359000890F8CA381E08093D50D8CA18EA31D8E05
:1035A0001C8E2DA130E0C9018F7090708430910580
:1035B00009F4B4C18530910564F482309105C9F1F4
:1035C000833091050CF0B8C08130910509F059C2E3
:1035D00011C08630910509F4E1C1863091050CF4E3
:1035E000BDC18730910509F4E1C18830910509F02A
:1035F00048C289C18091D50D80FF14C083E08DA39E
:1036000080E48093D50D1D8E1C8E8091D50C9091F9
:10361000D60C009709F40FC122E42093D50D0E9427
:10362000FD1309C180911A0D8F73823009F029C2F0
:10363000FACE8091D50D80FF74C080911A0D8F73E2
:10364000823109F06EC08091190D282F30E0207F63
:103650003070213531050CF448C082958F7090E0B0
:103660000597880F991F880F991F5091EB0640E02E
:1036700033C0F901EB51F34F54AD552329F4409376
:10368000EA061092EB0631C0513011F44F5F24C0AE
:103690005230D9F465AD6430C1F44093EA065093DA
:1036A000EB0636AD20E087AD90E0822B932B909314
:1036B000E9068093E806853B910510F084EB90E0E5
:1036C0009F8F8E8F99A388A310C02E5D324FF90172
:1036D0002081222331F0420F242F30E028173907B0
:1036E00044F24093EA065093EB0683E08DA3809169
:1036F000110D8C8B8091120D8D8B8091130D8E8B03
:103700008091140D8F8B81E090E00E94FD1382E484
:103710008093D50D1D8E1C8E1092D60C1092D50C58
:103720008AC080E28093D50D0E94B520E091DC0D27
:10373000F091DD0D15A254CD80911A0D80FF2AC0A5
:1037400024FD28C08C8D9D8D009709F09AC1809131
:10375000D50C9091D60C01960E94FD132091D50DA9
:10376000822F80618093D50D8091D50C9091D60CDD
:10377000009719F022612093D50D0E94B52081E0B9
:1037800090E09D8F8C8F88E08DA31FA281E18093B4
:103790001A0D0FC185FF1CC050911F0D40E0809194
:1037A000200D90E0842B952B4091DA0D5091DB0D8C
:1037B000480F591F5093DB0D4093DA0D4091D50C03
:1037C0005091D60C481B590B5093D60C4093D50CF6
:1037D0008091D50C9091D60C009749F024FD07C03C
:1037E0002091D50D22602093D50D0E94FD1390915C
:1037F0001B0D80E020911C0D820F911D9093E90616
:103800008093E80628A139A12817390710F00097FE
:1038100021F43093E9062093E8068091E806909120
:10382000E9069F8F8E8F8091D50D90E08370907008
:10383000009709F426C110923F0E10923E0E0E948E
:10384000B5208091D50D85FF07C010923F0E1092D4
:103850003E0E1DA284E19BCF84FF0AC010923F0E52
:1038600010923E0E81E090E09D8F8C8F84E08CCF93
:1038700020913E0E30913F0E21153105E1F080FF81
:1038800002C01D8E1C8E8C8D9D8D009781F48E8DB7
:103890009F8D8217930720F490933F0E80933E0EE6
:1038A00080913E0E90913F0E9D8F8C8F04C090931F
:1038B0003F0E80933E0E1FA28091D70C9091D80CA2
:1038C0009093DB0D8093DA0D80913E0E90913F0E28
:1038D000009759F08C8D9D8D009739F0CC96909380
:1038E000D60C8093D50C88E10BC08091D50D81FF5B
:1038F000C8C08CE390E09093D60C8093D50C80E107
:1039000080931A0D5CC08091D50D80FFBAC01DA2B6
:1039100080E18093D50D0E94B520B3C08091D50C75
:103920009091D60C009711F00E94FD1390911A0D02
:103930008091D50D90FF0BC080FF06C087E08DA35E
:103940001EA21D8E1C8E19C086E08DA316C080FF9E
:103950001EC085E08DA31D8E1C8E93C08091D50C5A
:103960009091D60C009711F00E94FD1380911A0DD2
:1039700080FF0DC087E08DA31EA281E090E00E9431
:10398000FD1380E18093D50D0E94B5200FC080917A
:10399000D50C9091D60C009749F473C08091D50D49
:1039A00080FF6FC087E08DA31EA26BC080E1F8018D
:1039B00085878CE390E09093D60C8093D50C80E5BE
:1039C0008093190D0DE01DE08C89F80180878D89A9
:1039D00081878E8982878F898387888D8483898D6B
:1039E00085838A8D86838B8D878386E08093EB0C1D
:1039F0008889998990930E0D80930D0D8A899B89F2
:103A000093838283D8015097FE0180E101900D924B
:103A10008150E1F78DEE9CE06DEF7CE00E945D3B14
:103A20008DA184FF04C0F8011786168604C0F80132
:103A3000168684EB87878091800E8093EC0C8091B2
:103A4000D50C9091D60C9C01285230403093E90C53
:103A500088528093EA0CCDE0DDE01B8A1A8A198A2D
:103A6000188A0E94361480959095998B888B80E6F1
:103A70008093E50C1092E60C1092E80C1092E70C83
:103A800008C01092D60C1092D50C1092E20610923B
:103A9000E1061092D50DDF91CF911F910F91FF900C
:103AA000EF90DF90CF90BF900895382F292FC90154
:103AB0000895382F292F40E050E076276727762792
:103AC00080E090E0CB0177276627262B372B482B09
:103AD000592BB901CA010895AC01E091D70CF091BE
:103AE000D80C222733272E1B3F0B2B52324F621745
:103AF00073070CF49B011216130664F420933E0E18
:103B000030933F0E4E175F0729F0CF01BA01A9018C
:103B10000E94365B089588EF96E00E942502009788
:103B200021F088EF96E00E9410020895E0910507C9
:103B3000F0910607309711F00995089580E00895F7
:103B400090930607809305070895209169043091AA
:103B50006A0460E0EEEEF6E013C040815181481740
:103B6000590761F4428153814217530739F4609336
:103B70000407118210820E94B415089534966F5F75
:103B8000623058F360930407089540E0EEEEF6E0EB
:103B900016C0542F5F5F208131812115310569F4F2
:103BA00040930307918380832091690430916A04D4
:103BB000338322830E94CE1508953496452F4230D8
:103BC00040F3409303070895FC01809169049091AC
:103BD0006A0491A780A773A762A70895FC0180914A
:103BE000690490916A04968B858B708F678B08951A
:103BF000CF93DF93EA010E943B15FC01009741F04F
:103C00008091690490916A04968B858BD08FC78BC5
:103C1000CF01DF91CF9108950F931F93DF93CF933F
:103C2000CDB7DEB760970FB6F894DEBF0FBECDBF3D
:103C30008C01AB018FEF92E09A8389831C821B82F7
:103C40001E821D8218861F821A8619861C861B8674
:103C50001E861D8680E091E0988B8F87CE010196AD
:103C6000B8010E94F81DFC01009711F0118B008B28
:103C7000CF0160960FB6F894DEBF0FBECDBFCF91D7
:103C8000DF911F910F9108952091360E3091370EDC
:103C90002115310571F42091690430916A04309343
:103CA000370E2093360E9093390E8093380E80E0B5
:103CB000089581E00895DF93CF930F92CDB7DEB7DB
:103CC00089838091360E9091370E009739F060917C
:103CD000730EAE014F5F5F4F0E94BC0D0F90CF91EE
:103CE000DF91089581E693E062E040E050E00E94B9
:103CF000BC0D1092D60C1092D50C1092E2060895CD
:103D00000F931F93CF93DF938091D50C9091D60C96
:103D1000009709F4B4C025E08130920708F0A0C0F4
:103D20000DEF1CE08091FD0C9091FE0C009759F571
:103D30008091FF0C9091000D009729F58091010D65
:103D40009091020D0097F9F48091030D9091040D6C
:103D50000097C9F48091050D9091060D009799F494
:103D60008091070D9091080D009769F48091090DDD
:103D700090910A0D009739F480910B0D90910C0DE4
:103D8000009709F46DC08091FD0C8F3F09F46DC060
:103D90008DEF9CE00E940B37882379F48DEF9CE037
:103DA0000E94683A009731F40E9456368C010097C1
:103DB00021F456C08C010D5E1F4FC8010E94E955C9
:103DC000009709F04DC0C8010E947F35EC010097B3
:103DD00099F5C80160E070E040E020E00E94DF3427
:103DE000EC010097E9F18DEE9CE00E943B37AE01BB
:103DF0004F5F5F4F009719F08DEE9CE002C080E0AE
:103E000090E060E070E00E941D256091890E709145
:103E10008A0E80918B0E90918C0E28EE33E040E05C
:103E200050E00E94A95ACE018196BA01A9010E94D0
:103E30000E5881E08BA719C08DA5882389F08230A8
:103E400059F483E08DA7CE01499645E050E060E04B
:103E500070E00E940E581BA6CE0141960E94961D4E
:103E60001092D60C1092D50C0AC080E090E00E940F
:103E7000961D1092D60C1092D50C1092E206DF918E
:103E8000CF911F910F910895EF92FF920F931F937F
:103E9000CF93DF93EC018A0188819981009731F0FB
:103EA00023E08030920709F02CC131C080E00BC0C4
:103EB000E82FF0E0EE0FFF1FEE0FFF1FE251F94F6A
:103EC000118210828F5F823098F380930007809177
:103ED000690490916A049093F7068093F6060E9415
:103EE000090D8093720E0E94090D8093730E88EF66
:103EF00096E06EE370E00E94FA010E943E140E9478
:103F0000D24180E093E09983888381E0FDC06230F4
:103F100009F4D9C0633030F4662309F4B6C06130C7
:103F200081F7C3C0673819F0683859F755C0109247
:103F300001079EEEE92E96E0F92E18C0F701828166
:103F400093818017910749F4808191810E94B41573
:103F5000F701118210821382128284E090E0E80E51
:103F6000F91E809101078F5F8093010780910107FF
:103F7000823020F38091060E9091070E80179107F2
:103F800031F41092070E1092060E1092030E8091DB
:103F9000320E9091330E8017910731F41092330E48
:103FA0001092320E10922F0E8091550E9091560E57
:103FB0008017910721F41092510E1092500E8091AB
:103FC0006E0E90916F0E8017910709F09ACF1092A4
:103FD0006A0E1092690E95CF96E0483F5907D1F5C9
:103FE000CA010E9425020097A9F1109201078CE2F4
:103FF000E82EF12C2BC090E08E9DF0018F9DF00DEE
:104000009E9DF00D1124E252F24F85A18823C9F044
:1040100088EF96E00E9410022091010730E02E9D6B
:10402000C0012F9D900D3E9D900D11248252924F04
:104030009093DD0D8093DC0D82E00E94E8150E94D4
:10404000801E809101078F5F809301078091010797
:10405000823088F2E0E10D361E0749F4C8010E9463
:104060002502009721F00E94CB3B0E94801EFFE0BA
:1040700009371F0709F045CFC8010E9425020097A4
:1040800009F43FCF0E94CA381BC04115510509F4FD
:1040900038CF5093DD0D4093DC0D83E00E94E8158E
:1040A0000E94801E0E948B1D2CCF4115510509F4E2
:1040B00028CF5093D90D4093D80D85E00E94E81584
:1040C0000E94801E1ECF8091D50C9091D60C009737
:1040D00009F417CF8091EB0C863031F480911A0DE2
:1040E00081FF02C00E948B1D81E00E94E815809133
:1040F000D50C9091D60C009709F403CF0E94F820BC
:1041000000CF1982188283E0DF91CF911F910F9128
:10411000FF90EF900895AC0181E693E061E00E948A
:10412000990D0895AC0181E693E060E00E94990D3D
:1041300008950F931F93CF93DF93EA010E947D149C
:104140008C01009761F08091690490916A04F801F4
:1041500091A780A7D3A7C2A7C8010E949220C80137
:10416000DF91CF911F910F910895CF93DF93A0918D
:10417000DC0DB091DD0D109719F0ED01A89605C08A
:10418000C091D80DD091D90D65968091D50D86FF3F
:1041900022C01092020740E0EEEEF6E016C0208149
:1041A000318150968D919C9151972817390759F478
:1041B00082819381009739F0409302079983888325
:1041C0001B821A8206C034964F5F423040F3409300
:1041D00002070E948B1D88819981009731F04A81E6
:1041E0005B816091720E0E94BC0DDF91CF910895AA
:1041F0001F93CF93DF938091EB0C863009F059C069
:104200008091D50C9091D60C803F910509F051C05A
:10421000C6E9D0E0D093D60CC093D50C1092E90C2F
:104220001EE61093EA0C10921E0D10921D0D0E94B6
:1042300036148095909590931E0D80931D0D0E94CD
:10424000801ED093D60CC093D50C1092E90C10931D
:10425000EA0C9091DA0D8091DB0DE92FF82FDF0148
:10426000A65ABF4F8AE50D9001928150E1F781E196
:104270009DE06AE570E00E94C5138091D90C80939F
:10428000110D8091DA0C8093120D8091DB0C8093DC
:10429000130D8091DC0C8093140D10921E0D109262
:1042A0001D0D0E9436148095909590931E0D80935D
:1042B0001D0D0E94801EDF91CF911F9108951F93C5
:1042C000CF93DF938091800E8093EC0C8091FD0C56
:1042D0008F3F81F4EDEFFCE0DF01509780E10D901E
:1042E00001928150E1F78DEE9CE06DEF7CE00E9441
:1042F0005D3B1BC0A7E0B7E0EDEEFCE080E1019084
:104300000D928150E1F7EDEEFCE0DF01509680E187
:104310000D9001928150E1F7ADEFBCE0E7E0F7E0EE
:1043200080E101900D928150E1F78091E2068823AF
:1043300009F455C00E948456182F6091E206882324
:1043400071F18AE380930D0D611731F1212F30E077
:1043500070E0C901861B970B4091D50C5091D60C8B
:10436000480F591F5093D60C4093D50CFA01B897BB
:10437000F093E90CE42FE852E093EA0C645D7F4F80
:10438000860F971F6B51734F421B530B4C5250407B
:104390008B51934F0E943F5B1093E20620C08AE34B
:1043A0008093EB0C70E04091D50C5091D60C461BDD
:1043B000570B5093D60C4093D50CCA018897909315
:1043C000E90C842F88528093EA0C6F5E724F4C5236
:1043D000504081E19DE00E943F5B1092E206809197
:1043E000E206C82FD0E0C35FD24F81E888831982EC
:1043F0001B821A820E943214809590959B838A8337
:10440000DF91CF911F910895BF92CF92DF92EF92EB
:10441000FF920F931F93CF93DF93082F162F6901FD
:104420007A01E091E206EE2339F0F0E0E35FF24F2B
:1044300080818A3349F49AC08091EB0C8A3321F44D
:1044400080910D0D87FF92C00E948456B82E8093F4
:10445000E206A7E0B7E0EDEFFCE080E101900D920D
:104460008150E1F78091D50C9091D60CC096909335
:10447000D60C8093D50C25E08130920730F080E097
:1044800095E09093D60C8093D50C2B2D30E0C9018C
:10449000880F991F4091D50C5091D60C4053504035
:1044A000421B530B8B5E924F65EE7CE00E943F5B9C
:1044B00080E68093E50C1092E60C1092E80C1092C6
:1044C000E70CBB2021F08AE380930D0D03C08AE343
:1044D0008093EB0C8091800E8093EC0C8091ED0C1E
:1044E0009091EE0C009751F58091EF0C9091F00CAB
:1044F000009721F58091F10C9091F20C0097F1F466
:104500008091F30C9091F40C0097C1F48091F50C1C
:104510009091F60C009791F48091F70C9091F80C23
:10452000009761F48091F90C9091FA0C009731F4A6
:104530008091FB0C9091FC0C0097C1F0EDEFFCE03A
:10454000DF01509780E10D9001928150E1F7809159
:1045500007078F3F81F4043049F4123039F48DEEAF
:104560009CE067E077E00E945D3B0EC01092D60CA5
:104570001092D50C36C0ADEEBCE0E7E0F7E080E18C
:1045800001900D928150E1F78091E206C82FD0E0B2
:10459000FE01E35FF24F00831183C701B6010E9461
:1045A000591DCF5ED24F688379838A839B83809124
:1045B000D50C9091D60C9C01285230403093E90CD8
:1045C00088528093EA0C8091E206C82FD0E0C35F46
:1045D000D24F1B821A820E943214809590959B8341
:1045E0008A83DF91CF911F910F91FF90EF90DF9021
:1045F000CF90BF900895CF92DF92FF920F931F93B9
:10460000DF93CF930F92CDB7DEB7F62E690120E688
:104610002093E50C1092E60C1092E80C1092E70C37
:104620002AE32093EB0C2091800E2093EC0C960152
:104630002C5F3F4F3093E90C2C2D2C5F2093EA0C1C
:10464000EDEFFCE0282F392FD90180E10D90019288
:104650008150E1F78DEE9CE06DEF7CE049830E9494
:104660005D3B0091E20610E0035F124FF801F0821B
:1046700049814183138212820E9432148095909561
:10468000F80193838283C6018C969093D60C809315
:10469000D50C0E94801E0F90CF91DF911F910F913A
:1046A000FF90DF90CF900895CF93DF93FC0160835C
:1046B00082E08183EF012296ADEDBCE088E00D90B1
:1046C00009928150E1F73A9686E011928A95E9F7CE
:1046D000DF91CF910895DF92EF92FF920F931F9396
:1046E000CF93DF938091EC0C8F3F09F09AC1E0915A
:1046F000E206F0E0EB51F34F80A98F3F09F491C13E
:1047000081A5882309F08DC110921907109218070E
:1047100084E18093170792E0D92E84C0F901EB5110
:10472000F34F8181882309F47CC18081813009F0B5
:1047300069C0F0931907E09318078091ED0C9091F0
:10474000EE0C009759F58091EF0C9091F00C0097CA
:1047500029F58091F10C9091F20C0097F9F4809179
:10476000F30C9091F40C0097C9F48091F50C9091A2
:10477000F60C009799F48091F70C9091F80C009743
:1047800069F48091F90C9091FA0C009739F48091BA
:10479000FB0C9091FC0C009709F443C18DEE9CE05A
:1047A0000E947F35EC0190931B0780931A0760915C
:1047B000180770911907009749F46E5F7F4F8DEECF
:1047C0009CE040E022E00E94DF341CC082E0E82E42
:1047D000F12CE60EF71E8E010F5E1F4FC701B801C8
:1047E00048E050E00E94295B009741F0D801F701B2
:1047F00088E001900D928150E1F703C08DA58823D8
:1048000009F4DDA690911707E091E206F0E0EB5184
:10481000F34FE90FF11D85A5880F880F880F890FC9
:10482000809317078091E20690E020911707AC0172
:10483000420F511D9A01245D3F4F4091D50C50917C
:10484000D60C2417350708F469CF8B5E924F0E946F
:104850003B379093310780933007009709F4E1C00C
:104860008091ED0C9091EE0C009759F58091EF0C32
:104870009091F00C009729F58091F10C9091F20C39
:104880000097F9F48091F30C9091F40C0097C9F41F
:104890008091F50C9091F60C009799F48091F70CAB
:1048A0009091F80C009769F48091F90C9091FA0CB2
:1048B000009739F48091FB0C9091FC0C009709F45F
:1048C000B0C08DEE9CE00E943B37009709F0A9C074
:1048D0008091FD0C8F3F09F03EC08091FE0C82302C
:1048E000D1F58091FF0C9091000D0097A1F580917A
:1048F000010D9091020D009771F58091030D90913B
:10490000040D009741F58091050D9091060D0097DB
:1049100011F58091070D8823F1F48091080D813005
:10492000D1F48091090D8F3FB1F4EDEFFCE0DF0190
:10493000509780E10D9001928150E1F7E091E206FD
:10494000F0E0ADEEBCE0EB5EF24F80E101900D9245
:104950008150E1F721C08DEF9CE00E943B37209110
:104960003007309131072817390709F05AC0EDEFA9
:10497000FCE0DF01509780E10D9001928150E1F75A
:10498000E091E206F0E0ADEEBCE0EB5EF24F80E1DC
:1049900001900D928150E1F71092E20680E680933B
:1049A000E50C1092E60C1092E80C1092E70C1092B5
:1049B000E90C98E29093EA0C9AE39093EB0C9FEF4A
:1049C0009093EC0CADE0BDE098E890930D0D11963E
:1049D0001C9211978093110DE0913007F0913107EF
:1049E0001896319680E101900D928150E1F785E2B1
:1049F0009DE062E00E9454238091E206C82FD0E03F
:104A0000C35FD24F1B821A820E9432148095909508
:104A10009B838A8380E590E09093D60C8093D50C9D
:104A200004C01092D60C1092D50CDF91CF911F913B
:104A30000F91FF90EF90DF900895CF93DF93EC01FB
:104A4000CA011092E20620E62093E50C1092E60CD3
:104A50001092E80C1092E70C2AE32093EB0C2FEF56
:104A60002093EC0CEDEFFCE061157105E1F420936F
:104A7000FD0C32E031831382128215821482178278
:104A8000168211861086128631E033872487DA0178
:104A90001D962C911D9725871E962D913C911F9751
:104AA0003787268706C0DB0120E10D900192215057
:104AB000E1F7E091E206F0E0EB51F34F27E820A7A1
:104AC00011A614A615A616A617A6F096DC0120E1DD
:104AD0000D9001922150E1F71092E90C0E943B37B2
:104AE000009709F053C0209741F0EDEEFCE080E123
:104AF000099001928150E1F706C08DEE9CE06DEFC8
:104B00007CE00E945D3B8091ED0C9091EE0C009753
:104B100079F58091EF0C9091F00C009749F5809118
:104B2000F10C9091F20C009719F58091F30C909193
:104B3000F40C0097E9F48091F50C9091F60C009735
:104B4000B9F48091F70C9091F80C009789F480915A
:104B5000F90C9091FA0C009759F48091FB0C90910C
:104B6000FC0C009729F41092D60C1092D50C39C089
:104B700088E28093EA0C8091E20690E08B5D924F90
:104B800061E00E94542380E590E019C0EDEEFCE066
:104B90001092EE0C1092ED0C138212821582148288
:104BA0001782168211861086138612861586148641
:104BB0001786168688E18093EA0C80E490E0909353
:104BC000D60C8093D50C8091E206C82FD0E0C35F4D
:104BD000D24F1B821A820E943214809590959B833B
:104BE0008A83DF91CF910895DF92EF92FF920F9326
:104BF0001F93CF93DF932091E20630E0F901EF5E3F
:104C0000F24FE0808091EC0C8F3F09F0EFC0D901AA
:104C1000A35FB24F11968C911197882309F0E6C0DB
:104C200084818F3F09F4E2C040E4D42EDE20E6FE0A
:104C300005C08091FD0C8F3F09F4D8C04091D50C80
:104C40005091D60C64E180E090E0245D3F4F16C0A7
:104C5000AB51B34F11967C911197772339F4909310
:104C600019078093180760931707C0C00C91023092
:104C700009F4CD01770F770F770F670FD901A60FD2
:104C8000B11DA417B50720F3909319078093180757
:104C900060931707CF0104960E943B37909331072A
:104CA00080933007009709F0A1C08091E20690E060
:104CB0008B5E924F0E947F35EC0190931B0780938F
:104CC0001A07009709F492C000911807109119076C
:104CD0000115110551F0BC016F5E7F4FC8010296AE
:104CE00048E050E00E94295B01C080E020E8F22EFD
:104CF000FE209DA5992351F50115110509F476C0F3
:104D0000DE015196F801329688E001900D928150B3
:104D1000E1F7DD20C1F081E08DA71BA66091850E33
:104D20007091860E8091870E9091880E28EE33E068
:104D300040E050E00E94A95ACE014996BA01A9016B
:104D40000E940E584EC082E08DA74BC0E5FC08C003
:104D5000882331F0913009F049C082E08DA746C028
:104D60000115110549F0DE015196F801329698E0DF
:104D700001900D929150E1F7DD20B9F081E08DA70F
:104D80006091850E7091860E8091870E9091880EAD
:104D900028EE33E040E050E00E94A95ACE01499647
:104DA000BA01A9010E940E5807C00115110521F092
:104DB000882311F082E08DA7E0911A07F0911B077C
:104DC00084A5882371F0FF2061F48DEE9CE00E94A1
:104DD00038369093330780933207009711F00E9482
:104DE0003336E0911A07F0911B07F4A61092D60C07
:104DF0001092D50CDF91CF911F910F91FF90EF9002
:104E0000DF900895CF93DF9380E68093E50C1092B6
:104E1000E60C1092E80C1092E70C8AE38093EB0CFE
:104E20008FEF8093EC0CEDEFFCE08FEF92E090932E
:104E3000FE0C8093FD0C138212821582148217825D
:104E4000168211861086138612861586148680E0D7
:104E500092E097878687CF014097BF010E945D3B14
:104E60008091E206282F30E0F901E35FF24F95E8E8
:104E7000908311821092E90C4091ED0C5091EE0C50
:104E800041155105D9F54091EF0C5091F00C4115A9
:104E90005105A1F54091F10C5091F20C41155105CD
:104EA00069F54091F30C5091F40C4115510531F521
:104EB0004091F50C5091F60C41155105F9F44091D3
:104EC000F70C5091F80C41155105C1F44091F90CC3
:104ED0005091FA0C4115510589F44091FB0C509109
:104EE000FC0C4115510551F488E08093EA0C205DDB
:104EF0003F4F3093D60C2093D50C0FC0205C3F4F12
:104F00003093D60C2093D50C98E19093EA0C90E066
:104F10008B5E924F61E00E9454238091E206C82F7D
:104F2000D0E0C35FD24F1B821A820E943214809558
:104F300090959B838A83DF91CF910895DF92EF92C2
:104F4000FF920F931F93CF93DF938091EC0C8F3FD1
:104F500009F06AC28091ED0C8E3F09F065C2809124
:104F6000EE0C803809F060C2E091E206F0E0DF016B
:104F7000A35FB24F11968C911197882309F054C208
:104F8000EF5EF24F8081882311F08093800E648160
:104F9000758186819781611571058105910561F1A2
:104FA000E090810EF090820E0091830E1091840E9D
:104FB0000E94591DE616F70608071907E9F0E09167
:104FC000E206F0E0EF5EF24F6481758186819781A1
:104FD0000E94591D6093810E7093820E8093830E00
:104FE0009093840E0E94E63B6093850E7093860E2C
:104FF0008093870E9093880EE091E206F0E0EF5EDA
:10500000F24F6085718582859385611571058105F3
:10501000910551F00E94591D6093890E70938A0E7C
:1050200080938B0E90938C0E8CE08093170762E038
:10503000D62EB1C1FC01EB51F34F8181882309F4D5
:10504000F3C18081833009F457C0853009F445C02D
:10505000813009F090C1F0931907E09318078DEEA5
:105060009CE00E947F35EC0190931B0780931A0708
:10507000009789F460911807709119076E5F7F4F50
:105080008DEE9CE041E022E00E94DF3490931B070C
:1050900080931A0770C18DA5882309F4DDA60091BD
:1050A0001807109119070E5F1F4F51E1E52EF12CE3
:1050B000EC0EFD1EC801B70148E050E00E94295BDC
:1050C000009741F0D701F80188E001900D928150DE
:1050D000E1F7DDA681E08CA74EC1648175818681F0
:1050E00097810E94591D60937C0E70937D0E809372
:1050F0007E0E90937F0E3FC1F0931D07E0931C0737
:1051000064817581868197810E94591D7B018C0184
:10511000E0911C07F0911D0760857185828593855C
:105120000E94591DE616F7060807190708F423C15F
:10513000E0911C07F0911D0780898E3F21F4818941
:10514000803809F418C1838187FF5FC0CF01409682
:1051500062810E94ED36EC0190931F0780931E0739
:10516000E0911C07F0911D07009749F58481958116
:10517000A681B7810097A105B10509F446C0EF01EA
:1051800060968F3F2FEF92072FEFA2072FEFB20706
:1051900051F00281BC01CD010E94591D9B01AC015F
:1051A000CE01602F05C0CE01628120E030E0A90170
:1051B0000E94913690931F0780931E0726C064813A
:1051C000758186819781611571058105910549F089
:1051D0006F3F3FEF73073FEF83073FEF930741F4C4
:1051E00004C0CE010E94E83610C081E08A8F0DC055
:1051F0000E94591DAB01BC01CE0142960E940E587F
:10520000E0911E07F0911F07128EE0911C07F091AC
:105210001D07838186FFAFC084819581A681B781F8
:105220000097A105B10509F4A6C08281803409F078
:10523000A2C0A0E2B7E0709680E101900D9281508B
:10524000E1F780E297E06DED7CE00E942F3B80E289
:1052500097E00E943B37FC01909331078093300721
:10526000009709F45FC02289213009F05BC0A0914A
:105270001C07B0911D0714966D917D918D919C91A5
:1052800017976F3F3FEF73073FEF83073FEF93079A
:1052900009F446C00E94591D61322CE1720720E0DA
:1052A000820720E09207C0F4E0911C07F0911D07EF
:1052B00064817581868197810E94591D7B018C01D3
:1052C000809130079091310744960E9469586E157D
:1052D0007F058007910798F4C0913007D09131077E
:1052E0006496E0911C07F0911D07648175818681A9
:1052F00097810E94591DAB01BC01CE0109C080916C
:10530000300790913107449640E25CE160E070E044
:105310000E940E58E0913007F0913107138A2BC09C
:10532000238B29C0E0911C07F0911D0764817581D2
:10533000868197810E94591D6F3F3FEF73073FEFB2
:1053400083073FEF930731F480E297E040E050E0BD
:10535000BA010EC0E0911C07F0911D0764817581B0
:10536000868197810E94591DAB01BC0180E297E0C4
:1053700021E00E94E83790911707E091E206F0E003
:10538000EB51F34FE90FF11D85A5880F880F880FAA
:10539000890F809317072091E2068091170790E00C
:1053A000820F911D8C962091D50C3091D60C8217CE
:1053B000930708F43FCE8DEE9CE00E943836EC0156
:1053C0009093330780933207E091E206F0E0EF5EBE
:1053D000F24F82819381009711F1A0911A07B09149
:1053E0001B07109721F081E09C968C939C978281FB
:1053F0009381209751F40E94551DAC0160E070E04C
:105400008DEE9CE00E94DB350FC00E94551DAC0163
:1054100060E070E0CE0141960E940E5805C02097D2
:1054200019F0CE010E9433361092D60C1092D50C92
:10543000DF91CF911F910F91FF90EF90DF90089532
:1054400090913908913021F490913A08981759F0C9
:10545000909143089130B1F490914408981791F4D9
:1054600081E090E002C080E090E09C01220F331FB9
:1054700043E0880F991F4A95E1F7280F391F275CF1
:10548000374F02C020E030E0C9010895FB01DA0186
:105490009C9122E092272085291769F52185119694
:1054A0009C911197291739F5228512969C91129794
:1054B000291709F5238513969C9113972917D9F479
:1054C000248514969C9114972917A9F4258515967F
:1054D0009C911597291779F4268516969C91169715
:1054E000291749F4278517969C911797291719F4BE
:1054F00023E030E033C02085318521153105D9F412
:1055000092859923C1F493859F3FA9F494859E3F8A
:1055100091F49585992379F426853785E0913508AE
:10552000F091360821933193F0933608E0933508D3
:1055300022E030E013C02091350830913608D901BF
:10554000389698E001900D929150E1F7285F3F4F17
:10555000309336082093350821E030E002C0220F56
:10556000331F8A95E2F7822F0895AF92BF92CF92B0
:10557000DF92EF92FF920F931F93CF93DF93EC0193
:105580008901F42EF294BFE0FB22AFE0EA2EE42280
:105590002F2D2F3011F4F0E1FF2E3E2D3F3011F46E
:1055A000E0E1EE2EFF2029F0CE014F2D50E00E94C9
:1055B000365BCE2CDD244F2D50E0C601840F951FA5
:1055C0008031910564F420E130E0281B390B4C0F49
:1055D0005D1FCA0160E070E0A9010E94515BEE20EE
:1055E00011F10091350810913608AE2CBB249E01B4
:1055F0002C193D09205F3F4FC901B8014E2D50E0E5
:105600000E94365B2E2D223039F43F2D3B3020F4A2
:105610008FEF8B878EEF8C870A0D1B1D109336083A
:105620000093350806C0FF2021F0CE01B8010E948A
:105630002F3BDF91CF911F910F91FF90EF90DF9063
:10564000CF90BF90AF9008956091EB0C82E070E036
:105650000E94B9118091EB0C813111F0863069F410
:1056600060910D0D70910E0D80910F0D9091100DA8
:105670008617970778F4BC010DC08A3349F49091DE
:105680000D0D80E060910E0D70E0682B792B02C04B
:1056900060E070E081E00E94B91108956F927F92FE
:1056A0008F929F92AF92BF92CF92DF92EF92FF9232
:1056B0000F931F93DF93CF9300D000D00F92CDB7FD
:1056C000DEB710923407109235070E948D10909328
:1056D00037078093360788E397E00E94500E0097C3
:1056E00041F010923D0710923C0710923F07109234
:1056F0003E07E0913607F0913707908180E0018105
:1057000010E0082B192BC8018070987F892F9927EA
:10571000803C910521F0803E910581F511C0177004
:10572000928180E0E380FF24E82AF92A80913507FE
:105730008C5F80933507AA24BB24B394992429C095
:105740009480928180E0E380FF24E82AF92A177090
:10575000809135078B5F80933507C0903E07D090CE
:105760003F070E94DF1020913507C21AD108C80EEA
:10577000D91EC016D10650F4AA240AC0AA24BB24FC
:10578000EE24FF24992400E010E003C0AA24A3948F
:10579000BB2480913E0790913F070097F9F00115D7
:1057A000110509F41DC380913C0790913D0708172E
:1057B000190709F015C380914007909141078E1594
:1057C0009F0509F00DC388E10E94DA11BC0184E74E
:1057D0009EE00E94D80A0097E1F402C3C801019735
:1057E000803F9105B0F410933D0700933C07F09281
:1057F0004107E092400788E397E067E771E00E9485
:10580000300E88E10E94DA11BC0184E79EE00E941C
:10581000CC0AA0913507A53009F454C2209136076F
:10582000309137074A2F50E0F901E40FF51FB0819E
:105830008B2F90E0BC01607E70706036710509F0BE
:105840002AC24E5F5F4F420F531F5093360840935A
:105850003508E180E7FE06C04F5F5F4F5093360882
:10586000409335089C012870307084FD44C0E0915D
:105870003508F09136082115310549F523E437E064
:10588000BF016F5F7F4F43E0DB010D90BD01D90188
:105890000D929D014150C1F720813496F093360856
:1058A000E0933508422F46954695342F3F70306679
:1058B0003093420740732295220F220F207C242B25
:1058C000309143073F70232B2093430740C020E6CD
:1058D000209342073081232F2695269520733F7011
:1058E000232B209343072181328130934507209356
:1058F000440733961EC02115310501F5E0913508A6
:10590000F09136082081269526952F7020662093E9
:1059100042072191322F3695369530732295220F0A
:10592000220F207C232B20934307109245071092CF
:105930004407F0933608E093350809C020E6209329
:10594000420710924307109245071092440744E023
:10595000642E712C6822792282FD0BC0E0913508FB
:10596000F0913608219120934807F0933608E09390
:10597000350883709070009739F086579C4FFC0172
:105980008081809349070BC0E0913508F09136087B
:10599000819180934907F0933608E0933508CE2C27
:1059A000DD24F601E073F07034E0F595E7953A9563
:1059B000E1F723E0822E8E22E6FE38C0E7FE0EC01D
:1059C00080913507A0913607B0913707A80FB11D18
:1059D00012968C91129782958F7001C080E088207A
:1059E00049F00E94202A9093380880933708009746
:1059F00009F468C1882039F060913708709138083F
:105A00006E5F7F4F02C060E070E0E82DF0E0E1598A
:105A1000FC4F408188E14D836B837C830E94DA11C7
:105A20009C018AE497E06B817C810EC0E82DF0E058
:105A3000E559FC4F408188E14D830E94DA119C01B9
:105A40008AE497E067E773E04D810E94B52A93E00E
:105A5000892E8E20C60184709070C3FE22C00097EC
:105A600009F05CC08FEF898382E08A83882D8150A2
:105A7000823050F4E0913508F091360881918A83A4
:105A8000F0933608E0933508E82DF0E0ED58FC4F30
:105A90008AE597E0BE016F5F7F4F408120E030E0F4
:105AA0003BC0009751F1E7FE0DC080913507A091F2
:105AB0003607B0913707A80FB11D12968C91129737
:105AC0008F7001C080E00E94202A7C0190933808EA
:105AD00080933708009709F4F5C0E82DF0E0E1590C
