:100000000C94A6000C94C5000C94C5000C94C5007B
:100010000C94C5000C94C5000C94112B0C94C500D5
:100020000C94C5000C94C5000C94C5000C94C5003C
:100030000C94C5000C94C5000C94C5000C94C5002C
:100040000C94C5000C94C5000C94C5000C94C5001C
:100050000C948E2B0C942A250C94C5000C94C5008E
:100060000C94C5000C9493570C94C5000C94C500D7
:100070000C94C5000C94C5000C94C5000C94C500EC
:100080000C94A5580C94C5000C94C5000C94C500A4
:100090000C94C2570C94C5000C94C5000C94C50078
:1000A0000C94C5000C94C5000C94C5000C94C500BC
:1000B0000C94C5000C94C5000C94C5000C94C500AC
:1000C0000C94C5000C94C5000C94C500537973744E
:1000D000656D206F6E6C696E652E0A000A2A2A2AE9
:1000E0002A2A2A2A2A424F4F54494E4720434F4E2C
:1000F00054494B492A2A2A2A2A2A2A2A2A0A000A41
:10010000002C20636865636B20726174652025751F
:1001100020487A0025732025732C206368616E6E59
:10012000656C202575004D414320616464726573E0
:10013000732025783A25783A25783A25783A257833
:100140003A25783A25783A25780A000011241FBE0E
:10015000CFEFD1E2DEBFCDBF14E0A0E0B2E0E4EC2F
:10016000F2EC00E00BBF02C007900D92A230B10785
:10017000D9F712E1A2E0B4E001C01D92A033B107AB
:10018000E1F70E945C240C9460610C940000CF9312
:10019000DF93EC0188819981009751F4259A269A82
:1001A000279A2F982E9A2D9A80E092E00E944E5E18
:1001B0001982188283E0DF91CF910895CF93DF9366
:1001C000EC01888199818936910549F18A3691053A
:1001D00008F0A6C0009729F08F35910509F0A0C05E
:1001E00007C083E092EF0E946D0C8FE590E014C091
:1001F0008091820D681709F097C08091E50C86FF09
:10020000F4CF8CE094E062E074E04AE050E00E94B9
:10021000D8117DC089E690E09983888385C080915C
:10022000820D681709F080C080910C0490910D0434
:1002300086349105C1F18734910548F483339105E3
:10024000A1F08E33910511F1009749F05CC087341D
:100250009105C9F18834910509F055C047C083E381
:1002600090E090930D0480930C048CE094E06BE09C
:1002700072E041E350E00E94A00F82300CF447C0CE
:100280008EE390E090930D0480930C048CE094E056
:100290006AE00E9467108230D4F186E490E0909387
:1002A0000D0480930C048CE094E06DE372E048E16F
:1002B00050E00E94A00F823054F187E490E09093C8
:1002C0000D0480930C048CE094E00E944A10AC0171
:1002D0008CE094E062E074E00E94A00F8230BCF0F9
:1002E00088E490E090930D0480930C048CE094E0FB
:1002F00066E572E04BE050E00E94A00F82303CF0D7
:1003000080E18093E50C10920D0410920C04809112
:10031000E50C85FD6ACF84FD68CF87FF7BCF65CF75
:100320001982188283E001C081E0DF91CF910895A6
:100330009C0141505040460F571FDB0110C0FC91FB
:10034000E0E011968C911197BF01680F711D260F87
:10035000371F2617370710F42F5F3F4F1296A41749
:10036000B50768F3A417B50749F49C9180E0280FFE
:10037000391F2817390710F42F5F3F4FC90108951F
:100380000F931F93DF93CF9300D0CDB7DEB70091CB
:1003900022043091F90B20E010E0201B310B9091EA
:1003A000FA0B290F311D3A83298329813A81A9014A
:1003B000480F511DCA016DEF7BE040E250E00E9402
:1003C000980149815A81B801635E734F0E94980178
:1003D000009719F0382F292F02C02FEF3FEFC901E6
:1003E0000F900F90CF91DF911F910F910895A091E1
:1003F00022046A2F70E0685D7F4FFB01EB50F44FE1
:10040000418150E083E0440F551F8A95E1F7495F31
:100410005F4F22E054C0FC01E60FF71FEB50F44F92
:100420003081313009F448C0313018F03336D1F41E
:1004300002C02F5F44C0209323040E94E041009734
:1004400009F047C09091230480912204E92FF0E045
:10045000E80FF11DE35EF34F8181890F8E5F80937A
:10046000230435C0832F90E0807C90708038910504
:1004700049F0803C910549F080349105E9F42093DE
:10048000230427C02093230406C0209323048091D3
:100490000D0C8F3F01F130E040E050E02A0F311D9C
:1004A000411D511D285D3F4F4F4F5F4F84E062E07B
:1004B0000E94F51282E0089581818E5F280F822FBD
:1004C00090E0481759070CF0A6CF2093230480E052
:1004D000089581E0089581E00895FC014381460F6D
:1004E0004093EC0B872F99272281280F2093EB0B49
:1004F000A181A093EA0B50815093E90B30E02817BB
:10050000390748F48A2F8F5F8093EA0B882319F408
:100510005F5F5093E90B842F90E070708617970708
:1005200098F48091EB0B8F5F8093EB0B882361F441
:100530008091EA0B8F5F8093EA0B882329F48091E6
:10054000E90B8F5F8093E90B0895BC018091EC0C5F
:100550009091ED0C44960E946D02E091EC0CF091AC
:10056000ED0C8091E90B848B8091EA0B858B809157
:10057000EB0B868B8091EC0B878B08959C01AB0174
:1005800080E090E0B9010E949801382F292FC9011D
:10059000089580E090E065EF7BE048E250E00E9443
:1005A0009801009719F0382F292F02C02FEF3FEF45
:1005B000C90108958AE30E94C001089586E00E945F
:1005C000C001089581E10E94C00108950E9499220E
:1005D00080E009C0E82FF0E0EE0FFF1FE65BF24F6E
:1005E000118210828F5F8230A8F340E08CE290E0AD
:1005F0000DC0242F30E0289FF001299FF00D389F77
:10060000F00D1124E251F34F15A24F5F423088F3F1
:1006100080E094E090932D0480932C0440E089E1E5
:1006200090E00EC0242F30E0289FF001299FF00DAC
:10063000389FF00D1124E05BF24F118A108A4F5F52
:10064000423080F340932A0408951F93CF93DF93A1
:1006500020912C0430912D042F5F3F4F4DE7203027
:10066000340710F020E030E1522F432FE091130DBA
:10067000EE2339F0E091FE0CF091FF0CE417F50742
:1006800059F3E0913F0DEE2339F0E0912A0DF091FE
:100690002B0DE417F50701F330932D0420932C0460
:1006A00010922A0410E0E0E0F0E02CE230E020C0FC
:1006B000412F50E0429FD001439FB00D529FB00D9B
:1006C0001124A251B34F95964C919597442321F450
:1006D00010932A04FD0110C0473049F4309731F0DF
:1006E00096965C91969746A1451708F4FD011F5F09
:1006F0001230F0F210932A043097B1F122E025A3D2
:1007000020912404208F20912504218F20912604FC
:10071000228F20912704238F148A158A168A178A1C
:1007200024EB30E0378F268F31A320A321E030E087
:10073000358F248F17A221E026A323E024A312A241
:1007400020E123A320912C0430912D04322723276C
:100750003227318B208B738B628BEF01DC0180E1C0
:100760000D9009928150E1F7CF01DF91CF911F9158
:1007700008950F931F93CF93DF9360912204662314
:10078000E9F070E0C091E50BD091E60BC61BD70BEA
:100790008E0108521040635E734F8DE19CE0A8010A
:1007A0000E94155ED093E60BC093E50BE5EFFBE0EE
:1007B00014839E012852258310922204DF91CF9149
:1007C0001F910F9108950F931F93CF93DF93209163
:1007D0002C0430912D042F5F3F4F4DE7203034071C
:1007E00010F020E030E1522F432FE091600DF091A6
:1007F000610DE417F50779F3E091790DF0917A0D29
:10080000E417F50741F330932D0420932C0410E0F6
:1008100049E150E019C0012F0F5F212F30E0249FE4
:10082000F001259FF00D349FF00D1124E05BF24F95
:10083000DF015096C089D189209729F410932A04AA
:10084000309749F433C0102F123028F310932A0444
:10085000E0E0F0E02BC040912C0450912D0454278F
:100860004527542711965C934E93738B628B0097A8
:1008700031F480E1EF0119928A95E9F707C0EF01A1
:10088000DC0180E10D9009928150E1F789E190E06F
:10089000289FD001299FB00D389FB00D1124A05B77
:1008A000B24F8091880D54968C935497CF01DF916D
:1008B000CF911F910F91089540E013C0E42FF0E015
:1008C000542F5F5FEE0FFF1FE65BF24F20813181F7
:1008D0002817390729F440932A04118210820895B9
:1008E000452F423058F340932A04089540E013C046
:1008F000E42FF0E0542F5F5FEE0FFF1FE65BF24F37
:10090000208131812115310529F440932A049183F6
:1009100080830895452F423058F340932A04089568
:10092000BF92CF92DF92EF92FF920F931F93CF93DC
:10093000DF93C091EC0CD091ED0C843009F451C2DE
:1009400001E31CE01093EB0C0093EA0C1093E80B0E
:100950000093E70B833071F48DA190E08F7090705D
:100960008330910509F074C08C8D9D8D009709F03E
:1009700030C78DC0823009F08EC01092E60B109205
:10098000E50B10924F0D10924E0D809127048F5F52
:1009900080932704882399F4809126048F5F8093A5
:1009A0002604882361F4809125048F5F80932504B9
:1009B000882329F4809124048F5F809324048DA1DF
:1009C000873011F0853041F48EA18F5F8EA3883778
:1009D00009F0FFC61DA2FDC6882309F4FAC62C8DB6
:1009E0003D8D2115310509F44EC09EA1292F2150BE
:1009F0002EA3992309F0EDC69FA1983031F0282F3E
:100A00002150223048F4953039F41DA280E88093BB
:100A1000E50C0E945D0FC6C5953048F423E030E038
:100A2000092E02C0220F331F0A94E2F701C020E30F
:100A30002EA39F5F9FA390E08F70907083309105ED
:100A4000E1F0843091054CF48130910509F493C3B1
:100A50008230910509F0BDC60DC08630910509F4BC
:100A60003DC58830910509F439C58430910509F0F8
:100A7000B0C634C510922A0C81C384E08093E50C83
:100A80000E945D0FC1C58F70833009F0A2C688E057
:100A90008093E50C7CC5853019F5E091E80CF09168
:100AA000E90C80899189009709F493C61092ED0CA6
:100AB0001092EC0C0C5010401093EB0C0093EA0CCD
:100AC0001093E80B0093E70B10924F0D10924E0D10
:100AD0001092E60B1092E50B88E08093E50C7FC145
:100AE0008091F50B807F803609F073C69091F90BE9
:100AF00080E02091FA0B820F911D2091E50B30913F
:100B0000E60B2817390708F464C688969093E60B1D
:100B10008093E50B8091FD0B8F3F09F45AC6C80105
:100B200084970E94C01D009759F4C80184970E94C1
:100B3000F61E009729F480910D0C8F3F09F049C6ED
:100B40008BEF9BE09093E70C8093E60C10922204CD
:100B500010922104E091E60CF091E70C80818B3239
:100B6000E9F18C3248F4863009F48DC1813109F401
:100B7000AAC0882389F059C08A3309F462C08B3334
:100B800020F48C3209F051C024C68B3309F421C6FD
:100B90008C3309F04AC006C08091210480FD45C015
:100BA000816009C08091210481FF04C086FD3DC0A1
:100BB000806401C08260809321040E94F70181302B
:100BC00009F407C6813018F0823021F60AC68091F8
:100BD0002204E82FF0E0E35EF34F1AC08091210475
:100BE00082FD23C084608093210480912204282FF9
:100BF00030E0F901E35EF34F9381992349F0265DDC
:100C00003F4F442737FD4095542F84E060E016C0E5
:100C1000F093E70CE093E60C885F9181990F990FB0
:100C2000990F890F8093220495CFE55FFB409F01C8
:100C3000442737FD4095542F84E061E00E94F5126F
:100C4000D0C50E94DA022FEF8F3F920709F0C1C58D
:100C5000E0912204F0E0EB50F44F80A50E94030DD8
:100C6000E0912204F0E0EB50F44F80A58638B1F01B
:100C7000873838F48138D9F08538C9F08038B9F42C
:100C800013C0883841F0883818F08B3981F409C0D6
:100C90000E945C1410C00E94E5160DC00E948F18BF
:100CA0000AC00E94103C07C00E94501204C010925B
:100CB000E60B1092E50B8091E50B9091E60B009707
:100CC00009F487C58EC50E94B9038091E50B909108
:100CD000E60BC0979093E60B8093E50B85E29CE0D2
:100CE0009093EB0C8093EA0C8091230C9091240C50
:100CF000009739F00E94E202EFEF8F3F9E0709F064
:100D000068C500911F0C1091200C0115110509F404
:100D100060C580E59DE09093E90C8093E80C40C0AD
:100D2000888999890097B9F108171907A1F58A8967
:100D30009B89009739F020911D0C30911E0C2817CB
:100D4000390749F5888199810097E1F48A819B816F
:100D50000097C1F48C819D810097A1F48E819F81C1
:100D6000009781F488859985009761F48A859B8531
:100D7000009741F48C859D85009721F48E859F8591
:100D80000097C1F08DEF9BE0BE0140E150E00E9472
:100D9000FF5D009779F06996D093E90CC093E80C59
:100DA000C091E80CD091E90CFDE0C238DF0708F4EF
:100DB000B7CF0FC51092ED0C1092EC0C82E080932F
:100DC000E50C85E29CE09093EB0C8093EA0C909309
:100DD000E80B8093E70B10924F0D10924E0D0E947E
:100DE0005D0F80914E0D90914F0D009709F4F1C465
:100DF0009C01205D3F4F3093E60B2093E50B089656
:100E00009093F90B28522093FA0BE091E80CF091A3
:100E1000E90C24892093FC0B21E12093FB0BCDE10D
:100E2000DCE09827892798279D838C831F821E8268
:100E30008089918990931E0C80931D0C82899389DF
:100E40009B838A83DE01509780E101900D9281504F
:100E5000E1F78DEF9BE06DE07CE00E94E22181E311
:100E60009CE09093EB0C8093EA0C0E94E202809548
:100E700090959F838E83009709F0A1C48FEF9FEF19
:100E80009F838E839CC40E94B9030E94DE022FEFD1
:100E90008F3F920709F09DC40DE11CE0E0901F0C0C
:100EA000F090200CE114F10409F493C4C0901D0CDF
:100EB000D0901E0CC114D10409F48BC4CEEEDCE03A
:100EC000BDA0BB20A1F088899989E816F90679F4BC
:100ED0008A899B89C816D90651F48DEF9BE0BE0123
:100EE00040E150E00E94FF5D009709F45DC1AC96BF
:100EF0008DE0C634D80721F780912A0C8F73823099
:100F0000B9F4F0922904E092280420E00DC0E22F09
:100F1000F0E0EE0FFF1FE65BF24F808191812F5FC3
:100F2000E816F90609F45FC0223088F320932A04FA
:100F300080912A0C82FD4DC484E1F80185878CE301
:100F400090E09093E60B8093E50B80E58487809199
:100F5000240C9091280C97833091230C9091270CAE
:100F6000968332872091220C9091260C95832187BD
:100F70009091210C90932A044091250C44839087F2
:100F80008F5F8387882361F4832F8F5F8287882315
:100F900039F4822F8F5F8187882311F49F5F9087B8
:100FA00080911D0C90911E0C90932904809328042D
:100FB00020911F0C3091200C30931E0C20931D0C9F
:100FC000F80193838283EDE0FCE0DF01509780E13C
:100FD0000D9001928150E1F78DEF9BE06DE07CE098
:100FE0000E94E221D0C310922A0440E0C0E0D0E089
:100FF0008CE290E026C0242F30E0289FF001299F4A
:10100000F00D389FF00D1124E251F34F25A122235A
:1010100021F440932A04EF0118C0273089F4209767
:1010200021F036A12EA1231758F4242F30E0289F59
:10103000E001299FD00D389FD00D1124C251D34F0C
:101040004F5F4230C0F240932A04209709F4C1C395
:10105000D093ED0CC093EC0C83E08EA38CA31AA26A
:1010600084E08BA31FA280911F0C9091200C998B80
:10107000888B80911D0C90911E0C9B8B8A8BDE01BE
:10108000EDEFFBE080E101900D928150E1F781E00E
:101090008DA380912404888F80912504898F80916D
:1010A00026048A8F809127048B8F81E090E09D8FAA
:1010B0008C8F8091240C8F8B8091230C8E8B809150
:1010C000220C8D8B8091210C8C8B81E090E00E9412
:1010D000A5028091290C282F30E0207F3070213527
:1010E00031050CF448C082958F7090E00597880F09
:1010F000991F880F991F50912B0440E033C0F901CC
:10110000EB50F44F54AD552329F440932A04109228
:101110002B0431C0513011F44F5F24C05230D9F448
:1011200065AD6430C1F440932A0450932B0436AD6E
:1011300020E087AD90E0822B932B9093290480933D
:101140002804853B910510F084EB90E09F8F8E8FF3
:1011500099A388A310C02E5C334FF901208122236C
:1011600031F0420F242F30E02817390744F2409322
:101170002A0450932B0480E180932A0CEDE1FCE0DB
:1011800080912A0C8260858782E0848B84E0858B45
:10119000168A84EB878B80E490E09093E60B809333
:1011A000E50B80E68487B6C2D093ED0CC093EC0CBF
:1011B0001092E50C80912A0C90E082FF03C01DA2E2
:1011C00080E24FC24091290C42954F70440F440F6A
:1011D00040932A042091E50B3091E60B28523040D1
:1011E000241B31093093E60B2093E50B4B2D50E087
:1011F0004F7050704230510539F4AC014F7350704C
:101200004231510551F429C04130510531F4AC014E
:101210004F7350704230510501F12115310531F401
:101220009C012370307021153105B9F03091210CEB
:101230002C89321779F43091220C2D89321751F410
:101240003091230C2E89321729F43091240C2F89E8
:10125000321719F081FD8FCF51C284FF4AC06C8DC7
:101260007D8D6115710509F444C0CE0148960E9438
:101270006D023091250C8091E90B3817D1F5209142
:10128000260C8091EA0B2817A1F59091270C8091EC
:10129000EB0B981771F58091280C4091EC0B84179B
:1012A00041F5388F298F9A8F8B8F8FA18823D1F4A6
:1012B0002AA18CA19EA1891B922F96959695969511
:1012C000891B280F2AA387FD81959BA1392F36956D
:1012D0003695931B980F9BA3822F869586958695AE
:1012E000890F8CA381E08093E50C8CA18EA31D8EC9
:1012F0001C8E2DA130E0C9018F7090708430910553
:1013000009F4B4C18530910564F482309105C9F1C6
:10131000833091050CF0B8C08130910509F059C2B5
:1013200011C08630910509F4E1C1863091050CF4B5
:10133000BDC18730910509F4E1C18830910509F0FC
:1013400048C289C18091E50C80FF14C083E08DA361
:1013500080E48093E50C1D8E1C8E8091E50B9091AE
:10136000E60B009709F40FC122E42093E50C0E94DC
:10137000A50209C180912A0C8F73823009F029C21D
:10138000FACE8091E50C80FF74C080912A0C8F7397
:10139000823109F06EC08091290C282F30E0207F27
:1013A0003070213531050CF448C082958F7090E083
:1013B0000597880F991F880F991F50912B0440E0C3
:1013C00033C0F901EB50F44F54AD552329F4409349
:1013D0002A0410922B0431C0513011F44F5F24C005
:1013E0005230D9F465AD6430C1F440932A0450936F
:1013F0002B0436AD20E087AD90E0822B932B9093A9
:10140000290480932804853B910510F084EB90E03B
:101410009F8F8E8F99A388A310C02E5C334FF90144
:101420002081222331F0420F242F30E02817390782
:1014300044F240932A0450932B0483E08DA38091BF
:10144000210C8C8B8091220C8D8B8091230C8E8BA8
:101450008091240C8F8B81E090E00E94A50282E4B1
:101460008093E50C1D8E1C8E1092E60B1092E50BFE
:101470008AC080E28093E50C0E945D0FE091EC0C45
:10148000F091ED0C15A254CD80912A0C80FF2AC05A
:1014900024FD28C08C8D9D8D009709F09AC1809104
:1014A000E50B9091E60B01960E94A5022091E50CB8
:1014B000822F80618093E50C8091E50B9091E60B83
:1014C000009719F022612093E50C0E945D0F81E0E6
:1014D00090E09D8F8C8F88E08DA31FA281E1809387
:1014E0002A0C0FC185FF1CC050912F0C40E0809149
:1014F000300C90E0842B952B4091EA0C5091EB0C32
:10150000480F591F5093EB0C4093EA0C4091E50BA8
:101510005091E60B481B590B5093E60B4093E50B9B
:101520008091E50B9091E60B009749F024FD07C0F0
:101530002091E50C22602093E50C0E94A502909179
:101540002B0C80E020912C0C820F911D909329048C
:101550008093280428A139A12817390710F0009793
:1015600021F4309329042093280480912804909139
:1015700029049F8F8E8F8091E50C90E0837090708E
:10158000009709F426C110924F0D10924E0D0E9443
:101590005D0F8091E50C85FF07C010924F0D1092F2
:1015A0004E0D1DA284E19BCF84FF0AC010924F0D07
:1015B00010924E0D81E090E09D8F8C8F84E08CCF57
:1015C00020914E0D30914F0D21153105E1F080FF36
:1015D00002C01D8E1C8E8C8D9D8D009781F48E8D8A
:1015E0009F8D8217930720F490934F0D80934E0D9B
:1015F00080914E0D90914F0D9D8F8C8F04C09093D4
:101600004F0D80934E0D1FA28091E70B9091E80B38
:101610009093EB0C8093EA0C80914E0D90914F0DBE
:10162000009759F08C8D9D8D009739F0CC96909352
:10163000E60B8093E50B88E10BC08091E50C81FF00
:10164000C8C08CE390E09093E60B8093E50B80E1BB
:1016500080932A0C5CC08091E50C80FFBAC01DA26B
:1016600080E18093E50C0E945D0FB3C08091E50B93
:101670009091E60B009711F00E94A50290912A0C20
:101680008091E50C90FF0BC080FF06C087E08DA322
:101690001EA21D8E1C8E19C086E08DA316C080FF71
:1016A0001EC085E08DA31D8E1C8E93C08091E50B1E
:1016B0009091E60B009711F00E94A50280912A0CF0
:1016C00080FF0DC087E08DA31EA281E090E00E9404
:1016D000A50280E18093E50C0E945D0F0FC0809110
:1016E000E50B9091E60B009749F473C08091E50CEF
:1016F00080FF6FC087E08DA31EA26BC080E1F80160
:1017000085878CE390E09093E60B8093E50B80E572
:101710008093290C0DE11CE08C89F80180878D896C
:1017200081878E8982878F898387888D8483898D3D
:1017300085838A8D86838B8D878386E08093FB0BE0
:101740008889998990931E0C80931D0C8A899B89A6
:1017500093838283D8015097FE0180E101900D921E
:101760008150E1F78DEF9BE06DE07CE00E94E2218B
:101770008DA184FF04C0F8011786168604C0F80105
:10178000168684EB87878091880D8093FC0B80916F
:10179000E50B9091E60B9C01285230403093F90BF9
:1017A00088528093FA0BCDE1DCE01B8A1A8A198AF1
:1017B000188A0E94DE0280959095998B888B80E62E
:1017C0008093F50B1092F60B1092F80B1092F70B1A
:1017D00008C01092E60B1092E50B109222041092B2
:1017E00021041092E50CDF91CF911F910F91FF9092
:1017F000EF90DF90CF90BF900895382F292FC90127
:101800000895382F292F40E050E076276727762764
:1018100080E090E0CB0177276627262B372B482BDB
:10182000592BB901CA010895AC01E091E70BF09181
:10183000E80B222733272E1B3F0B2B51334F621708
:1018400073070CF49B011216130664F420934E0DDB
:1018500030934F0D4E175F0729F0CF01BA01A90150
:101860000E940C5E089588E394E00E94CB470097A5
:1018700021F088E394E00E94B6470895E091450482
:10188000F0914604309711F00995089580E008958D
:101890009093460480934504089520914307309126
:1018A000440760E0EEE2F4E013C040815181481744
:1018B000590761F4428153814217530739F4609309
:1018C0004404118210820E945C04089534966F5F74
:1018D000623058F360934404089540E0EEE2F4E08F
:1018E00016C0542F5F5F208131812115310569F4C5
:1018F00040934304918380832091430730914407B0
:10190000338322830E94760408953496452F423013
:1019100040F3409343040895FC0180914307909164
:10192000440791A780A773A762A70895FC0180913F
:10193000430790914407968B858B708F678B089532
:10194000CF93DF93EA010E94E303FC01009741F08B
:101950008091430790914407968B858BD08FC78BDE
:10196000CF01DF91CF9108950F931F93DF93CF9312
:10197000CDB7DEB760970FB6F894DEBF0FBECDBF10
:101980008C01AB018FEF92E09A8389831C821B82CA
:101990001E821D8218861F821A8619861C861B8647
:1019A0001E861D8680E091E0988B8F87CE01019680
:1019B000B8010E94A00CFC01009711F0118B008B64
:1019C000CF0160960FB6F894DEBF0FBECDBFCF91AA
:1019D000DF911F910F9108952091460D3091470D91
:1019E0002115310571F4209143073091440730935C
:1019F000470D2093460D9093490D8093480D80E04C
:101A0000089581E00895DF93CF930F92CDB7DEB7AD
:101A100089838091460D9091470D009739F0609130
:101A2000830DAE014F5F5F4F0E94E1440F90CF9155
:101A3000DF91089585ED92E062E040E050E00E9481
:101A4000E1441092E60B1092E50B109222040895E7
:101A50000F931F93CF93DF938091E50B9091E60B4B
:101A6000009709F4B4C025E08130920708F0A0C0C7
:101A70000DE01CE080910D0C90910E0C009759F533
:101A800080910F0C9091100C009729F58091110C0A
:101A90009091120C0097F9F48091130C9091140C12
:101AA0000097C9F48091150C9091160C009799F449
:101AB0008091170C9091180C009769F48091190C83
:101AC00090911A0C009739F480911B0C90911C0C8A
:101AD000009709F46DC080910D0C8F3F09F46DC023
:101AE0008DE09CE00E94901D882379F48DE09CE0BD
:101AF0000E94ED20009731F40E94DB1C8C010097BE
:101B000021F456C08C010D5E1F4FC8010E94B142E6
:101B1000009709F04DC0C8010E94041CEC01009719
:101B200099F5C80160E070E040E020E00E94641B8D
:101B3000EC010097E9F18DEF9BE00E94C01DAE0122
:101B40004F5F5F4F009719F08DEF9BE002C080E080
:101B500090E060E070E00E940E166091910D70912F
:101B6000920D8091930D9091940D28EE33E040E01A
:101B700050E00E947F5DCE018196BA01A9010E94CA
:101B8000A84981E08BA719C08DA5882389F08230F0
:101B900059F483E08DA7CE01499645E050E060E01E
:101BA00070E00E94A8491BA6CE0141960E943E0CFF
:101BB0001092E60B1092E50B0AC080E090E00E94C4
:101BC0003E0C1092E60B1092E50B10922204DF916E
:101BD000CF911F910F910895EF92FF920F931F9352
:101BE000CF93DF93EC018A0188819981009731F0CE
:101BF00023E08030920709F02CC131C080E00BC097
:101C0000E82FF0E0EE0FFF1FEE0FFF1FE25DFB4F2E
:101C1000118210828F5F823098F38093400480910C
:101C200043079091440790933704809336040E94B1
:101C30002E448093820D0E942E448093830D88E36E
:101C400094E06EE370E00E94A0470E94E6020E94CA
:101C50009A2E80E093E09983888381E0FDC0623012
:101C600009F4D9C0633030F4662309F4B6C061309A
:101C700081F7C3C0673819F0683859F755C010921A
:101C800041049EE2E92E94E0F92E18C0F70182810A
:101C900093818017910749F4808191810E945C04AF
:101CA000F701118210821382128284E090E0E80E24
:101CB000F91E809141048F5F80934104809141041B
:101CC000823020F38091160D9091170D80179107A7
:101CD00031F41092170D1092160D1092130D809181
:101CE000420D9091430D8017910731F41092430DEE
:101CF0001092420D10923F0D8091650D9091660DEE
:101D00008017910721F41092610D1092600D80915F
:101D10007E0D90917F0D8017910709F09ACF109258
:101D20007A0D1092790D95CF94E048335907D1F58B
:101D3000CA010E94CB470097A9F1109241048CE29E
:101D4000E82EF12C2BC090E08E9DF0018F9DF00DC0
:101D50009E9DF00D1124E251F34F85A18823C9F017
:101D600088E394E00E94B6472091410430E02E9D24
:101D7000C0012F9D900D3E9D900D11248251934FD7
:101D80009093ED0C8093EC0C82E00E9490040E94F2
:101D9000280D809141048F5F80934104809141041C
:101DA000823088F2EFE005371E0749F4C8010E942F
:101DB000CB47009721F00E9450220E94280DFEE0A0
:101DC00001381F0709F045CFC8010E94CB47009793
:101DD00009F43FCF0E944F1F1BC04115510509F464
:101DE00038CF5093ED0C4093EC0C83E00E949004AC
:101DF0000E94280D0E94330C2CCF4115510509F487
:101E000028CF5093E90C4093E80C85E00E949004A1
:101E10000E94280D1ECF8091E50B9091E60B009754
:101E200009F417CF8091FB0B863031F480912A0C96
:101E300081FF02C00E94330C81E00E9490048091D7
:101E4000E50B9091E60B009709F403CF0E94E9118E
:101E500000CF1982188283E0DF91CF911F910F91FB
:101E6000FF90EF900895AC0185ED92E061E00E9453
:101E7000BE440895AC0185ED92E060E00E94BE444E
:101E800008950F931F93CF93DF93EA010E942503D8
:101E90008C01009761F08091430790914407F8010D
:101EA00091A780A7D3A7C2A7C8010E943A0FC80173
:101EB000DF91CF911F910F910895CF93DF93A09160
:101EC000EC0CB091ED0C109719F0ED01A89605C03F
:101ED000C091E80CD091E90C65968091E50C86FFE5
:101EE00022C01092420440E0EEE2F4E016C02081ED
:101EF000318150968D919C9151972817390759F44B
:101F000082819381009739F04093420499838883BA
:101F10001B821A8206C034964F5F423040F34093D2
:101F200042040E94330C88819981009731F04A81E4
:101F30005B816091820D0E94E144DF91CF91089511
:101F4000CF93DF93EC018A819B81009729F0823C3B
:101F5000910509F054C011C04115510521F41B82AF
:101F60001A8282E051C07D836C835B874A871C8A1A
:101F700040C082EC90E09B838A838C89863021F478
:101F80008091E50C82FF13C02A853B85E091EC0C23
:101F9000F091ED0C668D778D8C819D8162177307B2
:101FA00008F0B9010E94140C86E08C8B2CC080FFD5
:101FB0002AC02A853B85E091EC0CF091ED0C468D12
:101FC000578D8C819D814217530758F4241B350B84
:101FD0003B872A87268D378D280F391F3D832C8319
:101FE00006C0820F931F9D838C831B861A8681E017
:101FF0008C8B8A859B85009709F0BBCF1C8A1B823E
:102000001A8283E001C080E0DF91CF910895CF93E1
:10201000DF93EC01CA012A813B812115310521F0B2
:10202000243E310579F526C06115710521F41B8226
:102030001A8282E02CC01C8AFB0109959C019B87B7
:102040008A878091EA0C9091EB0C9D838C83E091C0
:10205000EC0CF091ED0C668D778D6217730708F02C
:10206000B9010E94140C86E08C8B84EE90E09B8377
:102070008A830CC02091E50C20FD03C022FDDCCF3B
:1020800005C01C8A1B821A8283E001C081E0DF91B7
:10209000CF910895FC012289338980899189281B79
:1020A000390BC9010895FC0184859585009769F471
:1020B0008489823019F483E0848B05C09091E50C0B
:1020C00081E091FD03C080E0089581E008950F93C1
:1020D0001F93DF93CF930F92CDB7DEB78C01DC0156
:1020E00012968D919C911397009731F0B1E0813158
:1020F0009B0709F0A5C017C0F80182899389208544
:10210000318537872687918B808BD8011C968D91DE
:102110009C911D97009709F04FC081E191E01396C3
:102120009C938E931297C80169830E945310698112
:10213000882309F48AC082E0F801848B8091EA0C3C
:102140009091EB0C978386838091E50B9091E60B41
:102150009587848731C0D8011696ED91FC91179729
:1021600020811E96ED91FC911F97208316968D91EC
:102170009C911797019617969C938E9316971E968F
:102180008D919C911F9701961F969C938E931E97FD
:102190001C968D919C911D9701971D969C938E93F3
:1021A0001C9750968D919C915197019751969C93B5
:1021B0008E935097261749F1F801808991890097ED
:1021C00021F084859585009731F6D8011C968D9174
:1021D0009C911D970097D9F011C0D8011696ED91EA
:1021E000FC911797219101971D969C938E931C97B4
:1021F0001796FC93EE931697261759F0F8018485ED
:102200009585009751F781E005C082E003C080E02A
:1022100001C083E081FF79CFD80152962D913C9186
:10222000539750968D919C9151972817390741F4F7
:1022300054961C92549713961C921E92129705C0A6
:10224000F8011382128283E001C080E00F90CF91E9
:10225000DF911F910F9108950F931F93CF93DF93F9
:10226000EC018B018A819B81009731F021E08D3256
:10227000920709F093C010C08A899B892885398507
:102280003F872E87998B888B8C859D850097C1F41D
:102290008DE291E09B838A83CE010E9453108823B4
:1022A00009F480C082E08C8B8091EA0C9091EB0C59
:1022B0009F838E838091E50B9091E60B9D878C87A1
:1022C0002C853D85E889F9892E173F0730F56E8109
:1022D0007F818E859F85A9010E940C5E4C855D855E
:1022E0008E859F85840F951F9F878E878889998902
:1022F000841B950B998B888B2E813F81240F351F72
:102300003F832E831D861C862A893B89281B390B17
:102310002017310708F4B8CF36C08E859F856E81AF
:102320007F812E173F07B1F4A9010E940C5E2C8516
:102330003D858E859F85820F931F9F878E87198A83
:10234000188A8E819F81820F931F9F838E831D86A3
:102350001C8619C0AF010E940C5E288939898E85C0
:102360009F85820F931F9F878E878C859D85821BFB
:10237000930B9D878C878E819F81820F931F9F83F4
:102380008E83198A188A2A893B898889998928170E
:10239000390721F41C8A1B821A8204C01B821A820C
:1023A00083E001C080E0DF91CF911F910F910895EC
:1023B000FC01148A1586148671876087538B428BC3
:1023C00077876687518B408B11821082138212822D
:1023D00008951F93CF93DF938091FB0B863009F014
:1023E00059C08091E50B9091E60B803F910509F073
:1023F00051C0C6E9D0E0D093E60BC093E50B109234
:10240000F90B1EE61093FA0B10922E0C10922D0C65
:102410000E94DE028095909590932E0C80932D0C57
:102420000E94280DD093E60BC093E50B1092F90B98
:102430001093FA0B9091EA0C8091EB0CE92FF82F96
:10244000DF01A65ABF4F8AE50D9001928150E1F756
:1024500081E29CE06AE570E00E946D028091E90BE8
:102460008093210C8091EA0B8093220C8091EB0BDE
:102470008093230C8091EC0B8093240C10922E0CF3
:1024800010922D0C0E94DE028095909590932E0C58
:1024900080932D0C0E94280DDF91CF911F910895FC
:1024A0001F93CF93DF938091880D8093FC0B8091D5
:1024B0000D0C8F3F81F4EDE0FCE0DF01509780E1EF
:1024C0000D9001928150E1F78DEF9BE06DE07CE093
:1024D0000E94E2211BC0A7E4B4E0EDEFFBE080E145
:1024E00001900D928150E1F7EDEFFBE0DF01509696
:1024F00080E10D9001928150E1F7ADE0BCE0E7E4AE
:10250000F4E080E101900D928150E1F78091220486
:10251000882309F455C00E944C43182F609122046F
:10252000882371F18AE380931D0C611731F1212F0B
:1025300030E070E0C901861B970B4091E50B50918C
:10254000E60B480F591F5093E60B4093E50BFA0139
:10255000B897F093F90BE42FE852E093FA0B645D1F
:102560007F4F860F971F6B50744F421B530B4C527B
:1025700050408B50944F0E94155E1093220420C04F
:102580008AE38093FB0B70E04091E50B5091E60BE2
:10259000461B570B5093E60B4093E50BCA018897F7
:1025A0009093F90B842F88528093FA0B6F5D734FD1
:1025B0004C52504081E29CE00E94155E1092220431
:1025C00080912204C82FD0E0C35ED34F81E8888376
:1025D00019821B821A820E94DA02809590959B8351
:1025E0008A83DF91CF911F910895BF92CF92DF929E
:1025F000EF92FF920F931F93CF93DF93082F162F25
:1026000069017A01E0912204EE2339F0F0E0E35E03
:10261000F34F80818A3349F49AC08091FB0B8A334F
:1026200021F480911D0C87FF92C00E944C43B82E6C
:1026300080932204A7E4B4E0EDE0FCE080E10190A7
:102640000D928150E1F78091E50B9091E60BC096D9
:102650009093E60B8093E50B25E08130920730F0F4
:1026600080E095E09093E60B8093E50B2B2D30E016
:10267000C901880F991F4091E50B5091E60B40531B
:102680005040421B530B8B5D934F65EF7BE00E94E4
:10269000155E80E68093F50B1092F60B1092F80B06
:1026A0001092F70BBB2021F08AE380931D0C03C02E
:1026B0008AE38093FB0B8091880D8093FC0B8091C3
:1026C000FD0B9091FE0B009751F58091FF0B9091BF
:1026D000000C009721F58091010C9091020C00975D
:1026E000F1F48091030C9091040C0097C1F4809157
:1026F000050C9091060C009791F48091070C909135
:10270000080C009761F48091090C90910A0C0097D5
:1027100031F480910B0C90910C0C0097C1F0EDE01E
:10272000FCE0DF01509780E10D9001928150E1F7CC
:10273000809147048F3F81F4043049F4123039F41A
:102740008DEF9BE067E474E00E94E2210EC01092DE
:10275000E60B1092E50B36C0ADEFBBE0E7E4F4E02A
:1027600080E101900D928150E1F780912204C82F01
:10277000D0E0FE01E35EF34F00831183C701B60191
:102780000E94010CCF5DD34F688379838A839B833A
:102790008091E50B9091E60B9C01285230403093DC
:1027A000F90B88528093FA0B80912204C82FD0E055
:1027B000C35ED34F1B821A820E94DA0280959095E5
:1027C0009B838A83DF91CF911F910F91FF90EF90B0
:1027D000DF90CF90BF900895CF92DF92FF920F933A
:1027E0001F93DF93CF930F92CDB7DEB7F62E69011B
:1027F00020E62093F50B1092F60B1092F80B109236
:10280000F70B2AE32093FB0B2091880D2093FC0B00
:1028100096012C5F3F4F3093F90B2C2D2C5F2093AA
:10282000FA0BEDE0FCE0282F392FD90180E10D9063
:1028300001928150E1F78DEF9BE06DE07CE04983F0
:102840000E94E2210091220410E0035E134FF80180
:10285000F08249814183138212820E94DA028095BC
:102860009095F80193838283C6018C969093E60B32
:102870008093E50B0E94280D0F90CF91DF911F915F
:102880000F91FF90DF90CF900895CF93DF93FC01DD
:10289000608382E08183EF012296ADEEBBE088E0A9
:1028A0000D9009928150E1F73A9686E011928A954F
:1028B000E9F7DF91CF910895DF92EF92FF920F93A6
:1028C0001F93CF93DF938091FC0B8F3F09F09AC148
:1028D000E0912204F0E0EB50F44F80A98F3F09F41F
:1028E00091C181A5882309F08DC1109259041092DD
:1028F000580484E18093570492E0D92E84C0F901F2
:10290000EB50F44F8181882309F47CC180818130B0
:1029100009F069C0F0935904E09358048091FD0BCD
:102920009091FE0B009759F58091FF0B9091000C50
:10293000009729F58091010C9091020C0097F9F411
:102940008091030C9091040C0097C9F48091050CC0
:102950009091060C009799F48091070C9091080CC7
:10296000009769F48091090C90910A0C009739F452
:1029700080910B0C90910C0C009709F443C18DEFE2
:102980009BE00E94041CEC0190935B0480935A042A
:102990006091580470915904009749F46E5F7F4F1D
:1029A0008DEF9BE040E022E00E94641B1CC082E0AF
:1029B000E82EF12CE60EF71E8E010F5E1F4FC701A9
:1029C000B80148E050E00E94FF5D009741F0D80157
:1029D000F70188E001900D928150E1F703C08DA5C9
:1029E000882309F4DDA690915704E0912204F0E0D9
:1029F000EB50F44FE90FF11D85A5880F880F880F64
:102A0000890F809357048091220490E0209157040D
:102A1000AC01420F511D9A01245D3F4F4091E50BDF
:102A20005091E60B2417350708F469CF8B5D934F5F
:102A30000E94C01D9093710480937004009709F464
:102A4000E1C08091FD0B9091FE0B009759F58091AC
:102A5000FF0B9091000C009729F58091010C90914B
:102A6000020C0097F9F48091030C9091040C0097EC
:102A7000C9F48091050C9091060C009799F480910F
:102A8000070C9091080C009769F48091090C9091C3
:102A90000A0C009739F480910B0C90910C0C009764
:102AA00009F4B0C08DEF9BE00E94C01D009709F0B3
:102AB000A9C080910D0C8F3F09F03EC080910E0C93
:102AC0008230D1F580910F0C9091100C0097A1F5F8
:102AD0008091110C9091120C009771F58091130C5C
:102AE0009091140C009741F58091150C9091160C63
:102AF000009711F58091170C8823F1F48091180C40
:102B00008130D1F48091190C8F3FB1F4EDE0FCE0FD
:102B1000DF01509780E10D9001928150E1F7E09143
:102B20002204F0E0ADEFBBE0EB5DF34F80E10190FC
:102B30000D928150E1F721C08DE09CE00E94C01D04
:102B400020917004309171042817390709F05AC098
:102B5000EDE0FCE0DF01509780E10D9001928150A3
:102B6000E1F7E0912204F0E0ADEFBBE0EB5DF34F65
:102B700080E101900D928150E1F71092220480E6ED
:102B80008093F50B1092F60B1092F80B1092F70B46
:102B90001092F90B98E29093FA0B9AE39093FB0B47
:102BA0009FEF9093FC0BADE1BCE098E890931D0C77
:102BB00011961C9211978093210CE0917004F09172
:102BC00071041896319680E101900D928150E1F7E1
:102BD00085E39CE062E00E94451480912204C82FA6
:102BE000D0E0C35ED34F1B821A820E94DA02809526
:102BF00090959B838A8380E590E09093E60B809389
:102C0000E50B04C01092E60B1092E50BDF91CF911B
:102C10001F910F91FF90EF90DF900895CF93DF9376
:102C2000EC01CA011092220420E62093F50B1092C9
:102C3000F60B1092F80B1092F70B2AE32093FB0B84
:102C40002FEF2093FC0BEDE0FCE061157105E1F442
:102C500020930D0C32E0318313821282158214828C
:102C60001782168211861086128631E033872487F8
:102C7000DA011D962C911D9725871E962D913C916A
:102C80001F973787268706C0DB0120E10D90019250
:102C90002150E1F7E0912204F0E0EB50F44F27E8F7
:102CA00020A711A614A615A616A617A6F096DC0155
:102CB00020E10D9001922150E1F71092F90B0E9452
:102CC000C01D009709F053C0209741F0EDEFFBE0E5
:102CD00080E1099001928150E1F706C08DEF9BE001
:102CE0006DE07CE00E94E2218091FD0B9091FE0B53
:102CF000009779F58091FF0B9091000C009749F5B2
:102D00008091010C9091020C009719F58091030CB1
:102D10009091040C0097E9F48091050C9091060CB9
:102D20000097B9F48091070C9091080C009789F4F2
:102D30008091090C90910A0C009759F480910B0C2A
:102D400090910C0C009729F41092E60B1092E50B71
:102D500039C088E28093FA0B8091220490E08B5C6A
:102D6000934F61E00E94451480E590E019C0EDEFBB
:102D7000FBE01092FE0B1092FD0B13821282158263
:102D80001482178216821186108613861286158683
:102D900014861786168688E18093FA0B80E490E00B
:102DA0009093E60B8093E50B80912204C82FD0E02E
:102DB000C35ED34F1B821A820E94DA0280959095DF
:102DC0009B838A83DF91CF910895DF92EF92FF92E8
:102DD0000F931F93CF93DF932091220430E0F901EA
:102DE000EF5DF34FE0808091FC0B8F3F09F0EFC067
:102DF000D901A35EB34F11968C911197882309F0E6
:102E0000E6C084818F3F09F4E2C040E4D42EDE2086
:102E1000E6FE05C080910D0C8F3F09F4D8C04091AB
:102E2000E50B5091E60B64E180E090E0245D3F4FBC
:102E300016C0AB50B44F11967C911197772339F49B
:102E4000909359048093580460935704C0C00C9128
:102E5000023009F4CD01770F770F770F670FD90193
:102E6000A60FB11DA417B50720F3909359048093C2
:102E7000580460935704CF0104960E94C01D90939C
:102E8000710480937004009709F0A1C0809122041E
:102E900090E08B5D934F0E94041CEC0190935B04C7
:102EA00080935A04009709F492C00091580410913D
:102EB00059040115110551F0BC016F5E7F4FC80127
:102EC000029648E050E00E94FF5D01C080E020E8EB
:102ED000F22EFE209DA5992351F50115110509F447
:102EE00076C0DE015196F801329688E001900D928D
:102EF0008150E1F7DD20C1F081E08DA71BA6609134
:102F00008D0D70918E0D80918F0D9091900D28EE0A
:102F100033E040E050E00E947F5DCE014996BA0167
:102F2000A9010E94A8494EC082E08DA74BC0E5FCD4
:102F300008C0882331F0913009F049C082E08DA7A4
:102F400046C00115110549F0DE015196F80132968F
:102F500098E001900D929150E1F7DD20B9F081E009
:102F60008DA760918D0D70918E0D80918F0D909138
:102F7000900D28EE33E040E050E00E947F5DCE01EE
:102F80004996BA01A9010E94A84907C00115110577
:102F900021F0882311F082E08DA7E0915A04F0918E
:102FA0005B0484A5882371F0FF2061F48DEF9BE022
:102FB0000E94BD1C9093730480937204009711F0DB
:102FC0000E94B81CE0915A04F0915B04F4A61092A0
:102FD000E60B1092E50BDF91CF911F910F91FF90BF
:102FE000EF90DF900895CF93DF9380E68093F50B09
:102FF0001092F60B1092F80B1092F70B8AE3809365
:10300000FB0B8FEF8093FC0BEDE0FCE08FEF92E089
:1030100090930E0C80930D0C1382128215821482F1
:1030200017821682118610861386128615861486DC
:1030300080E092E097878687CF014097BF010E948A
:10304000E22180912204282F30E0F901E35EF34F62
:1030500095E8908311821092F90B4091FD0B5091ED
:10306000FE0B41155105D9F54091FF0B5091000C15
:1030700041155105A1F54091010C5091020C4115EB
:10308000510569F54091030C5091040C411551050F
:1030900031F54091050C5091060C41155105F9F49C
:1030A0004091070C5091080C41155105C1F4409115
:1030B000090C50910A0C4115510589F440910B0CF3
:1030C00050910C0C4115510551F488E08093FA0B96
:1030D000205D3F4F3093E60B2093E50B0FC0205C43
:1030E0003F4F3093E60B2093E50B98E19093FA0B5A
:1030F00090E08B5D934F61E00E9445148091220423
:10310000C82FD0E0C35ED34F1B821A820E94DA021E
:10311000809590959B838A83DF91CF910895DF926C
:10312000EF92FF920F931F93CF93DF938091FC0B4D
:103130008F3F09F06AC28091FD0B8E3F09F065C296
:103140008091FE0B803809F060C2E0912204F0E02B
:10315000DF01A35EB34F11968C911197882309F07C
:1031600054C2EF5DF34F8081882311F08093880D66
:10317000648175818681978161157105810591054D
:1031800061F1E090890DF0908A0D00918B0D109106
:103190008C0D0E94010CE616F70608071907E9F0E6
:1031A000E0912204F0E0EF5DF34F64817581868148
:1031B00097810E94010C6093890D70938A0D809312
:1031C0008B0D90938C0D0E946B2260938D0D7093EC
:1031D0008E0D80938F0D9093900DE0912204F0E07E
:1031E000EF5DF34F6085718582859385611571056B
:1031F0008105910551F00E94010C6093910D70932F
:10320000920D8093930D9093940D8CE080935704CE
:1032100062E0D62EB1C1FC01EB50F44F81818823CE
:1032200009F4F3C18081833009F457C0853009F473
:1032300045C0813009F090C1F0935904E0935804DF
:103240008DEF9BE00E94041CEC0190935B04809343
:103250005A04009789F460915804709159046E5F84
:103260007F4F8DEF9BE041E022E00E94641B909332
:103270005B0480935A0470C18DA5882309F4DDA6F0
:1032800000915804109159040E5F1F4F51E1E52E33
:10329000F12CEC0EFD1EC801B70148E050E00E9481
:1032A000FF5D009741F0D701F80188E001900D9291
:1032B0008150E1F7DDA681E08CA74EC16481758164
:1032C000868197810E94010C6093840D7093850D17
:1032D0008093860D9093870D3FC1F0935D04E0933A
:1032E0005C0464817581868197810E94010C7B0159
:1032F0008C01E0915C04F0915D04608571858285AC
:1033000093850E94010CE616F7060807190708F4D2
:1033100023C1E0915C04F0915D0480898E3F21F42B
:103320008189803809F418C1838187FF5FC0CF018C
:10333000409662810E94721DEC0190935F0480931D
:103340005E04E0915C04F0915D04009749F584818E
:103350009581A681B7810097A105B10509F446C002
:10336000EF0160968F3F2FEF92072FEFA2072FEF0D
:10337000B20751F00281BC01CD010E94010C9B01FA
:10338000AC01CE01602F05C0CE01628120E030E0AB
:10339000A9010E94161D90935F0480935E0426C0CD
:1033A000648175818681978161157105810591051B
:1033B00049F06F3F3FEF73073FEF83073FEF9307FE
:1033C00041F404C0CE010E946D1D10C081E08A8FBF
:1033D0000DC00E94010CAB01BC01CE0142960E94BF
:1033E000A849E0915E04F0915F04128EE0915C04C4
:1033F000F0915D04838186FFAFC084819581A681B1
:10340000B7810097A105B10509F4A6C08281803477
:1034100009F0A2C0A0E6B4E0709680E101900D92A0
:103420008150E1F780E694E06DEE7BE00E94B421EC
:1034300080E694E00E94C01DFC019093710480938B
:103440007004009709F45FC02289213009F05BC045
:10345000A0915C04B0915D0414966D917D918D9165
:103460009C9117976F3F3FEF73073FEF83073FEF45
:10347000930709F446C00E94010C61322CE17207E7
:1034800020E0820720E09207C0F4E0915C04F09114
:103490005D0464817581868197810E94010C7B01A6
:1034A0008C01809170049091710444960E94034AAB
:1034B0006E157F058007910798F4C0917004D09134
:1034C00071046496E0915C04F0915D0464817581FF
:1034D000868197810E94010CAB01BC01CE0109C01D
:1034E0008091700490917104449640E25CE160E048
:1034F00070E00E94A849E0917004F0917104138A71
:103500002BC0238B29C0E0915C04F0915D046481A1
:103510007581868197810E94010C6F3F3FEF730791
:103520003FEF83073FEF930731F480E694E040E0FC
:1035300050E0BA010EC0E0915C04F0915D0464813A
:103540007581868197810E94010CAB01BC0180E6E8
:1035500094E021E00E946D1E90915704E0912204B6
:10356000F0E0EB50F44FE90FF11D85A5880F880FAF
:10357000880F890F8093570420912204809157046B
:1035800090E0820F911D8C962091E50B3091E60B17
:103590008217930708F43FCE8DEF9BE00E94BD1C7D
:1035A000EC019093730480937204E0912204F0E0A4
:1035B000EF5DF34F82819381009711F1A0915A043E
:1035C000B0915B04109721F081E09C968C939C97BE
:1035D00082819381209751F40E94FD0BAC0160E041
:1035E00070E08DEF9BE00E94601C0FC00E94FD0BFD
:1035F000AC0160E070E0CE0141960E94A84905C090
:10360000209719F0CE010E94B81C1092E60B109280
:10361000E50BDF91CF911F910F91FF90EF90DF901D
:1036200008958F929F92AF92BF92CF92DF92EF92C6
:10363000FF920F93CF93DF935A014901F701118253
:10364000108270E0469F6001479FD00C569FD00CBF
:103650001124C80ED91E069506950695EC0116C0D4
:103660008881882371F0CE010196B401402F50E08B
:103670000E94FF5D009741F4F701D183C08380E091
:1036800010C0F701D183C083CA0DDB1DCC15DD0549
:1036900038F3F70180819181009711F081E001C03A
:1036A00082E0DF91CF910F91FF90EF90DF90CF906C
:1036B000BF90AF909F908F900895009721F0FC01EC
:1036C00010820E94802E0895BF92CF92DF92EF92D7
:1036D000FF920F931F93CF93DF93182FD92EEB01F7
:1036E000C42EB22E8DEB9EE064E04EE250E0212F1E
:1036F0003D2D00E873E9E72E74E0F72E0E94111BC0
:1037000090E08130910509F054C0E0919304F0916C
:10371000940481E08083E0919304F09194043196C5
:10372000812F9D2DDC0180E10D9001928150E1F708
:103730008091930490919404209741F0FC0171963C
:1037400088E0099001928150E1F707C04196FC01A1
:1037500088E0DF011D928A95E9F7E0919304F091EA
:103760009404C4A6B5A6CF01499640E050E0BA0142
:103770000E94A8498091930490919404819640E01E
:1037800050E0BA010E94A84980919304909194045A
:10379000FC0113A60E94802EC0919304D091940442
:1037A0000E9488249AA789A72091930430919404B9
:1037B00020C082309105D9F40E9488249C0180E0C9
:1037C00090E0EDEBFEE04081442339F041A552A5A5
:1037D0004217530710F49A01CF01BE964FE0E53728
:1037E000F40789F7009719F00E945D1B7BCF20E05A
:1037F00030E0C901DF91CF911F910F91FF90EF90C1
:10380000DF90CF90BF900895EF92FF920F93CF93E8
:10381000DF939C018DEB9EE064E04EE250E000E817
:10382000E3E9EE2EE4E0FE2E0E94111B882369F4EA
:10383000C0919304D09194040E9488249AA789A7E8
:10384000209193043091940402C020E030E0C9013B
:10385000DF91CF910F91FF90EF900895EF92FF923B
:103860000F931F93CF93DF938C018DEB9EE090938A
:1038700094048093930412C08881882351F0BE0180
:103880006F5E7F4FC80148E050E00E94FF5D0097E7
:1038900079F0AE96D0939404C0939304C0919304AE
:1038A000D09194042FE0C537D20730F3C0E0D0E0C8
:1038B000CE01DF91CF911F910F91FF90EF9008956E
:1038C0009F92AF92BF92CF92DF92EF92FF920F93AF
:1038D0001F93182F992E5A016B0189E89EE062E030
:1038E0004AE150E0212F392D00E8F1E9EF2EF4E014
:1038F000FF2E0E94111B813071F5E0919104F0912F
:1039000092048083E0919104F09192043196812F8A
:10391000992DDC0180E10D9001928150E1F78091B9
:10392000910490919204A114B104C104D10459F0FE
:103930004196B601A5010E94A849E0919104F09139
:103940009204118E03C021E0FC01218F209191048B
:103950003091920402C020E030E0C9011F910F9124
:10396000FF90EF90DF90CF90BF90AF909F90089521
:10397000009711F0FC0110820895EF92FF920F93CF
:103980009C0189E89EE062E04AE150E000E8A1E99C
:10399000EA2EA4E0FA2E0E94111B882329F420911C
:1039A00091043091920402C020E030E0C9010F91EF
:1039B000FF90EF9008951092900410928F0489E880
:1039C0009EE022C0FC0120812223C9F001960E94C2
:1039D000041C009759F0FC0185A5882339F020913B
:1039E0009104309192042F5F3F4F1EC0809191044B
:1039F0009091920401969093900480938F0480910B
:103A00009104909192044A96909392048093910429
:103A10008091910490919204FEE08D3B9F0790F27B
:103A200020918F0430919004C90108958F929F9244
:103A3000AF92BF92CF92DF92EF92FF920F931F93BC
:103A4000982E892E162F59016A0180E39EE063E0CB
:103A50004BE150E0292D382D012FBDE8EB2EB4E0CD
:103A6000FB2E0E94111B813059F5E0918D04F091DD
:103A70008E048083E0918D04F0918E043196940140
:103A8000832F922FDC0180E10D9001928150E1F7AC
:103A9000E0918D04F0918E04118BA114B104C10446
:103AA000D10461F0CF014296B601A5010E94A84958
:103AB000E0918D04F0918E04128E02C081E0828F1D
:103AC00080E090E01F910F91FF90EF90DF90CF90FA
:103AD000BF90AF909F908F900895009711F0FC01D8
:103AE00010820895EF92FF920F939C01062F80E3BE
:103AF0009EE063E04BE150E07DE8E72E74E0F72EB6
:103B00000E94111B882329F420918D0430918E048A
:103B100002C020E030E0C9010F91FF90EF900895BE
:103B20000F931F93CF93DF938C0180E39EE09093DC
:103B30008E0480938D0414C08881882361F04989A4
:103B4000469546954695CE010196B80150E00E94F3
:103B5000FF5D009779F06B96D0938E04C0938D042F
:103B6000C0918D04D0918E048EE0C138D80720F327
:103B700080E001C081E0DF91CF911F910F91089506
:103B8000EF92FF920F939C0186E99DE063E04CE188
:103B900050E000E8E5E7EE2EE4E0FE2E0E94111B67
:103BA000882329F4209175043091760402C020E026
:103BB00030E0C9010F91FF90EF90089526E93DE0B4
:103BC0003093760420937504282F332727FD3095F2
:103BD00015C09081992369F08F3F29F0418950E009
:103BE0004217530731F491819E3F19F49281903826
:103BF00079F07C96F0937604E0937504E091750477
:103C0000F09176049DE0EA3EF90718F3E0E0F0E079
:103C1000CF01089526E93DE03093760420937504A2
:103C2000282F332727FD309515C09081992369F0FF
:103C30008F3F29F0418950E04217530731F49181B9
:103C40009E3F91F49281903879F47C96F0937604BB
:103C5000E0937504E0917504F09176049DE0EA3EEE
:103C6000F90718F3E0E0F0E0CF010895DF92EF925A
:103C7000FF920F931F93182FD92E8AEE9DE064E0D8
:103C800041E150E0212F3D2D00E8FBE7EF2EF4E06D
:103C9000FF2E0E94111B8130B9F4E0917B04F0915A
:103CA0007C048083E0917B04F0917C043196812F29
:103CB0009D2DDC0180E10D9001928150E1F7209172
:103CC0007B0430917C0402C020E030E0C9011F91E8
:103CD0000F91FF90EF90DF900895AF92BF92CF9237
:103CE000DF92EF92FF920F931F93CF93DF93EC013C
:103CF0005A016B01122F86E99DE063E04CE150E030
:103D00009E0100E8A5E7EA2EA4E0FA2E0E94111B0E
:103D1000813009F058C0E0917504F09176048083F9
:103D2000E0917504F09176043196DE0180E10D900A
:103D300001928150E1F7E0917504F0917604128BC5
:103D4000A114B104C104D10419F481E0838B07C02C
:103D5000138ACF014496B601A5010E94A849E091BB
:103D60007504F091760491E0918B8FEF80937D0440
:103D700022E020937E041092800410927F0410921F
:103D80008204109281041092840410928304109291
:103D9000860410928504109287049093880480937F
:103DA00089048D8580938A048E859F8590938C04E9
:103DB00080938B048DE794E00E94361E2091750459
:103DC0003091760402C020E030E0C901DF91CF914C
:103DD0001F910F91FF90EF90DF90CF90BF90AF9029
:103DE0000895009711F0FC0110820895EF92FF9260
:103DF0000F939C018AEE9DE064E041E150E000E811
:103E0000BBE7EB2EB4E0FB2E0E94111B882329F4A4
:103E100020917B0430917C0402C020E030E0C90195
:103E20000F91FF90EF900895CF93DF93EC010097EF
:103E300099F18FEF80937D0492E090937E0410922D
:103E4000800410927F0410928204109281041092D8
:103E500084041092830410928604109285041092B8
:103E6000870491E090938804809389048E858093E1
:103E70008A048F85988990938C0480938B048DE7B6
:103E800094E00E94F61E90937C0480937B0400973C
:103E900011F0FC0110821882DF91CF910895CF922A
:103EA000DF92EF92FF920F931F93CF93DF9386E9F8
:103EB0009DE017C08081882379F08389882361F48D
:103EC000CF0144960E94D649009731F08091750445
:103ED000909176040E94141F80917504909176044D
:103EE0004C969093760480937504E0917504F0915C
:103EF00076042DE0EA3EF207E8F289E89EE018C079
:103F00008081882381F0818D882369F4CF014196D7
:103F10000E94D649009739F0E0919104F091920403
:103F2000309709F0108280919104909192044A9602
:103F30009093920480939104E0919104F091920403
:103F40008EE0ED3BF807E0F280E39EE018C0808150
:103F5000882381F0828D882369F4CF0142960E94E4
:103F6000D649009739F0E0918D04F0918E04309796
:103F700009F0108280918D0490918E044B9690935D
:103F80008E0480938D04E0918D04F0918E042EE0D8
:103F9000E138F207E0F28DEB9EE090939404809379
:103FA000930422E0D22E98EEE92E93E0F92E012D13
:103FB000112D84E0C82EA1C0FC012081222309F428
:103FC00093C025A5213049F1213030F0233089F10B
:103FD000243009F089C03FC0FC0123A5233008F03C
:103FE00050C081960E94D649009709F47DC0809107
:103FF000E50B9091E60B009709F076C0E0919304F1
:10400000F091940483A58F5F83A7AF014F5F5F4F4B
:1040100080E090E060E070E04FC049960E94D64991
:10402000009709F461C0E0919304F0919404D5A63F
:104030005BC049960E94D649009709F455C0E091AB
:104040009304F0919404C5A613A6CF01819640E095
:1040500050E0BA0147C0FC0123A52330A8F0019627
:104060000E94BD1CFC0190939204809391040097E0
:1040700021F0818D882309F410828091930490911E
:1040800094040E945D1B30C081960E94D64900971F
:1040900059F18091E50B9091E60B009729F5E0919D
:1040A0009304F091940483A58F5F83A7AF014F5FC2
:1040B0005F4F80E090E0BA010E940E16C091930419
:1040C000D09194046091910D7091920D8091930D17
:1040D0009091940DA80197010E947F5DCE01819679
:1040E000BA01A9010E94A849809193049091940477
:1040F0008E9690939404809393048091930490916E
:104100009404FFE085379F0708F456CF81E89EE0CE
:104110000E94AB47DF91CF911F910F91FF90EF90DD
:10412000DF90CF900895DF92EF92FF920F931F934D
:10413000182FD92E8AEE9DE060E041E150E0212F5A
:104140003D2D00E879E7E72E74E0F72E0E94111B61
:104150008130B9F4E0917904F0917A048083E091A0
:104160007904F0917A043196812F9D2DDC0180E154
:104170000D9001928150E1F72091790430917A04F9
:1041800002C020E030E0C9011F910F91FF90EF9035
:10419000DF900895009711F0FC0110820895EF92CE
:1041A000FF920F939C018AEE9DE060E041E150E0B8
:1041B00000E8E9E7EE2EE4E0FE2E0E94111B8823C2
:1041C00029F42091790430917A0402C020E030E093
:1041D000C9010F91FF90EF900895CF92DF92EF9277
:1041E000FF920F931F93CF93DF937C018DE79FE0A6
:1041F0009093780480937704CC2400E010E01AC0F8
:104200008881882391F0D988DC1478F0BE016F5F33
:104210007F4F4D2D469546954695C70150E00E942B
:10422000FF5D009711F4CD2C8E01AE96D0937804EB
:10423000C0937704C0917704D091780480E1C533AE
:10424000D807F0F2C801DF91CF911F910F91FF9035
:10425000EF90DF90CF9008959F92AF92BF92CF9250
:10426000DF92EF92FF920F931F93CF93DF93D82E9D
:10427000C92E162FB42EA52E922E8DE79FE064E056
:104280004EE250E02D2D3C2D012FF7E7EF2EF4E00C
:10429000FF2E0E94111B813049F5E0917704F091C7
:1042A00078048083E0917704F09178043196960148
:1042B000832F922FDC0180E10D9001928150E1F774
:1042C000E0917704F0917804118BEF0163969501EA
:1042D000832F9A2DDC0180E10D9009928150E1F746
:1042E000928AB3968BE011928A95E9F780917704D0
:1042F00090917804DF91CF911F910F91FF90EF90F3
:10430000DF90CF90BF90AF909F900895FC011082F6
:1043100008950F931F93CF93DF938C018DE79FE058
:1043200012C08881882351F0CE014396B80140E144
:1043300050E00E94FF5D009709F418828091770495
:10434000909178048E969093780480937704C0912E
:104350007704D091780480E1C533D80710F3DF915A
:10436000CF911F910F910895CF93DF93FC01EC0142
:104370002896862F972FDC0188E00D9009928150B6
:10438000E1F7808592E089278087DF91CF910895BA
:10439000282F392FD901862F972FFC0180E02D91EE
:1043A0009191382F385F291721F4832F3038B9F7CE
:1043B0000895922797FD05C08F5F831711F0990F1D
:1043C000F9CF0895BF92CF92DF92EF92FF920F93B1
:1043D0001F93CF93DF93EC016B01FB0180818E3F34
:1043E00021F48181803819F432C08F3F81F186E950
:1043F0009DE09093760480937504EE24FF24BB2403
:104400001DC0F8018081882399F08189813081F471
:1044100081818E3F19F48281803851F0B8016F5F3D
:104420007F4FC6010E94C8218B1510F07801B82E6D
:10443000045E1F4F10937604009375040091750479
:1044400010917604FDE00A3E1F07D8F204C081E017
:104450000E94DE1D7C01E114F10489F419821882A6
:104460001B821A821D821C821F821E821986188658
:104470001B861A861D861C861F861E8607C0F701AE
:10448000319680E1019009928150E1F7DF91CF915F
:104490001F910F91FF90EF90DF90CF90BF90089504
:1044A0000E94DB1C009791F480917404833070F4B7
:1044B0000E94F317809174048F5F8093740485E7E2
:1044C0009FE064EF71E00E94A047089585E79FE0B8
:1044D0000E94FE470895DF92EF92FF920F931F9381
:1044E0000E94384AD82E0E94384AE090890DF090F8
:1044F0008A0D00918B0D10918C0D7D2D60E0680F61
:10450000791F80E090E0A80197010E947F5D9B01E8
:10451000AC0116950795F794E7942E0D3F1D401FAB
:10452000511FB901CA011F910F91FF90EF90DF90C9
:104530000895CF93DF9388EBEDEBFEE0DF01982F3A
:104540001D929A95E9F794E3E9E8FEE0DF011D92F8
:104550009A95E9F791E5E0E3FEE0DF011D929A9577
:10456000E9F79AEAE4E8FDE0DF011D929A95E9F7A0
:10457000EDE7FFE0DF011D928A95E9F78CE180937A
:104580002F0E82E180932E0E80E095E0A0E0B0E057
:104590008093840D9093850DA093860DB093870D25
:1045A00080E48093880D80E395E7A0E0B0E08093FD
:1045B000890D90938A0DA0938B0DB0938C0D0E9462
:1045C0006B2260938D0D70938E0D80938F0D909361
:1045D000900D88EE93E0A0E0B0E08093910D909371
:1045E000920DA093930DB093940D1092950DCDE77D
:1045F000D4E08EEF90E890937E0480937D04109237
:10460000800410927F041092820410928104109210
:10461000840410928304CE0160E420E030E0A9011C
:104620000E94161DCE016DEE7BE00E94B421CE01EA
:1046300040E050E0BA0121E00E946D1E8FEF92E051
:1046400090937E0480937D041092800410927F04E6
:1046500010928204109281041092840410928304B8
:104660001092860410928504109288041092870498
:1046700010928A041092890480E091E090938C0457
:1046800080938B04CE010E94361E0E94384A6DE74B
:1046900070E00E946B5DBC0185E79FE00E94A0472F
:1046A00081E89EE06CE070E00E94A047DF91CF912E
:1046B0000895EF92FF920F931F93DF93CF93CDB79F
:1046C000DEB728970FB6F894DEBF0FBECDBF81E0EE
:1046D00068E046E00E94F15781E00E946C580E9419
:1046E00078240E946A490E943C4487E793E060E096
:1046F00070E00E94F0440E949948E091F602F09127
:10470000F70209958E010F5F1F4F88E0D8011D92B7
:104710008A95E9F7C80160E070E048E050E00E9447
:104720009560ADEEBBE0F80188E001900D928150FC
:10473000E1F78DEC9BEA60E070E08E010F5F1F4FA8
:10474000A8010E9465278AE10E944B27C8010E94A8
:10475000C52BEDB7FEB772970FB6F894FEBF0FBE2C
:10476000EDBF319686E291E0ADB7BEB712969C934D
:104770008E9311978981828313828A818483158223
:104780008B81868317828C81808711868D818287B9
:1047900013868E81848715868F8186871786888504
:1047A000808B118A0E942E5EEDB7FEB772960FB60F
:1047B000F894FEBF0FBEEDBF0E941C4CE091460373
:1047C000F09147030995E0912D03F0912E0309958F
:1047D000E091CD03F091CE030995E0902B03F0908A
:1047E0002C0300914403109145030E9448272DB7E4
:1047F0003EB7285030400FB6F8943EBF0FBE2DBFD5
:10480000EDB7FEB7319624E131E0ADB7BEB71296F1
:104810003C932E931197F382E2821583048386835F
:1048200017820E942E5EE0915203F09153032DB740
:104830003EB7285F3F4F0FB6F8943EBF0FBE2DBF67
:104840003097D1F00995BC0100D000D081E091E013
:10485000ADB7BEB712969C938E9311978DE790E0FB
:104860000E946B5DEDB7FEB7748363830E942E5E7A
:104870000F900F900F900F9000D08FEF90E0ADB79A
:10488000BEB712969C938E9311970E942E5E0F9046
:104890000F9085ED92E060E070E00E94F044289671
:1048A0000FB6F894DEBF0FBECDBFCF91DF911F9141
:1048B0000F91FF90EF9008950E9459238CEB92E0A6
:1048C0000E94294500D08CED90E0EDB7FEB79283B1
:1048D00081830E942E5E8CEC90E0EDB7FEB7928350
:1048E00081830E942E5E0F900F900E944C44FDCF5A
:1048F000F8941092B60016BC89EF87BD82E084BDA3
:1049000094E095BD95B395BB80936E00789408951F
:10491000209195043091960480919504909196048D
:1049200028173907A9F7C901089520913910309146
:104930003A1040913B1050913C1080913910909169
:104940003A10A0913B10B0913C10281739074A0744
:104950005B0759F7B901CA01089560933910709344
:104960003A1080933B1090933C100895CF93DF93BF
:10497000EC010E948824C80FD91F0E9488248C1B38
:104980009D0B97FDFACFDF91CF910895843091056B
:1049900048F00397880F991F880F991F9695879560
:1049A0000197F1F70895CF93DF93EC0184EE93E044
:1049B00005C00E94C624219787EE93E02097C9F78F
:1049C000DF91CF910895AFB7F8942091950430917D
:1049D0009604280F391F3093960420939504209154
:1049E0009704FC01E20FF11D209135103091361033
:1049F000409137105091381016C0ED57F04060913B
:104A0000391070913A1080913B1090913C106F5F7B
:104A10007F4F8F4F9F4F6093391070933A10809360
:104A20003B1090933C10722F632F942F852F2F5F94
:104A30003F4F4F4F5F4FED37F105F8F6709335104C
:104A4000609336109093371080933810E09397045A
:104A5000AFBF08951F920F920FB60F920BB60F9231
:104A600011242F933F934F935F936F937F938F9373
:104A70009F93AF93BF93EF93FF9380919504909191
:104A800096040196909396048093950480919704E0
:104A90008F5F80939704809197048D37A8F01092D0
:104AA00097048091391090913A10A0913B10B091E9
:104AB0003C100196A11DB11D8093391090933A10BE
:104AC000A0933B10B0933C100E94E347009711F075
:104AD0000E94E346FF91EF91BF91AF919F918F911B
:104AE0007F916F915F914F913F912F910F900BBEEE
:104AF0000F900FBE0F901F9018958091481090E076
:104B0000FC01EE0FFF1F9695982F882797958795A4
:104B1000E80FF91FE75BFF4E108208958091421065
:104B200090E008951C990BC081E06FE140E00E9485
:104B3000652A813039F021E030E0813129F020E030
:104B400030E002C021E030E0C90108951C9911C095
:104B500081E06FE140E00E94652A982F8151823008
:104B600050F09F3141F0913041F081E0923031F4CA
:104B700002C081E0089580E0089580E00895CF9319
:104B8000DF93C0E1D7E20E94A625882311F4219784
:104B9000D1F7DF91CF91089583B12C988DE090E00B
:104BA0000197F1F782E06FE140E023E00E947C2A68
:104BB00083E090E00197F1F708950E94BF250E94DD
:104BC000CC252C9A1092CB1008958091CB1088237D
:104BD00021F00E94A6250E94DD2580E090E0089546
:104BE0001C9909C0282F803108F02FE085E06FE084
:104BF00040E00E947C2A0895B82FA92FF62FE72FB6
:104C00002091D4103091D5104091D6105091D710EA
:104C10002F5F3F4F4F4F5F4F2093D4103093D510ED
:104C20004093D6105093D710862F8E5F87FD0CC00F
:104C300028E934E0C9016B2F7A2F4F2F5E2F0E9495
:104C40000C5E20E030E002C02FEF3FEFC901089575
:104C500081E06FE140E00E94652A08950F931F9361
:104C6000182F883049F0863039F0893029F08631A4
:104C700019F0893109F03BC01C993CC00E94BF2546
:104C80000E942826082F1817C1F1183019F40E9425
:104C9000CC2526C0193139F4863199F482E06FE1D0
:104CA00040E029E008C0163161F4893151F482E016
:104CB0006FE140E026E00E947C2AE3E0F0E03197DB
:104CC000F1F782E06FE140E0212F0E947C2A08305A
:104CD00019F4E9E6F1E002C0E3E0F0E03197F1F722
:104CE0000E942826811749F023E430E008C022E41E
:104CF00030E005C024E430E002C020E430E0C90127
:104D00001F910F91089581E08093CB101C9B05C0EB
:104D10002C9881EC9DE00197F1F786E10E942E2608
:104D20000E94BF2508958091CB10882311F40E9422
:104D3000832681E090E008950F931F93DF93CF9334
:104D40000F92CDB7DEB78091CB10882341F01C992C
:104D50002AC00E94A625882331F110E003C00E94DA
:104D6000932611E08FB78983F8940E94BF2588E0CD
:104D700060E847E021E00E947C2A89E191E0019708
:104D8000F1F700E004C081E00E942F2A082F07FFFE
:104D9000FACF89818FBF112311F00E94E52521E010
:104DA00030E006FD02C020E030E0C9010F90CF9155
:104DB000DF911F910F91089580931A0508950E9425
:104DC00028268250813130F4E82FF0E0E65FFC4F76
:104DD0008081089581E00895282F8EE260E245E009
:104DE0000E947C2A08958EE06CE00E944A2A8CE2A0
:104DF00060EF44E022E00E947C2A8CE26EE041E019
:104E000025E00E947C2A8FE260E80E944A2A86E020
:104E10000E942F2A682F8DE20E944A2A85E060E8CE
:104E200047E021E00E947C2A0895CF93DF93CDEFE5
:104E3000D3E0CE010197F1F70E940C2A109249109D
:104E4000109248101092471017982C9881EC9DE012
:104E50000197F1F7179A82E06FE140E023E00E94AA
:104E60007C2A2197F1F78DE10E942F2A8EE10E9482
:104E70002F2A0E94F3268CEE92E060E070E00E9400
:104E8000F0440E94832681E090E0DF91CF91089565
:104E9000809119050895DF93CF930F92CDB7DEB7B8
:104EA00089830E94BF2529812093190588E06FE13D
:104EB00040E00E947C2A0F90CF91DF9108950E94DC
:104EC0004B2786E00E942E260895AF92BF92CF9284
:104ED000DF92EF92FF920F931F93DF93CF9300D057
:104EE000CDB7DEB7282F062F6A0182E2622F7A83C0
:104EF00099830E944A2A83E29981692F0E944A2A53
:104F000080E2602F0E944A2A81E27A81672F0E9404
:104F10004A2AC114D104F1F186010F5F1F4F8BE2C1
:104F2000F60160810E944A2A78010894E11CF11C74
:104F30008AE2F60161810E944A2A57010894A11C65
:104F4000B11C89E2F80161810E944A2A6501089436
:104F5000C11CD11C88E2F70161810E944A2A8601A6
:104F60000F5F1F4F87E2F50161810E944A2A780195
:104F70000894E11CF11C86E2F60161810E944A2A34
:104F800085E2F80161810E944A2A84E2F701618189
:104F90000E944A2A0F900F90CF91DF911F910F919D
:104FA000FF90EF90DF90CF90BF90AF9008958CEE80
:104FB00092E00E94134581E0809342108091181185
:104FC00090911911A0911A11B0911B110196A11D78
:104FD000B11D8093181190931911A0931A11B093D9
:104FE0001B1181E090E00895EF92FF92CF93DF9341
:104FF00050914810252F30E0F901EE0FFF1F369534
:10500000322F222737952795E20FF31FE75BFF4EDC
:105010004081442309F4C8C01C99C6C02091CB101C
:10502000222309F4C1C047FF16C00E947D2580914C
:10503000041190910511A0910611B09107110196EC
:10504000A11DB11D8093041190930511A093061129
:10505000B0930711A9C04330B0F40E947D25809120
:10506000001190910111A0910211B09103110196CC
:10507000A11DB11D8093001190930111A093021105
:10508000B093031191C0C42FD0E022976C177D0715
:10509000B0F40E947D258091FC109091FD10A091AC
:1050A000FE10B091FF100196A11DB11D8093FC1060
:1050B0009093FD10A093FE10B093FF1075C0652F64
:1050C00070E09B01220F331F7695762F6627779528
:1050D0006795260F371F265B3F4EB90150E00E94AF
:1050E0000C5E20914810822F90E0FC01EE0FFF1F14
:1050F0009695982F882797958795E80FF91FE7537E
:10510000FF4E808180933D10822F90E0FC01EE0FD6
:10511000FF1F9695982F882797958795E80FF91F79
:10512000E75BFF4E10821092481080E090E0FC0197
:10513000EE0FFF1F9695982F882797958795E80F74
:10514000F91FE75BFF4E8081882311F00E94D7276B
:1051500087E00E942F2A682F80933E108091411093
:10516000882311F0681710F46093411084E070E018
:105170000E94F04B60913D1083E070E00E94F04B84
:105180008091D8109091D910A091DA10B091DB10D5
:105190000196A11DB11D8093D8109093D910A093B2
:1051A000DA10B093DB1002C0C0E0D0E0CE01DF9196
:1051B000CF91FF90EF9008950F931F93DF93CF93BC
:1051C0000F92CDB7DEB78C01FC01808191810097F1
:1051D00029F0F5E081319F0719F506C081E195E0DE
:1051E000F8019183808321C06238F9F41092421053
:1051F0000E946A4B8FB78983F8940E94C44A60E882
:1052000070E00E94F42729812FBF1816190634F781
:105210000E94BF4AE0914C03F0914D030995DECF07
:10522000F8011182108283E001C081E00F90CF91DC
:10523000DF911F910F9108950E94F02508951C9908
:1052400006C085E06FE040E00E94652A089580E195
:1052500008951F93CF93DF93182F1C9B05C02C98A4
:10526000E1ECFDE03197F1F70E94BF2589E10E9452
:105270002E2686E00E94FB4B009751F00E941F29CA
:10528000C82F86E00E94FB4B81500E94F02502C08F
:10529000C0E0D0E02C9A2C98612F6E5F88E994E0F2
:1052A0000E94E72A0E94BF2582E060EE45E00E944E
:1052B000652A182F86E00E94FB4B009719F08C2F6F
:1052C0000E94F0258091CB10882319F00E9483263C
:1052D00002C00E94DD25113011F0112369F5809183
:1052E000141190911511A0911611B09117110196FA
:1052F000A11DB11D8093141190931511A093161147
:10530000B09317118CE00E94FB4B009709F445C045
:105310008091F0109091F110A091F210B091F310E3
:105320000196A11DB11D8093F0109093F110A093F0
:10533000F210B093F31031C01330A9F480910C1126
:1053400090910D11A0910E11B0910F110196A11D18
:10535000B11D80930C1190930D11A0930E11B09379
:105360000F1112E01DC01530A9F48091F810909132
:10537000F910A091FA10B091FB100196A11DB11D7A
:105380008093F8109093F910A093FA10B093FB104B
:1053900013E006C0173021F402C010E001C011E094
:1053A000812F90E0DF91CF911F910895CF93DF93EC
:1053B000EB010E94FC259C01009721F4CE010E9484
:1053C00029299C01C901DF91CF9108950F931F9363
:1053D0008091CB10882321F40E94932611E001C014
:1053E00010E00E942826863111F0813129F487E0EF
:1053F0000E942F2A082F08C086E06FE140E00E943B
:10540000652A082F000F080F112311F00E94E525CF
:10541000802F1F910F91089510921C0510921B056B
:10542000249A0F9A85B1836085B984B1876084B965
:10543000239880E58CBD81E08DBD83E4809381005D
:10544000B59AEFE6F0E0808181608083ED9AEAE62C
:10545000F0E080818C60808375986D980895DF936B
:10546000CF930F92CDB7DEB780689FB79983F8943A
:1054700028988EBD0DB407FEFDCF8EB51EBC0DB4B1
:1054800007FEFDCF8EB5289A99819FBF0F90CF91CF
:10549000DF910895DF93CF930F92CDB7DEB7806C85
:1054A0009FB79983F89428988EBD0DB407FEFDCF61
:1054B0008EB56EBD0DB407FEFDCF8EB5289A8981DD
:1054C0008FBF0F90CF91DF910895DF93CF9300D0DE
:1054D000CDB7DEB74A8369830E942F2A698186236C
:1054E00090E04A8102C0959587954A95E2F70F9022
:1054F0000F90CF91DF9108951F93DF93CF9300D04A
:1055000000D0CDB7DEB7182F2C834B836A830E945F
:105510002F2A898399816A81862F8095892389839F
:105520002C8130E04B8102C0220F331F4A95E2F7F5
:1055300062238981682B812F0E944A2A0F900F9045
:105540000F900F90CF91DF911F910895DF93CF932C
:105550000F92CDB7DEB7FC018FB78983F8942898F6
:1055600080E28EBD0DB407FEFDCF8EB51EBC0DB41E
:1055700007FEFDCF8EB5982F93509D37C8F4DF01FD
:10558000119680831EBC0DB407FEFDCF9EB59D9382
:105590001EBC0DB407FEFDCF8150C1F78EB5DF01F3
:1055A000A058BF4F8C93EF57FF4F81E0808308C016
:1055B0001082DF01A058BF4F1C92EF57FF4F10829F
:1055C000289A89818FBF0F90CF91DF910895DF9343
:1055D000CF930F92CDB7DEB7FC018FB78983F894D4
:1055E000289880E68EBD0DB407FEFDCF8EB56EBD4A
:1055F0000DB407FEFDCF8EB5CF0101966350860F27
:10560000911D21912EBD0DB407FEFDCF2EB5E817DB
:10561000F907B9F7289A89818FBF0F90CF91DF9151
:1056200008951F920F920FB60F920BB60F9211248E
:105630002F933F934F935F936F937F938F939F939A
:10564000AF93BF93EF93FF93DF93CF9300D0CDB78A
:10565000DEB78FB78A83F89428988FE88EBD0DB493
:1056600007FEFDCF1EBC0DB407FEFDCF2EB5289A58
:105670008A818FBF822F90E022FD39C023FF27C08F
:1056800081E00E942F2A8F7189838981813149F0BD
:105690008981863031F08981813019F089818631A4
:1056A00031F52091471030E0C901880F991F3695D8
:1056B000322F222737952795820F931F875B9F4EA6
:1056C0000E94A62A109247100E94D72710C026FDDC
:1056D0000EC083709070009751F427FF08C08EE0D1
:1056E0000E942F2A682F6F778EE00E944A2A0F901F
:1056F0000F90CF91DF91FF91EF91BF91AF919F916B
:105700008F917F916F915F914F913F912F910F906A
:105710000BBE0F900FBE0F901F9018951F920F9207
:105720000FB60F9211248F939F9380911B05909138
:105730001C05019690931C0580931B059F918F91EA
:105740000F900FBE0F901F901895262F372FF9013D
:10575000282F392FD90188E091919D938150E1F74D
:105760000895282F392FD901862F972FFC0188E023
:105770002D919191291729F48150D1F721E030E042
:1057800002C020E030E0C9010895282F392FD90147
:10579000ECECF0E18D91819380E1E43DF807D1F7E5
:1057A0000895E0914803F091490309950895E09127
:1057B000CF03F091D00309950895E0914E03F09145
:1057C0004F0309950895E0915003F0915103099515
:1057D000089580E090E008950895E0910603F09127
:1057E000070309950895009731F0E0910603F091C1
:1057F000070309950895E0910803F09109030995BD
:10580000089580E090E008950F931F93DF93CF9366
:10581000CDB7DEB7E0970FB6F894DEBF0FBECDBFB1
:105820000E94164B8C010E94C44A602FAE014F5F4C
:105830005F4F0E945E5A882309F445C088A99801E9
:10584000281B3109C9010E94A04A0097E1F12E816D
:10585000222371F18A859B853BEA8D3C930721F0D9
:105860003FEF8F3F930779F5223041F088E090E0D9
:1058700007C0019722912F3F41F00BC082E090E0DA
:10588000FE01E80FF91F3C96F4CF181619068CF3A9
:105890000FC089E1BE01645F7F4F0E94044C89E123
:1058A0000E94114C6CEC70E10E94B12B009759F0F2
:1058B00088E1BE016A5E7F4F0E94044CE091310393
:1058C000F09132030995E0960FB6F894DEBF0FBE53
:1058D000CDBFCF91DF911F910F910895AF92BF92ED
:1058E000CF92DF92EF92FF920F931F93DF93CF93AC
:1058F000CDB7DEB7E0970FB6F894DEBF0FBECDBFD1
:105900006C018B01FE01319680E3DF011D928A95C7
:10591000E9F781E089838CE00E94FB4B8C831D8238
:105920001F8280911D0589878F5F80931D0583E00D
:10593000E82EE8868DEC9BEA9B878A8789E10E94A6
:10594000114C6BE173E00E94B12B009731F082E0C3
:105950008E838FEF8C878D8709C089E10E94114C5F
:10596000BC01CE010C960E94A52BEE828DEC9BEA29
:105970009D8B8C8BCE0146966CEC70E10E94A52B22
:105980000E94C44A9FA78EA70E94164B88AB7E0137
:105990000894E11CF11CC7010E945559A82E90E003
:1059A0000E942C4B009741F10E94CC4ABC01C701D8
:1059B0004A2D0E947359A090FC02B090FD020E94F3
:1059C000CC4A7C010E94204BBC01C701F50109951E
:1059D000C114D10489F0009721F08130910561F460
:1059E00004C0C80160E070E003C0C80164E070E07A
:1059F00041E050E0F6010995E0960FB6F894DEBF5D
:105A00000FBECDBFCF91DF911F910F91FF90EF900F
:105A1000DF90CF90BF90AF9008950E94384A809356
:105A20001D05E0910603F0910703099508950F9372
:105A30001F93CF93DF938C01EB014115510549F082
:105A4000FA01828193810E94A54CC801BE010E9487
:105A50006E2CDF91CF911F910F910895DF92EF92FD
:105A6000FF920F931F93DF93CF93CDB7DEB762976B
:105A70000FB6F894DEBF0FBECDBF9C017B018EEF49
:105A800090E89A8389831C821B821E821D8218865D
:105A90001F821A8619861C861B861E861D86188AFA
:105AA0001F868E010F5F1F4FC801B901498B5A8BAA
:105AB0000E94B421D0909A118D2D813011F58EE184
:105AC00091E1B8010E94C2308C0149895A8900973E
:105AD000C1F0FC01D78E458FE0912511F091261180
