:100000000C94A6000C94C5000C94C5000C94C5007B
:100010000C94C5000C94C5000C94D12A0C94C50016
:100020000C94C5000C94C5000C94C5000C94C5003C
:100030000C94C5000C94C5000C94C5000C94C5002C
:100040000C94C5000C94C5000C94C5000C94C5001C
:100050000C944E2B0C94EA240C94C5000C94C5000F
:100060000C94C5000C942A560C94C5000C94C50041
:100070000C94C5000C94C5000C94C5000C94C500EC
:100080000C943C570C94C5000C94C5000C94C5000E
:100090000C9459560C94C5000C94C5000C94C500E2
:1000A0000C94C5000C94C5000C94C5000C94C500BC
:1000B0000C94C5000C94C5000C94C5000C94C500AC
:1000C0000C94C5000C94C5000C94C500537973744E
:1000D000656D206F6E6C696E652E0A000A2A2A2AE9
:1000E0002A2A2A2A2A424F4F54494E4720434F4E2C
:1000F00054494B492A2A2A2A2A2A2A2A2A0A000A41
:10010000002C20636865636B20726174652025751F
:1001100020487A0025732025732C206368616E6E59
:10012000656C202575004D414320616464726573E0
:10013000732025783A25783A25783A25783A257833
:100140003A25783A25783A25780A000011241FBE0E
:10015000CFEFD1E2DEBFCDBF14E0A0E0B2E0ECE82B
:10016000FFEB00E00BBF02C007900D92A835B1076E
:10017000D9F712E1A8E5B4E001C01D92A137B1079B
:10018000E1F70E941C240C94C45F0C940000CF93F0
:10019000DF93EC0188819981009721F087349105E4
:1001A00081F528C080E090E060E070E040E050E041
:1001B0000E94410E909359048093580423EC30E53B
:1001C000FC01318B208B00D000D080E092E0EDB7B5
:1001D000FEB79283818380E593EC948383830E94AE
:1001E000805C0F900F900F900F9087E490E09983C0
:1001F00088830BC08091C30D681739F40E944D01AC
:10020000F4CF1982188283E001C081E0DF91CF91A1
:100210000895CF93DF93EC0188819981009751F481
:10022000259A269A279A2F982E9A2D9A8AE192E05B
:100230000E94B25C1982188283E0DF91CF91089509
:10024000CF93DF93EC0188819981009721F08F3261
:100250009105D9F40BC08AE594E064EC79E00E9442
:10026000B3028FE290E09983888313C08AE594E01B
:100270000E94DE02009769F08AE594E00E94BE02C7
:1002800085E292E00E94B25CECCF1982188283E092
:1002900001C081E0DF91CF910895EF92FF920F931B
:1002A0001F93DF93CF93CDB7DEB7C857D0400FB6BB
:1002B000F894DEBF0FBECDBF8091260D81FF56C0E2
:1002C000E0912B0DF0912C0D8091260C9091270C34
:1002D000E80FF91F108200D000D08BE492E0ADB798
:1002E000BEB712969C938E93119780912B0D90918F
:1002F0002C0D14969C938E9313970E94805CE09033
:100300005804F0905904D701EEE3FCE080E101903D
:100310000D928150E1F780915E0C90915F0CF70196
:10032000938B828B0F900F900F900F908E010F5F29
:100330001F4FC80161E672E00E94795CD8010D9000
:100340000020E9F7AD0141505040401B510BC7015F
:10035000B8010E944111E0915804F091590480E1E4
:10036000DF011D928A95E9F7138A128AC858DF4F78
:100370000FB6F894DEBF0FBECDBFCF91DF911F91B6
:100380000F91FF90EF900895809162049091630423
:10039000009729F4109265041092640408950E9455
:1003A0004824E0916204F09163042281338140810A
:1003B0005181240F351F281B390B0CC042815381FA
:1003C00060817181460F571F481B590B4217530715
:1003D00008F49A010480F581E02D309779F7280F11
:1003E000391F309365042093640408958AE293E0F2
:1003F0000E94D3440895CF92DF92EF92FF920F9321
:100400001F93CF93DF937C01FC0180819181009742
:1004100029F08A35910509F06EC00BC01092630473
:10042000109262048AE590E0F7019183808381E075
:1004300066C0673849F5CA01E0916204F09163042F
:1004400003C00480F581E02D309741F32681378188
:1004500028173907B1F3E0936204F09363040FC0E7
:1004600016962D913C9117972817390739F4149651
:100470002D913C91159735832483DF01FD01A481E3
:10048000B581109769F7CECF623861F6C0916204EA
:10049000D091630400E010E02BC0CE010E94BD4566
:1004A0000097F1F08E819F8168E8AE010E947E4442
:1004B0000097A1F41F821E828C819D810115110578
:1004C00021F0F8019583848304C0909363048093A2
:1004D00062041D821C820E94C401D8CF0E94F601D2
:1004E0008E019C818D81C92EE6016E01D82EE60118
:1004F000209799F697CFF7011182108283E0DF9160
:10050000CF911F910F91FF90EF90DF90CF900895C2
:10051000CF93DF93EC010E94F6018E819F810097BB
:1005200069F0E0916204F091630406C0EC17FD07E6
:10053000A9F00480F581E02D3097C1F780918807FC
:10054000909189079F838E838091620490916304C8
:100550009D838C83D0936304C09362040E94C40182
:10056000DF91CF910895CF93DF93EC010E949D45D9
:10057000CE010E948802DF91CF910895CF93DF933F
:10058000EC010E94A945CE010E948802DF91CF9123
:100590000895CF93DF93EC010E94B345CE010E94F2
:1005A0008802DF91CF910895FC0180819181860FAF
:1005B000971F918380830E94C401089521E030E059
:1005C000FC0186819781009711F020E030E0C9019D
:1005D0000895FC012281338180819181280F391F88
:1005E000C9010895FC0180819181089521E030E0E6
:1005F0008091620490916304009711F420E030E050
:10060000C90108958091620490916304009729F0D4
:10061000209164043091650402C020E030E0C901FB
:100620000895CF93DF93EC01E0916204F0916304AD
:100630008E179F0741F48C819D8190936304809372
:10064000620414C0FC01309731F0848195818C17CD
:100650009D07C1F707C01D821C821F821E82DF9189
:10066000CF9108958C819D81958384830E94C401DC
:10067000F2CF9C0141505040460F571FDB0110C084
:10068000FC91E0E011968C911197BF01680F711DEC
:10069000260F371F2617370710F42F5F3F4F12968C
:1006A000A417B50768F3A417B50749F49C9180E037
:1006B000280F391F2817390710F42F5F3F4FC90142
:1006C00008950F931F93DF93CF9300D0CDB7DEB77C
:1006D0000091670430913A0C20E010E0201B310BB0
:1006E00090913B0C290F311D3A83298329813A814E
:1006F000A901480F511DCA016EE37CE040E250E0C1
:100700000E94390349815A81B801625A734F0E948D
:100710003903009719F0382F292F02C02FEF3FEF30
:10072000C9010F900F90CF91DF911F910F91089504
:10073000A09167046A2F70E0685D7F4FFB01EA5C5F
:10074000F34F418150E083E0440F551F8A95E1F754
:10075000495F5F4F22E054C0FC01E60FF71FEA5CDF
:10076000F34F3081313009F448C0313018F033365E
:10077000D1F402C02F5F44C0209368040E94A041BE
:10078000009709F047C09091680480916704E92FB1
:10079000F0E0E80FF11DE25AF34F8181890F8E5F7F
:1007A0008093680435C0832F90E0807C90708038FF
:1007B000910549F0803C910549F080349105E9F4B8
:1007C0002093680427C02093680406C0209368041F
:1007D00080914E0C8F3F01F130E040E050E02A0F55
:1007E000311D411D511D285D3F4F4F4F5F4F84E02C
:1007F00062E00E94B51282E0089581818E5F280F29
:10080000822F90E0481759070CF0A6CF2093680478
:1008100080E0089581E0089581E00895FC0143811E
:10082000460F40932D0C872F99272281280F209364
:100830002C0CA181A0932B0C508150932A0C30E0FA
:100840002817390748F48A2F8F5F80932B0C882351
:1008500019F45F5F50932A0C842F90E07070861714
:10086000970798F480912C0C8F5F80932C0C882331
:1008700061F480912B0C8F5F80932B0C882329F4DB
:1008800080912A0C8F5F80932A0C0895BC0180917F
:100890002D0D90912E0D44960E940E04E0912D0D89
:1008A000F0912E0D80912A0C848B80912B0C858BDE
:1008B00080912C0C868B80912D0C878B08959C0148
:1008C000AB0180E090E0B9010E943903382F292F55
:1008D000C901089580E090E066E37CE048E250E0E2
:1008E0000E943903009719F0382F292F02C02FEFEB
:1008F0003FEFC90108958AE30E946103089586E0ED
:100900000E946103089581E10E94610308950E949D
:10091000592280E009C0E82FF0E0EE0FFF1FE557F5
:10092000F24F118210828F5F8230A8F340E08CE298
:1009300090E00DC0242F30E0289FF001299FF00D9A
:10094000389FF00D1124E15DF24F15A24F5F423048
:1009500088F380E094E0909372048093710440E007
:1009600089E190E00EC0242F30E0289FF001299FFC
:10097000F00D389FF00D1124EF56F24F118A108AB6
:100980004F5F423080F340936F0408951F93CF93DD
:10099000DF9320917104309172042F5F3F4F4DE738
:1009A0002030340710F020E030E1522F432FE09147
:1009B000540DEE2339F0E0913F0DF091400DE41716
:1009C000F50759F3E091800DEE2339F0E0916B0DBE
:1009D000F0916C0DE417F50701F330937204209346
:1009E000710410926F0410E0E0E0F0E02CE230E0DF
:1009F00020C0412F50E0429FD001439FB00D529F35
:100A0000B00D1124A15DB24F95964C91959744235A
:100A100021F410936F04FD0110C0473049F4309762
:100A200031F096965C91969746A1451708F4FD0122
:100A30001F5F1230F0F210936F043097B1F122E093
:100A400025A320916904208F20916A04218F209191
:100A50006B04228F20916C04238F148A158A168AC6
:100A6000178A24EB30E0378F268F31A320A321E0B3
:100A700030E0358F248F17A221E026A323E024A3A2
:100A800012A220E123A32091710430917204322735
:100A900023273227318B208B738B628BEF01DC0194
:100AA00080E10D9009928150E1F7CF01DF91CF9164
:100AB0001F9108950F931F93CF93DF936091670465
:100AC0006623E9F070E0C091260CD091270CC61B7C
:100AD000D70B8E0108521040625A734F8EE59CE08E
:100AE000A8010E94605CD093270CC093260CE6E31B
:100AF000FCE014839E012852258310926704DF9145
:100B0000CF911F910F9108950F931F93CF93DF9370
:100B100020917104309172042F5F3F4F4DE72030D8
:100B2000340710F020E030E1522F432FE091A10D67
:100B3000F091A20DE417F50779F3E091BA0DF09169
:100B4000BB0DE417F50741F3309372042093710451
:100B500010E049E150E019C0012F0F5F212F30E074
:100B6000249FF001259FF00D349FF00D1124EF56C6
:100B7000F24FDF015096C089D189209729F4109354
:100B80006F04309749F433C0102F123028F31093BC
:100B90006F04E0E0F0E02BC04091710450917204CA
:100BA00054274527542711965C934E93738B628B81
:100BB000009731F480E1EF0119928A95E9F707C0B7
:100BC000EF01DC0180E10D9009928150E1F789E1AC
:100BD00090E0289FD001299FB00D389FB00D1124BF
:100BE000AF56B24F8091C90D54968C935497CF0154
:100BF000DF91CF911F910F91089540E013C0E42F32
:100C0000F0E0542F5F5FEE0FFF1FE557F24F20819A
:100C100031812817390729F440936F04118210821B
:100C20000895452F423058F340936F04089540E0F3
:100C300013C0E42FF0E0542F5F5FEE0FFF1FE55766
:100C4000F24F208131812115310529F440936F0441
:100C5000918380830895452F423058F340936F0469
:100C60000895BF92CF92DF92EF92FF920F931F935E
:100C7000CF93DF93C0912D0DD0912E0D843009F4C8
:100C800051C202E71CE010932C0D00932B0D109322
:100C9000290C0093280C833071F48DA190E08F70A3
:100CA00090708330910509F074C08C8D9D8D0097F4
:100CB00009F030C78DC0823009F08EC01092270C29
:100CC0001092260C1092900D10928F0D80916C0452
:100CD0008F5F80936C04882399F480916B048F5FFD
:100CE00080936B04882361F480916A048F5F809302
:100CF0006A04882329F4809169048F5F80936904D2
:100D00008DA1873011F0853041F48EA18F5F8EA3C5
:100D1000883709F0FFC61DA2FDC6882309F4FAC66C
:100D20002C8D3D8D2115310509F44EC09EA1292F32
:100D300021502EA3992309F0EDC69FA1983031F0E0
:100D4000282F2150223048F4953039F41DA280E834
:100D50008093260D0E94FE10C6C5953048F423E00E
:100D600030E0092E02C0220F331F0A94E2F701C0BF
:100D700020E32EA39F5F9FA390E08F70907083303D
:100D80009105E1F0843091054CF48130910509F42E
:100D900093C38230910509F0BDC60DC08630910520
:100DA00009F43DC58830910509F439C584309105B1
:100DB00009F0B0C634C510926B0C81C384E08093F7
:100DC000260D0E94FE10C1C58F70833009F0A2C6A7
:100DD00088E08093260D7CC5853019F5E091290DBA
:100DE000F0912A0D80899189009709F493C6109299
:100DF0002E0D10922D0D0C50104010932C0D0093C1
:100E00002B0D1093290C0093280C1092900D10922A
:100E10008F0D1092270C1092260C88E08093260DDF
:100E20007FC18091360C807F803609F073C6909127
:100E30003A0C80E020913B0C820F911D2091260CF2
:100E40003091270C2817390708F464C688969093C8
:100E5000270C8093260C80913E0C8F3F09F45AC6D4
:100E6000C80184970E94801D009759F4C801849797
:100E70000E94B61E009729F480914E0C8F3F09F016
:100E800049C68CE39CE09093280D8093270D109227
:100E9000670410926604E091270DF091280D80817F
:100EA0008B32E9F18C3248F4863009F48DC18131FE
:100EB00009F4AAC0882389F059C08A3309F462C0B2
:100EC0008B3320F48C3209F051C024C68B3309F4E3
:100ED00021C68C3309F04AC006C08091660480FDAB
:100EE00045C0816009C08091660481FF04C086FD11
:100EF0003DC0806401C08260809366040E949803B4
:100F0000813009F407C6813018F0823021F60AC614
:100F100080916704E82FF0E0E25AF34F1AC0809105
:100F2000660482FD23C08460809366048091670418
:100F3000282F30E0F901E25AF34F9381992349F0C9
:100F4000265D3F4F442737FD4095542F84E060E0F5
:100F500016C0F093280DE093270D885F9181990FBB
:100F6000990F990F890F8093670495CFE653FC4042
:100F70009F01442737FD4095542F84E061E00E9493
:100F8000B512D0C50E947B042FEF8F3F920709F066
:100F9000C1C5E0916704F0E0EA5CF34F80A50E94D0
:100FA000A40EE0916704F0E0EA5CF34F80A5863878
:100FB000B1F0873838F48138D9F08538C9F08038F5
:100FC000B9F413C0883841F0883818F08B3981F4AF
:100FD00009C00E941C1410C00E94A5160DC00E94DA
:100FE0004F180AC00E94D03B07C00E94101204C0D4
:100FF0001092270C1092260C8091260C9091270CB1
:10100000009709F487C58EC50E945A058091260C69
:101010009091270CC0979093270C8093260C86E61E
:101020009CE090932C0D80932B0D8091640C9091FB
:10103000650C009739F00E948304EFEF8F3F9E0705
:1010400009F068C50091600C1091610C0115110543
:1010500009F460C581E99DE090932A0D8093290DE4
:1010600040C0888999890097B9F108171907A1F537
:101070008A899B89009739F020915E0C30915F0C32
:101080002817390749F5888199810097E1F48A8109
:101090009B810097C1F48C819D810097A1F48E8182
:1010A0009F81009781F488859985009761F48A85EE
:1010B0009B85009741F48C859D85009721F48E8552
:1010C0009F850097C1F08EE39CE0BE0140E150E0B7
:1010D0000E944A5C009779F06996D0932A0DC093DC
:1010E000290DC091290DD0912A0DFDE0C33CDF07E9
:1010F00008F4B7CF0FC510922E0D10922D0D82E07F
:101100008093260D86E69CE090932C0D80932B0D0A
:101110009093290C8093280C1092900D10928F0DB3
:101120000E94FE1080918F0D9091900D009709F410
:10113000F1C49C01205D3F4F3093270C2093260C77
:10114000089690933A0C285220933B0CE091290D7D
:10115000F0912A0D248920933D0C21E120933C0C31
:10116000CEE5DCE09827892798279D838C831F8212
:101170001E828089918990935F0C80935E0C828996
:1011800093899B838A83DE01509780E101900D92C1
:101190008150E1F78EE39CE06EE47CE00E94A221A6
:1011A00082E79CE090932C0D80932B0D0E9483048A
:1011B000809590959F838E83009709F0A1C48FEF4F
:1011C0009FEF9F838E839CC40E945A050E947F04D8
:1011D0002FEF8F3F920709F09DC40EE51CE0E090D1
:1011E000600CF090610CE114F10409F493C4C09018
:1011F0005E0CD0905F0CC114D10409F48BC4CFE213
:10120000DDE0BDA0BB20A1F088899989E816F90628
:1012100079F48A899B89C816D90651F48EE39CE03B
:10122000BE0140E150E00E944A5C009709F45DC1B4
:10123000AC968DE0C738D80721F780916B0C8F737F
:101240008230B9F4F0926E04E0926D0420E00DC09B
:10125000E22FF0E0EE0FFF1FE557F24F8081918102
:101260002F5FE816F90609F45FC0223088F3209357
:101270006F0480916B0C82FD4DC484E1F801858779
:101280008CE390E09093270C8093260C80E5848774
:101290008091650C9091690C97833091640C9091CA
:1012A000680C968332872091630C9091670C95832C
:1012B00021879091620C90936F044091660C448357
:1012C00090878F5F8387882361F4832F8F5F828766
:1012D000882339F4822F8F5F8187882311F49F5FE1
:1012E000908780915E0C90915F0C90936E04809338
:1012F0006D042091600C3091610C30935F0C209351
:101300005E0CF80193838283EEE4FCE0DF015097EA
:1013100080E10D9001928150E1F78EE39CE06EE454
:101320007CE00E94A221D0C310926F0440E0C0E094
:10133000D0E08CE290E026C0242F30E0289FF0011E
:10134000299FF00D389FF00D1124E15DF24F25A18A
:10135000222321F440936F04EF0118C0273089F451
:10136000209721F036A12EA1231758F4242F30E026
:10137000289FE001299FD00D389FD00D1124C15D19
:10138000D24F4F5F4230C0F240936F04209709F470
:10139000C1C3D0932E0DC0932D0D83E08EA38CA3DB
:1013A0001AA284E08BA31FA28091600C9091610C23
:1013B000998B888B80915E0C90915F0C9B8B8A8BB4
:1013C000DE01EEE3FCE080E101900D928150E1F757
:1013D00081E08DA380916904888F80916A04898F50
:1013E00080916B048A8F80916C048B8F81E090E0F8
:1013F0009D8F8C8F8091650C8F8B8091640C8E8B70
:101400008091630C8D8B8091620C8C8B81E090E0DD
:101410000E94460480916A0C282F30E0207F3070B3
:10142000213531050CF448C082958F7090E0059706
:10143000880F991F880F991F5091700440E033C0A6
:10144000F901EA5CF34F54AD552329F440936F043E
:101450001092700431C0513011F44F5F24C05230EB
:10146000D9F465AD6430C1F440936F0450937004B7
:1014700036AD20E087AD90E0822B932B90936E04E5
:1014800080936D04853B910510F084EB90E09F8F75
:101490008E8F99A388A310C02D58334FF901208156
:1014A000222331F0420F242F30E02817390744F26D
:1014B00040936F045093700480E180936B0CEEE5D1
:1014C000FCE080916B0C8260858782E0848B84E0F5
:1014D000858B168A84EB878B80E490E09093270CB1
:1014E0008093260C80E68487B6C2D0932E0DC093DD
:1014F0002D0D1092260D80916B0C90E082FF03C0A1
:101500001DA280E24FC240916A0C42954F70440F79
:10151000440F40936F042091260C3091270C2852E1
:101520003040241B31093093270C2093260C4B2D7F
:1015300050E04F7050704230510539F4AC014F7398
:1015400050704231510551F429C04130510531F4F8
:10155000AC014F7350704230510501F12115310536
:1015600031F49C012370307021153105B9F03091B0
:10157000620C2C89321779F43091630C2D89321763
:1015800051F43091640C2E89321729F43091650C96
:101590002F89321719F081FD8FCF51C284FF4AC0C5
:1015A0006C8D7D8D6115710509F444C0CE0148969E
:1015B0000E940E043091660C80912A0C3817D1F5E8
:1015C0002091670C80912B0C2817A1F59091680C45
:1015D00080912C0C981771F58091690C40912D0C1D
:1015E000841741F5388F298F9A8F8B8F8FA188238D
:1015F000D1F42AA18CA19EA1891B922F9695969534
:101600009695891B280F2AA387FD81959BA1392FC9
:1016100036953695931B980F9BA3822F86958695BA
:101620008695890F8CA381E08093260D8CA18EA3D3
:101630001D8E1C8E2DA130E0C9018F7090708430FA
:10164000910509F4B4C18530910564F482309105A7
:10165000C9F1833091050CF0B8C08130910509F0D3
:1016600059C211C08630910509F4E1C18630910557
:101670000CF4BDC18730910509F4E1C188309105B2
:1016800009F048C289C18091260D80FF14C083E013
:101690008DA380E48093260D1D8E1C8E8091260CD8
:1016A0009091270C009709F40FC122E42093260D96
:1016B0000E94460409C180916B0C8F73823009F03F
:1016C00029C2FACE8091260D80FF74C080916B0CE8
:1016D0008F73823109F06EC080916A0C282F30E040
:1016E000207F3070213531050CF448C082958F7011
:1016F00090E00597880F991F880F991F50917004EB
:1017000040E033C0F901EA5CF34F54AD552329F4AE
:1017100040936F041092700431C0513011F44F5F48
:1017200024C05230D9F465AD6430C1F440936F04E5
:101730005093700436AD20E087AD90E0822B932B60
:1017400090936E0480936D04853B910510F084EBBB
:1017500090E09F8F8E8F99A388A310C02D58334F90
:10176000F9012081222331F0420F242F30E0281785
:10177000390744F240936F045093700483E08DA3C3
:101780008091620C8C8B8091630C8D8B8091640CAA
:101790008E8B8091650C8F8B81E090E00E944604D7
:1017A00082E48093260D1D8E1C8E1092270C1092C1
:1017B000260C8AC080E28093260D0E94FE10E091E4
:1017C0002D0DF0912E0D15A254CD80916B0C80FF44
:1017D0002AC024FD28C08C8D9D8D009709F09AC1E8
:1017E0008091260C9091270C01960E94460420912E
:1017F000260D822F80618093260D8091260C90917A
:10180000270C009719F022612093260D0E94FE10EC
:1018100081E090E09D8F8C8F88E08DA31FA281E1F5
:1018200080936B0C0FC185FF1CC05091700C40E081
:101830008091710C90E0842B952B40912B0D509151
:101840002C0D480F591F50932C0D40932B0D409198
:10185000260C5091270C481B590B5093270C409392
:10186000260C8091260C9091270C009749F024FDBE
:1018700007C02091260D22602093260D0E94460469
:1018800090916C0C80E020916D0C820F911D9093D3
:101890006E0480936D0428A139A12817390710F030
:1018A000009721F430936E0420936D0480916D04B1
:1018B00090916E049F8F8E8F8091260D90E08370A3
:1018C0009070009709F426C11092900D10928F0D20
:1018D0000E94FE108091260D85FF07C01092900D8A
:1018E00010928F0D1DA284E19BCF84FF0AC010923D
:1018F000900D10928F0D81E090E09D8F8C8F84E091
:101900008CCF20918F0D3091900D21153105E1F094
:1019100080FF02C01D8E1C8E8C8D9D8D009781F4E2
:101920008E8D9F8D8217930720F49093900D809356
:101930008F0D80918F0D9091900D9D8F8C8F04C095
:101940009093900D80938F0D1FA28091280C909101
:10195000290C90932C0D80932B0D80918F0D9091DD
:10196000900D009759F08C8D9D8D009739F0CC9695
:101970009093270C8093260C88E10BC08091260D54
:1019800081FFC8C08CE390E09093270C8093260CD5
:1019900080E180936B0C5CC08091260D80FFBAC003
:1019A0001DA280E18093260D0E94FE10B3C080919D
:1019B000260C9091270C009711F00E9446049091FC
:1019C0006B0C8091260D90FF0BC080FF06C087E056
:1019D0008DA31EA21D8E1C8E19C086E08DA316C07D
:1019E00080FF1EC085E08DA31D8E1C8E93C080914C
:1019F000260C9091270C009711F00E9446048091CC
:101A00006B0C80FF0DC087E08DA31EA281E090E0EB
:101A10000E94460480E18093260D0E94FE100FC0B4
:101A20008091260C9091270C009749F473C0809107
:101A3000260D80FF6FC087E08DA31EA26BC080E1E2
:101A4000F80185878CE390E09093270C8093260C17
:101A500080E580936A0C0EE51CE08C89F801808794
:101A60008D8981878E8982878F898387888D8483FA
:101A7000898D85838A8D86838B8D878386E080938D
:101A80003C0C8889998990935F0C80935E0C8A89BD
:101A90009B8993838283D8015097FE0180E1019056
:101AA0000D928150E1F78EE39CE06EE47CE00E94B1
:101AB000A2218DA184FF04C0F8011786168604C0F8
:101AC000F801168684EB87878091C90D80933D0CC1
:101AD0008091260C9091270C9C0128523040309325
:101AE0003A0C885280933B0CCEE5DCE01B8A1A8AC4
:101AF000198A188A0E947F0480959095998B888B0B
:101B000080E68093360C1092370C1092390C1092AC
:101B1000380C08C01092270C1092260C1092670403
:101B2000109266041092260DDF91CF911F910F91B4
:101B3000FF90EF90DF90CF90BF900895382F292F1E
:101B4000C9010895382F292F40E050E076276727F4
:101B5000762780E090E0CB0177276627262B372B6E
:101B6000482B592BB901CA010895AC01E091280C0A
:101B7000F091290C222733272E1B3F0B2A5D324F71
:101B8000621773070CF49B011216130664F420937A
:101B90008F0D3093900D4E175F0729F0CF01BA01DA
:101BA000A9010E94575C08958DE794E00E94DE022F
:101BB000009721F08DE794E00E94C9020895E0911A
:101BC0008A04F0918B04309711F00995089580E014
:101BD000089590938B0480938A0408952091880738
:101BE0003091890760E0E3E7F4E013C04081518160
:101BF0004817590761F4428153814217530739F45A
:101C000060938904118210820E94FD050895349624
:101C10006F5F623058F360938904089540E0E3E712
:101C2000F4E016C0542F5F5F20813181211531050A
:101C300069F44093880491838083209188073091D0
:101C40008907338322830E94170608953496452F0F
:101C5000423040F3409388040895FC018091880746
:101C60009091890791A780A773A762A70895FC01A7
:101C70008091880790918907968B858B708F678BF1
:101C80000895CF93DF93EA010E948405FC01009739
:101C900041F08091880790918907968B858BD08F32
:101CA000C78BCF01DF91CF9108950F931F93DF93DF
:101CB000CF93CDB7DEB760970FB6F894DEBF0FBEF7
:101CC000CDBF8C01AB018FEF92E09A8389831C8298
:101CD0001B821E821D8218861F821A8619861C8608
:101CE0001B861E861D8680E091E0988B8F87CE0133
:101CF0000196B8010E94410EFC01009711F0118B72
:101D0000008BCF0160960FB6F894DEBF0FBECDBF3B
:101D1000CF91DF911F910F9108952091870D309100
:101D2000880D2115310571F42091880730918907BC
:101D30003093880D2093870D90938A0D8093890DA1
:101D400080E0089581E00895DF93CF930F92CDB79F
:101D5000DEB789838091870D9091880D009739F0C7
:101D60006091C40DAE014F5F5F4F0E94A1440F9080
:101D7000CF91DF91089581E493E062E040E050E08C
:101D80000E94A1441092270C1092260C1092670416
:101D900008950F931F93CF93DF938091260C90911A
:101DA000270C009709F4B4C025E08130920708F0B1
:101DB000A0C00EE41CE080914E0C90914F0C009757
:101DC00059F58091500C9091510C009729F5809114
:101DD000520C9091530C0097F9F48091540C90910F
:101DE000550C0097C9F48091560C9091570C0097B0
:101DF00099F48091580C9091590C009769F4809156
:101E00005A0C90915B0C009739F480915C0C909186
:101E10005D0C009709F46DC080914E0C8F3F09F462
:101E20006DC08EE49CE00E94501D882379F48EE4FE
:101E30009CE00E94AD20009731F40E949B1C8C0115
:101E4000009721F456C08C010D5E1F4FC8010E94FF
:101E50007142009709F04DC0C8010E94C41BEC01FB
:101E6000009799F5C80160E070E040E020E00E9432
:101E7000241BEC010097E9F18EE39CE00E94801D99
:101E8000AE014F5F5F4F009719F08EE39CE002C0F8
:101E900080E090E060E070E00E94CE156091D20D8D
:101EA0007091D30D8091D40D9091D50D28EE33E033
:101EB00040E050E00E94CA5BCE018196BA01A901C0
:101EC0000E943F4881E08BA719C08DA5882389F027
:101ED000823059F483E08DA7CE01499645E050E069
:101EE00060E070E00E943F481BA6CE0141960E9430
:101EF000DF0D1092270C1092260C0AC080E090E0B3
:101F00000E94DF0D1092270C1092260C109267048D
:101F1000DF91CF911F910F910895EF92FF920F9350
:101F20001F93CF93DF93EC018A01888199810097F9
:101F300031F023E08030920709F02CC131C080E0FD
:101F40000BC0E82FF0E0EE0FFF1FEE0FFF1FED5864
:101F5000FB4F118210828F5F823098F3809385044B
:101F6000809188079091890790937C0480937B04EB
:101F70000E94EE438093C30D0E94EE438093C40DF4
:101F80008DE794E06EE370E00E94B3020E94870444
:101F90000E945A2E80E093E09983888381E0FDC0FF
:101FA000623009F4D9C0633030F4662309F4B6C056
:101FB000613081F7C3C0673819F0683859F755C0E8
:101FC0001092860493E7E92E94E0F92E18C0F701E9
:101FD000828193818017910749F4808191810E94C9
:101FE000FD05F701118210821382128284E090E0D5
:101FF000E80EF91E809186048F5F8093860480919D
:102000008604823020F38091570D9091580D8017EF
:10201000910731F41092580D1092570D1092540DF3
:102020008091830D9091840D8017910731F4109267
:10203000840D1092830D1092800D8091A60D9091C9
:10204000A70D8017910721F41092A20D1092A10DF7
:102050008091BF0D9091C00D8017910709F09ACF24
:102060001092BB0D1092BA0D95CF94E04D375907E1
:10207000D1F5CA010E94DE020097A9F110928604F0
:102080008CE2E82EF12C2BC090E08E9DF0018F9D0C
:10209000F00D9E9DF00D1124E15DF24F85A1882386
:1020A000C9F08DE794E00E94C9022091860430E0D7
:1020B0002E9DC0012F9D900D3E9D900D1124815DA0
:1020C000924F90932E0D80932D0D82E00E94310649
:1020D0000E94C90E809186048F5F80938604809150
:1020E0008604823088F2EFE0063B1E0749F4C801FF
:1020F0000E94DE02009721F00E9410220E94C90E69
:10210000FEE0023C1F0709F045CFC8010E94DE0235
:10211000009709F43FCF0E940F1F1BC041155105C6
:1021200009F438CF50932E0D40932D0D83E00E947B
:1021300031060E94C90E0E94D40D2CCF41155105C5
:1021400009F428CF50932A0D4093290D85E00E9471
:1021500031060E94C90E1ECF8091260C9091270C4B
:10216000009709F417CF80913C0C863031F48091B0
:102170006B0C81FF02C00E94D40D81E00E943106E9
:102180008091260C9091270C009709F403CF0E94B0
:10219000A91100CF1982188283E0DF91CF911F919E
:1021A0000F91FF90EF900895AC0181E493E061E01E
:1021B0000E947E440895AC0181E493E060E00E94B7
:1021C0007E4408950F931F93CF93DF93EA010E94FB
:1021D000C6048C01009761F080918807909189076F
:1021E000F80191A780A7D3A7C2A7C8010E94DB105E
:1021F000C801DF91CF911F910F910895CF93DF9385
:10220000A0912D0DB0912E0D109719F0ED01A8960B
:1022100005C0C091290DD0912A0D65968091260D9B
:1022200086FF22C01092870440E0E3E7F4E016C086
:102230002081318150968D919C91519728173907B3
:1022400059F482819381009739F0409387049983F0
:1022500088831B821A8206C034964F5F423040F357
:10226000409387040E94D40D88819981009731F0B2
:102270004A815B816091C30D0E94A144DF91CF919F
:102280000895FB013097D9F090932A0D8093290D82
:1022900040938F0D5093900D66E67CE0242F352FF0
:1022A000213F310514F020EF30E0CB01BF01A9013F
:1022B0000E94575C84E00E9431060E94C90E109271
:1022C000900D10928F0D0895CF92DF92EF92FF92B2
:1022D0000F931F93DF93CF93CDB7DEB760970FB601
:1022E000F894DEBF0FBECDBF7C012115310511F181
:1022F000DE011196FC0180E101900D928150E1F721
:10230000F701C288D388D90180E10D9001928150F4
:10231000E1F7F701138B028BC7010E944111D7012E
:10232000FE01319680E101900D928150E1F7F701B5
:10233000D38AC28A60960FB6F894DEBF0FBECDBFB7
:10234000CF91DF911F910F91FF90EF90DF90CF9091
:1023500008951F93CF93DF9380913C0C863009F052
:1023600059C08091260C9091270C803F910509F06F
:1023700051C0C6E9D0E0D093270CC093260C109230
:102380003A0C1EE610933B0C10926F0C10926E0CE0
:102390000E947F048095909590936F0C80936E0CB3
:1023A0000E94C90ED093270CC093260C10923A0CB1
:1023B00010933B0C90912B0D80912C0DE92FF82F51
:1023C000DF01A65ABF4F8AE50D9001928150E1F7D7
:1023D00082E69CE06AE570E00E940E0480912A0C7F
:1023E0008093620C80912B0C8093630C80912C0C59
:1023F0008093640C80912D0C8093650C10926F0C6F
:1024000010926E0C0E947F048095909590936F0CB3
:1024100080936E0C0E94C90EDF91CF911F91089599
:102420001F93CF93DF938091C90D80933D0C8091D2
:102430004E0C8F3F81F4EEE4FCE0DF01509780E129
:102440000D9001928150E1F78EE39CE06EE47CE018
:102450000E94A2211BC0ACE8B4E0EEE3FCE080E106
:1024600001900D928150E1F7EEE3FCE0DF01509620
:1024700080E10D9001928150E1F7AEE4BCE0ECE820
:10248000F4E080E101900D928150E1F780916704C2
:10249000882309F455C00E940C43182F60916704EB
:1024A000882371F18AE380935E0C611731F1212F4B
:1024B00030E070E0C901861B970B4091260C5091CB
:1024C000270C480F591F5093270C4093260CFA01F4
:1024D000B897F0933A0CE42FE852E0933B0C645D1C
:1024E0007F4F860F971F6A5C734F421B530B4C52F2
:1024F00050408A5C934F0E94605C1093670420C038
:102500008AE380933C0C70E04091260C5091270C9C
:10251000461B570B5093270C4093260CCA018897F3
:1025200090933A0C842F885280933B0C6E59734FD2
:102530004C52504082E69CE00E94605C109267041E
:1025400080916704C82FD0E0C25AD34F81E88883B6
:1025500019821B821A820E947B04809590959B832E
:102560008A83DF91CF911F910895BF92CF92DF921E
:10257000EF92FF920F931F93CF93DF93082F162FA5
:1025800069017A01E0916704EE2339F0F0E0E25A44
:10259000F34F80818A3349F49AC080913C0C8A338E
:1025A00021F480915E0C87FF92C00E940C43B82EEC
:1025B00080936704ACE8B4E0EEE4FCE080E10190D5
:1025C0000D928150E1F78091260C9091270CC096D6
:1025D0009093270C8093260C25E08130920730F0F1
:1025E00080E095E09093270C8093260C2B2D30E013
:1025F000C901880F991F4091260C5091270C405318
:102600005040421B530B8A59934F66E37CE00E9473
:10261000605C80E68093360C1092370C1092390C77
:102620001092380CBB2021F08AE380935E0C03C02B
:102630008AE380933C0C8091C90D80933D0C80917E
:102640003E0C90913F0C009751F58091400C909179
:10265000410C009721F58091420C9091430C00971A
:10266000F1F48091440C9091450C0097C1F4809155
:10267000460C9091470C009791F48091480C9091F2
:10268000490C009761F480914A0C90914B0C009793
:1026900031F480914C0C90914D0C0097C1F0EEE418
:1026A000FCE0DF01509780E10D9001928150E1F74D
:1026B00080918C048F3F81F4043049F4123039F456
:1026C0008EE39CE06CE874E00E94A2210EC01092A0
:1026D000270C1092260C36C0AEE3BCE0ECE8F4E028
:1026E00080E101900D928150E1F780916704C82F3D
:1026F000D0E0FE01E25AF34F00831183C701B60117
:102700000E94A20DCE59D34F688379838A839B831D
:102710008091260C9091270C9C01285230403093D8
:102720003A0C885280933B0C80916704C82FD0E00C
:10273000C25AD34F1B821A820E947B0480959095C7
:102740009B838A83DF91CF911F910F91FF90EF9030
:10275000DF90CF90BF900895CF92DF92FF920F93BA
:102760001F93DF93CF930F92CDB7DEB7F62E69019B
:1027700020E62093360C1092370C1092390C1092F0
:10278000380C2AE320933C0C2091C90D20933D0C7A
:1027900096012C5F3F4F30933A0C2C2D2C5F2093E9
:1027A0003B0CEEE4FCE0282F392FD90180E10D909D
:1027B00001928150E1F78EE39CE06EE47CE0498376
:1027C0000E94A2210091670410E0025A134FF80101
:1027D000F08249814183138212820E947B0480959A
:1027E0009095F80193838283C6018C969093270C71
:1027F0008093260C0E94C90E0F90CF91DF911F91FC
:102800000F91FF90DF90CF900895CF93DF93FC015D
:10281000608382E08183EF012296AEE2BCE088E033
:102820000D9009928150E1F73A9686E011928A95CF
:10283000E9F7DF91CF910895DF92EF92FF920F9326
:102840001F93CF93DF9380913D0C8F3F09F09AC186
:10285000E0916704F0E0EA5CF34F80A98F3F09F450
:1028600091C181A5882309F08DC110929E04109218
:102870009D0484E180939C0492E0D92E84C0F901E8
:10288000EA5CF34F8181882309F47CC18081813027
:1028900009F069C0F0939E04E0939D0480913E0C82
:1028A00090913F0C009759F58091400C9091410C0C
:1028B000009729F58091420C9091430C0097F9F410
:1028C0008091440C9091450C0097C9F48091460C7E
:1028D0009091470C009799F48091480C9091490C85
:1028E000009769F480914A0C90914B0C009739F451
:1028F00080914C0C90914D0C009709F443C18EE3EC
:102900009CE00E94C41BEC019093A00480939F0460
:1029100060919D0470919E04009749F46E5F7F4F13
:102920008EE39CE040E022E00E94241B1CC082E079
:10293000E82EF12CE60EF71E8E010F5E1F4FC70129
:10294000B80148E050E00E944A5C009741F0D8018D
:10295000F70188E001900D928150E1F703C08DA549
:10296000882309F4DDA690919C04E0916704F0E0CF
:10297000EA5CF34FE90FF11D85A5880F880F880FDA
:10298000890F80939C048091670490E020919C04BF
:10299000AC01420F511D9A01245D3F4F4091260C1E
:1029A0005091270C2417350708F469CF8A59934FA3
:1029B0000E94801D9093B6048093B504009709F49B
:1029C000E1C080913E0C90913F0C009759F58091A9
:1029D000400C9091410C009729F58091420C909108
:1029E000430C0097F9F48091440C9091450C0097AA
:1029F000C9F48091460C9091470C009799F480910E
:102A0000480C9091490C009769F480914A0C909180
:102A10004B0C009739F480914C0C90914D0C009721
:102A200009F4B0C08EE39CE00E94801D009709F07D
:102A3000A9C080914E0C8F3F09F03EC080914F0C91
:102A40008230D1F58091500C9091510C0097A1F5F6
:102A50008091520C9091530C009771F58091540C19
:102A60009091550C009741F58091560C9091570C20
:102A7000009711F58091580C8823F1F48091590C3E
:102A80008130D1F480915A0C8F3FB1F4EEE4FCE038
:102A9000DF01509780E10D9001928150E1F7E091C4
:102AA0006704F0E0AEE3BCE0EA59F34F80E1019047
:102AB0000D928150E1F721C08EE49CE00E94801DC0
:102AC0002091B5043091B6042817390709F05AC08F
:102AD000EEE4FCE0DF01509780E10D90019281501F
:102AE000E1F7E0916704F0E0AEE3BCE0EA59F34FB0
:102AF00080E101900D928150E1F71092670480E629
:102B00008093360C1092370C1092390C1092380CBE
:102B100010923A0C98E290933B0C9AE390933C0C01
:102B20009FEF90933D0CAEE5BCE098E890935E0C6F
:102B300011961C9211978093620CE091B504F0916C
:102B4000B6041896319680E101900D928150E1F71C
:102B500086E79CE062E00E94051480916704C82F1C
:102B6000D0E0C25AD34F1B821A820E947B04809508
:102B700090959B838A8380E590E09093270C8093C7
:102B8000260C04C01092270C1092260CDF91CF91D6
:102B90001F910F91FF90EF90DF900895CF93DF93F7
:102BA000EC01CA011092670420E62093360C1092C3
:102BB000370C1092390C1092380C2AE320933C0CFD
:102BC0002FEF20933D0CEEE4FCE061157105E1F47C
:102BD00020934E0C32E031831382128215821482CC
:102BE0001782168211861086128631E03387248779
:102BF000DA011D962C911D9725871E962D913C91EB
:102C00001F973787268706C0DB0120E10D900192D0
:102C10002150E1F7E0916704F0E0EA5CF34F27E828
:102C200020A711A614A615A616A617A6F096DC01D5
:102C300020E10D9001922150E1F710923A0C0E9490
:102C4000801D009709F053C0209741F0EEE3FCE0AF
:102C500080E1099001928150E1F706C08EE39CE08B
:102C60006EE47CE00E94A22180913E0C90913F0C8A
:102C7000009779F58091400C9091410C009749F5AF
:102C80008091420C9091430C009719F58091440C6F
:102C90009091450C0097E9F48091460C9091470C77
:102CA0000097B9F48091480C9091490C009789F4F1
:102CB00080914A0C90914B0C009759F480914C0CE8
:102CC00090914D0C009729F41092270C1092260C2D
:102CD00039C088E280933B0C8091670490E08A5869
:102CE000934F61E00E94051480E590E019C0EEE387
:102CF000FCE010923F0C10923E0C1382128215825F
:102D00001482178216821186108613861286158603
:102D100014861786168688E180933B0C80E490E049
:102D20009093270C8093260C80916704C82FD0E0E5
:102D3000C25AD34F1B821A820E947B0480959095C1
:102D40009B838A83DF91CF910895DF92EF92FF9268
:102D50000F931F93CF93DF932091670430E0F90125
:102D6000EE59F34FE08080913D0C8F3F09F0EFC0AA
:102D7000D901A25AB34F11968C911197882309F06B
:102D8000E6C084818F3F09F4E2C040E4D42EDE2007
:102D9000E6FE05C080914E0C8F3F09F4D8C04091EB
:102DA000260C5091270C64E180E090E0245D3F4FB9
:102DB00016C0AA5CB34F11967C911197772339F412
:102DC00090939E0480939D0460939C04C0C00C91DA
:102DD000023009F4CD01770F770F770F670FD90114
:102DE000A60FB11DA417B50720F390939E048093FE
:102DF0009D0460939C04CF0104960E94801D9093D3
:102E0000B6048093B504009709F0A1C080916704CF
:102E100090E08A59934F0E94C41BEC019093A00448
:102E200080939F04009709F492C000919D04109133
:102E30009E040115110551F0BC016F5E7F4FC80162
:102E4000029648E050E00E944A5C01C080E020E821
:102E5000F22EFE209DA5992351F50115110509F4C7
:102E600076C0DE015196F801329688E001900D920D
:102E70008150E1F7DD20C1F081E08DA71BA66091B4
:102E8000CE0D7091CF0D8091D00D9091D10D28EE87
:102E900033E040E050E00E94CA5BCE014996BA019F
:102EA000A9010E943F484EC082E08DA74BC0E5FCBF
:102EB00008C0882331F0913009F049C082E08DA725
:102EC00046C00115110549F0DE015196F801329610
:102ED00098E001900D929150E1F7DD20B9F081E08A
:102EE0008DA76091CE0D7091CF0D8091D00D9091F6
:102EF000D10D28EE33E040E050E00E94CA5BCE01E5
:102F00004996BA01A9010E943F4807C00115110561
:102F100021F0882311F082E08DA7E0919F04F091C9
:102F2000A00484A5882371F0FF2061F48EE39CE067
:102F30000E947D1C9093B8048093B704009711F011
:102F40000E94781CE0919F04F091A004F4A61092D6
:102F5000270C1092260CDF91CF911F910F91FF90BB
:102F6000EF90DF900895CF93DF9380E68093360C47
:102F70001092370C1092390C1092380C8AE380931F
:102F80003C0C8FEF80933D0CEEE4FCE08FEF92E081
:102F900090934F0C80934E0C1382128215821482F0
:102FA000178216821186108613861286158614865D
:102FB00080E092E097878687CF014097BF010E940B
:102FC000A22180916704282F30E0F901E25AF34FE3
:102FD00095E89083118210923A0C40913E0C5091EA
:102FE0003F0C41155105D9F54091400C5091410CD1
:102FF00041155105A1F54091420C5091430C4115EA
:10300000510569F54091440C5091450C411551050D
:1030100031F54091460C5091470C41155105F9F49A
:103020004091480C5091490C41155105C1F4409113
:103030004A0C50914B0C4115510589F440914C0CB0
:1030400050914D0C4115510551F488E080933B0C93
:10305000205D3F4F3093270C2093260C0FC0205C3F
:103060003F4F3093270C2093260C98E190933B0C14
:1030700090E08A59934F61E00E94051480916704A3
:10308000C82FD0E0C25AD34F1B821A820E947B0401
:10309000809590959B838A83DF91CF910895DF92ED
:1030A000EF92FF920F931F93CF93DF9380913D0C8C
:1030B0008F3F09F06AC280913E0C8E3F09F065C2D5
:1030C00080913F0C803809F060C2E0916704F0E025
:1030D000DF01A25AB34F11968C911197882309F002
:1030E00054C2EE59F34F8081882311F08093C90DAB
:1030F00064817581868197816115710581059105CE
:1031000061F1E090CA0DF090CB0D0091CC0D1091C3
:10311000CD0D0E94A20DE616F70608071907E9F083
:10312000E0916704F0E0EE59F34F64817581868188
:1031300097810E94A20D6093CA0D7093CB0D80936E
:10314000CC0D9093CD0D0E942B226093CE0D7093E9
:10315000CF0D8093D00D9093D10DE0916704F0E0F6
:10316000EE59F34F608571858285938561157105F0
:103170008105910551F00E94A20D6093D20D7093CC
:10318000D30D8093D40D9093D50D8CE080939C0447
:1031900062E0D62EB1C1FC01EA5CF34F8181882345
:1031A00009F4F3C18081833009F457C0853009F4F4
:1031B00045C0813009F090C1F0939E04E0939D04D6
:1031C0008EE39CE00E94C41BEC019093A0048093CA
:1031D0009F04009789F460919D0470919E046E5F36
:1031E0007F4F8EE39CE041E022E00E94241B9093FD
:1031F000A00480939F0470C18DA5882309F4DDA6E7
:1032000000919D0410919E040E5F1F4F51E1E52E29
:10321000F12CEC0EFD1EC801B70148E050E00E9401
:103220004A5C009741F0D701F80188E001900D92C7
:103230008150E1F7DDA681E08CA74EC164817581E4
:10324000868197810E94A20D6093C50D7093C60D73
:103250008093C70D9093C80D3FC1F093A204E093F3
:10326000A10464817581868197810E94A20D7B01F2
:103270008C01E091A104F091A204608571858285A2
:1032800093850E94A20DE616F7060807190708F4B1
:1032900023C1E091A104F091A20480898E3F21F422
:1032A0008189803809F418C1838187FF5FC0CF010D
:1032B000409662810E94321DEC019093A404809399
:1032C000A304E091A104F091A204009749F5848140
:1032D0009581A681B7810097A105B10509F446C083
:1032E000EF0160968F3F2FEF92072FEFA2072FEF8E
:1032F000B20751F00281BC01CD010E94A20D9B01D9
:10330000AC01CE01602F05C0CE01628120E030E02B
:10331000A9010E94D61C9093A4048093A30426C004
:10332000648175818681978161157105810591059B
:1033300049F06F3F3FEF73073FEF83073FEF93077E
:1033400041F404C0CE010E942D1D10C081E08A8F7F
:103350000DC00E94A20DAB01BC01CE0142960E949D
:103360003F48E091A304F091A404128EE091A104DF
:10337000F091A204838186FFAFC084819581A681EC
:10338000B7810097A105B10509F4A6C082818034F8
:1033900009F0A2C0A5EAB4E0709680E101900D9218
:1033A0008150E1F785EA94E06EE27CE00E947421AE
:1033B00085EA94E00E94801DFC019093B6048093FE
:1033C000B504009709F45FC02289213009F05BC081
:1033D000A091A104B091A20414966D917D918D915C
:1033E0009C9117976F3F3FEF73073FEF83073FEFC6
:1033F000930709F446C00E94A20D61322CE17207C6
:1034000020E0820720E09207C0F4E091A104F0914F
:10341000A20464817581868197810E94A20D7B013F
:103420008C018091B5049091B60444960E949A480C
:103430006E157F058007910798F4C091B504D0916F
:10344000B6046496E091A104F091A20464817581B0
:10345000868197810E94A20DAB01BC01CE0109C0FB
:103460008091B5049091B604449640E25CE160E03E
:1034700070E00E943F48E091B504F091B604138AD1
:103480002BC0238B29C0E091A104F091A204648198
:103490007581868197810E94A20D6F3F3FEF730770
:1034A0003FEF83073FEF930731F485EA94E040E074
:1034B00050E0BA010EC0E091A104F091A204648131
:1034C0007581868197810E94A20DAB01BC0185EABE
:1034D00094E021E00E942D1E90919C04E0916704ED
:1034E000F0E0EA5CF34FE90FF11D85A5880F880F26
:1034F000880F890F80939C042091670480919C041D
:1035000090E0820F911D8C962091260C3091270C13
:103510008217930708F43FCE8EE39CE00E947D1C47
:10352000EC019093B8048093B704E0916704F0E055
:10353000EE59F34F82819381009711F1A0919F047E
:10354000B091A004109721F081E09C968C939C97F9
:1035500082819381209751F40E949E0DAC0160E01E
:1035600070E08EE39CE00E94201C0FC00E949E0D24
:10357000AC0160E070E0CE0141960E943F4805C07A
:10358000209719F0CE010E94781C1092270C1092FF
:10359000260CDF91CF911F910F91FF90EF90DF905C
:1035A00008958F929F92AF92BF92CF92DF92EF9247
:1035B000FF920F93CF93DF935A014901F7011182D4
:1035C000108270E0469F6001479FD00C569FD00C40
:1035D0001124C80ED91E069506950695EC0116C055
:1035E0008881882371F0CE010196B401402F50E00C
:1035F0000E944A5C009741F4F701D183C08380E0C8
:1036000010C0F701D183C083CA0DDB1DCC15DD05C9
:1036100038F3F70180819181009711F081E001C0BA
:1036200082E0DF91CF910F91FF90EF90DF90CF90EC
:10363000BF90AF909F908F900895009721F0FC016C
:1036400010820E94402E0895BF92CF92DF92EF9297
:10365000FF920F931F93CF93DF93182FD92EEB0177
:10366000C42EB22E8EEF9EE064E04EE250E0212F99
:103670003D2D00E878EDE72E74E0F72E0E94D11A78
:1036800090E08130910509F054C0E091D804F091A8
:10369000D90481E08083E091D804F091D904319677
:1036A000812F9D2DDC0180E10D9001928150E1F789
:1036B0008091D8049091D904209741F0FC01719633
:1036C00088E0099001928150E1F707C04196FC0122
:1036D00088E0DF011D928A95E9F7E091D804F09126
:1036E000D904C4A6B5A6CF01499640E050E0BA017E
:1036F0000E943F488091D8049091D904819640E07F
:1037000050E0BA010E943F488091D8049091D904BA
:10371000FC0113A60E94402EC091D804D091D90478
:103720000E9448249AA789A72091D8043091D904EF
:1037300020C082309105D9F40E9448249C0180E089
:1037400090E0EEEFFEE04081442339F041A552A520
:103750004217530710F49A01CF01BE964FE0E63BA3
:10376000F40789F7009719F00E941D1B7BCF20E01A
:1037700030E0C901DF91CF911F910F91FF90EF9041
:10378000DF90CF90BF900895EF92FF920F93CF9369
:10379000DF939C018EEF9EE064E04EE250E000E893
:1037A000E8EDEE2EE4E0FE2E0E94D11A882369F4A3
:1037B000C091D804D091D9040E9448249AA789A71F
:1037C0002091D8043091D90402C020E030E0C90132
:1037D000DF91CF910F91FF90EF900895EF92FF92BC
:1037E0000F931F93CF93DF938C018EEF9EE0909306
:1037F000D9048093D80412C08881882351F0BE0177
:103800006F5E7F4FC80148E050E00E944A5C00971D
:1038100079F0AE96D093D904C093D804C091D8045F
:10382000D091D9042FE0C63BD20730F3C0E0D0E0FE
:10383000CE01DF91CF911F910F91FF90EF900895EE
:103840009F92AF92BF92CF92DF92EF92FF920F932F
:103850001F93182F992E5A016B018AEC9EE062E0AB
:103860004AE150E0212F392D00E8F6EDEF2EF4E08B
:10387000FF2E0E94D11A813071F5E091D604F091AB
:10388000D7048083E091D604F091D7043196812F3C
:10389000992DDC0180E10D9001928150E1F780913A
:1038A000D6049091D704A114B104C104D10459F0F5
:1038B0004196B601A5010E943F48E091D604F091DF
:1038C000D704118E03C021E0FC01218F2091D60482
:1038D0003091D70402C020E030E0C9011F910F9160
:1038E000FF90EF90DF90CF90BF90AF909F900895A2
:1038F000009711F0FC0110820895EF92FF920F9350
:103900009C018AEC9EE062E04AE150E000E8A6ED0E
:10391000EA2EA4E0FA2E0E94D11A882329F42091DD
:10392000D6043091D70402C020E030E0C9010F91E5
:10393000FF90EF9008951092D5041092D4048AEC71
:103940009EE022C0FC0120812223C9F001960E9442
:10395000C41B009759F0FC0185A5882339F02091FC
:10396000D6043091D7042F5F3F4F1EC08091D604FC
:103970009091D70401969093D5048093D4048091BC
:10398000D6049091D7044A969093D7048093D60496
:103990008091D6049091D704FEE08E3F9F0790F26D
:1039A0002091D4043091D504C90108958F929F923B
:1039B000AF92BF92CF92DF92EF92FF920F931F933D
:1039C000982E892E162F59016A0181E79EE063E047
:1039D0004BE150E0292D382D012FB2EDEB2EB4E054
:1039E000FB2E0E94D11A813059F5E091D204F0915A
:1039F000D3048083E091D204F091D30431969401F2
:103A0000832F922FDC0180E10D9001928150E1F72C
:103A1000E091D204F091D304118BA114B104C1043C
:103A2000D10461F0CF014296B601A5010E943F4842
:103A3000E091D204F091D304128E02C081E0828F13
:103A400080E090E01F910F91FF90EF90DF90CF907A
:103A5000BF90AF909F908F900895009711F0FC0158
:103A600010820895EF92FF920F939C01062F81E739
:103A70009EE063E04BE150E072EDE72E74E0F72E3C
:103A80000E94D11A882329F42091D2043091D304C2
:103A900002C020E030E0C9010F91FF90EF9008953F
:103AA0000F931F93CF93DF938C0181E79EE0909358
:103AB000D3048093D20414C08881882361F049899B
:103AC000469546954695CE010196B80150E00E9474
:103AD0004A5C009779F06B96D093D304C093D204DC
:103AE000C091D204D091D3048EE0C23CD80720F319
:103AF00080E001C081E0DF91CF911F910F91089587
:103B0000EF92FF920F939C0187ED9DE063E04CE103
:103B100050E000E8EAEBEE2EE4E0FE2E0E94D11A1F
:103B2000882329F42091BA043091BB0402C020E01C
:103B300030E0C9010F91FF90EF90089527ED3DE02F
:103B40003093BB042093BA04282F332727FD3095E8
:103B500015C09081992369F08F3F29F0418950E089
:103B60004217530731F491819E3F19F492819038A6
:103B700079F07C96F093BB04E093BA04E091BA0428
:103B8000F091BB049EE0EB32F90718F3E0E0F0E0BF
:103B9000CF01089527ED3DE03093BB042093BA0494
:103BA000282F332727FD309515C09081992369F080
:103BB0008F3F29F0418950E04217530731F491813A
:103BC0009E3F91F49281903879F47C96F093BB04F7
:103BD000E093BA04E091BA04F091BB049EE0EB32AA
:103BE000F90718F3E0E0F0E0CF010895DF92EF92DB
:103BF000FF920F931F93182FD92E8BE29EE064E063
:103C000041E150E0212F3D2D00E8F0ECEF2EF4E0F3
:103C1000FF2E0E94D11A8130B9F4E091C004F091D6
:103C2000C1048083E091C004F091C1043196812FDA
:103C30009D2DDC0180E10D9001928150E1F72091F2
:103C4000C0043091C10402C020E030E0C9011F91DE
:103C50000F91FF90EF90DF900895AF92BF92CF92B7
:103C6000DF92EF92FF920F931F93CF93DF93EC01BC
:103C70005A016B01122F87ED9DE063E04CE150E0AB
:103C80009E0100E8AAEBEA2EA4E0FA2E0E94D11AC7
:103C9000813009F058C0E091BA04F091BB048083F0
:103CA000E091BA04F091BB043196DE0180E10D9001
:103CB00001928150E1F7E091BA04F091BB04128BBC
:103CC000A114B104C104D10419F481E0838B07C0AD
:103CD000138ACF014496B601A5010E943F48E091A6
:103CE000BA04F091BB0491E0918B8FEF8093C204F2
:103CF00022E02093C3041092C5041092C4041092D1
:103D0000C7041092C6041092C9041092C8041092FD
:103D1000CB041092CA041092CC049093CD048093EB
:103D2000CE048D858093CF048E859F859093D1049A
:103D30008093D00482EC94E00E94F61D2091BA0496
:103D40003091BB0402C020E030E0C901DF91CF9187
:103D50001F910F91FF90EF90DF90CF90BF90AF90A9
:103D60000895009711F0FC0110820895EF92FF92E0
:103D70000F939C018BE29EE064E041E150E000E89B
:103D8000B0ECEB2EB4E0FB2E0E94D11A882329F46C
:103D90002091C0043091C10402C020E030E0C9018C
:103DA0000F91FF90EF900895CF93DF93EC01009770
:103DB00099F18FEF8093C20492E09093C304109224
:103DC000C5041092C4041092C7041092C604109245
:103DD000C9041092C8041092CB041092CA04109225
:103DE000CC0491E09093CD048093CE048E85809393
:103DF000CF048F8598899093D1048093D00482EC6E
:103E000094E00E94B61E9093C1048093C004009772
:103E100011F0FC0110821882DF91CF910895CF92AA
:103E2000DF92EF92FF920F931F93CF93DF9387ED73
:103E30009DE017C08081882379F08389882361F40D
:103E4000CF0144960E946D48009731F08091BA04EA
:103E50009091BB040E94D41E8091BA049091BB043F
:103E60004C969093BB048093BA04E091BA04F0910D
:103E7000BB042EE0EB32F207E8F28AEC9EE018C0B9
:103E80008081882381F0818D882369F4CF01419658
:103E90000E946D48009739F0E091D604F091D70464
:103EA000309709F010828091D6049091D7044A96F9
:103EB0009093D7048093D604E091D604F091D70470
:103EC0008EE0EE3FF807E0F281E79EE018C08081C7
:103ED000882381F0828D882369F4CF0142960E9465
:103EE0006D48009739F0E091D204F091D3043097F7
:103EF00009F010828091D2049091D3044B96909354
:103F0000D3048093D204E091D204F091D3042EE044
:103F1000E23CF207E0F28EEF9EE09093D9048093AA
:103F2000D80422E0D22E98EEE92E93E0F92E012D4E
:103F3000112D84E0C82EA1C0FC012081222309F4A8
:103F400093C025A5213049F1213030F0233089F18B
:103F5000243009F089C03FC0FC0123A5233008F0BC
:103F600050C081960E946D48009709F47DC08091F1
:103F7000260C9091270C009709F076C0E091D804A8
:103F8000F091D90483A58F5F83A7AF014F5F5F4F87
:103F900080E090E060E070E04FC049960E946D487C
:103FA000009709F461C0E091D804F091D904D5A636
:103FB0005BC049960E946D48009709F455C0E09196
:103FC000D804F091D904C5A613A6CF01819640E08C
:103FD00050E0BA0147C0FC0123A52330A8F00196A8
:103FE0000E947D1CFC019093D7048093D604009717
:103FF00021F0818D882309F410828091D80490915A
:10400000D9040E941D1B30C081960E946D48009704
:1040100059F18091260C9091270C009729F5E09199
:10402000D804F091D90483A58F5F83A7AF014F5FB8
:104030005F4F80E090E0BA010E94CE15C091D80495
:10404000D091D9046091D20D7091D30D8091D40D8F
:104050009091D50DA80197010E94CA5BCE0181966F
:10406000BA01A9010E943F488091D8049091D904D7
:104070008E969093D9048093D8048091D80490911F
:10408000D904FFE0863B9F0708F456CF82EC9EE000
:104090000E94BE02DF91CF911F910F91FF90EF9090
:1040A000DF90CF900895DF92EF92FF920F931F93CE
:1040B000182FD92E8BE29EE060E041E150E0212FE5
:1040C0003D2D00E87EEBE72E74E0F72E0E94D11A1A
:1040D0008130B9F4E091BE04F091BF048083E09197
:1040E000BE04F091BF043196812F9D2DDC0180E14B
:1040F0000D9001928150E1F72091BE043091BF04F0
:1041000002C020E030E0C9011F910F91FF90EF90B5
:10411000DF900895009711F0FC0110820895EF924E
:10412000FF920F939C018BE29EE060E041E150E042
:1041300000E8EEEBEE2EE4E0FE2E0E94D11A88237A
:1041400029F42091BE043091BF0402C020E030E089
:10415000C9010F91FF90EF900895CF92DF92EF92F7
:10416000FF920F931F93CF93DF937C018EEB9FE021
:104170009093BD048093BC04CC2400E010E01AC0EE
:104180008881882391F0D988DC1478F0BE016F5FB4
:104190007F4F4D2D469546954695C70150E00E94AC
:1041A0004A5C009711F4CD2C8E01AE96D093BD04DD
:1041B000C093BC04C091BC04D091BD0480E1C6375B
:1041C000D807F0F2C801DF91CF911F910F91FF90B6
:1041D000EF90DF90CF9008959F92AF92BF92CF92D1
:1041E000DF92EF92FF920F931F93CF93DF93D82E1E
:1041F000C92E162FB42EA52E922E8EEB9FE064E0D2
:104200004EE250E02D2D3C2D012FFCEBEF2EF4E083
:10421000FF2E0E94D11A813049F5E091BC04F09143
:10422000BD048083E091BC04F091BD0431969601F9
:10423000832F922FDC0180E10D9001928150E1F7F4
:10424000E091BC04F091BD04118BEF0163969501E0
:10425000832F9A2DDC0180E10D9009928150E1F7C6
:10426000928AB3968BE011928A95E9F78091BC040B
:104270009091BD04DF91CF911F910F91FF90EF902E
:10428000DF90CF90BF90AF909F900895FC01108277
:1042900008950F931F93CF93DF938C018EEB9FE0D4
:1042A00012C08881882351F0CE014396B80140E1C5
:1042B00050E00E944A5C009709F418828091BC0487
:1042C0009091BD048E969093BD048093BC04C091E0
:1042D000BC04D091BD0480E1C637D80710F3DF914C
:1042E000CF911F910F910895CF93DF93FC01EC01C3
:1042F0002896862F972FDC0188E00D900992815037
:10430000E1F7808592E089278087DF91CF9108953A
:10431000282F392FD901862F972FFC0180E02D916E
:104320009191382F385F291721F4832F3038B9F74E
:104330000895922797FD05C08F5F831711F0990F9D
:10434000F9CF0895BF92CF92DF92EF92FF920F9331
:104350001F93CF93DF93EC016B01FB0180818E3FB4
:1043600021F48181803819F432C08F3F81F187EDCB
:104370009DE09093BB048093BA04EE24FF24BB24F9
:104380001DC0F8018081882399F08189813081F4F2
:1043900081818E3F19F48281803851F0B8016F5FBE
:1043A0007F4FC6010E9488218B1510F07801B82E2E
:1043B000045E1F4F1093BB040093BA040091BA042B
:1043C0001091BB04FEE00B321F07D8F204C081E05D
:1043D0000E949E1D7C01E114F10489F41982188267
:1043E0001B821A821D821C821F821E8219861886D9
:1043F0001B861A861D861C861F861E8607C0F7012F
:10440000319680E1019009928150E1F7DF91CF91DF
:104410001F910F91FF90EF90DF90CF90BF90089584
:104420000E949B1C009791F48091B904833070F432
:104430000E94B3178091B9048F5F8093B90486EB13
:104440009FE064EF71E00E94B302089586EB9FE065
:104450000E9411030895DF92EF92FF920F931F9332
:104460000E94CF48D82E0E94CF48E090CA0DF0900D
:10447000CB0D0091CC0D1091CD0D7D2D60E0680F1E
:10448000791F80E090E0A80197010E94CA5B9B0120
:10449000AC0116950795F794E7942E0D3F1D401F2C
:1044A000511FB901CA011F910F91FF90EF90DF904A
:1044B0000895CF93DF9388EBEEEFFEE0DF01982FB6
:1044C0001D929A95E9F794E3EAECFEE0DF011D9274
:1044D0009A95E9F791E5E1E7FEE0DF011D929A95F3
:1044E000E9F79AEAE5ECFDE0DF011D929A95E9F71C
:1044F000EEEBFFE0DF011D928A95E9F78CE18093F6
:10450000700E82E180936F0E80E095E0A0E0B0E055
:104510008093C50D9093C60DA093C70DB093C80DA1
:1045200080E48093C90D80E395E7A0E0B0E080933C
:10453000CA0D9093CB0DA093CC0DB093CD0D0E94DE
:104540002B226093CE0D7093CF0D8093D00D90935E
:10455000D10D88EE93E0A0E0B0E08093D20D90936F
:10456000D30DA093D40DB093D50D1092D60DC2ECFF
:10457000D4E08EEF90E89093C3048093C20410922D
:10458000C5041092C4041092C7041092C60410927D
:10459000C9041092C804CE0160E420E030E0A90113
:1045A0000E94D61CCE016EE27CE00E947421CE01F6
:1045B00040E050E0BA0121E00E942D1E8FEF92E012
:1045C0009093C3048093C2041092C5041092C40453
:1045D0001092C7041092C6041092C9041092C80425
:1045E0001092CB041092CA041092CD041092CC0405
:1045F0001092CF041092CE0480E091E09093D10409
:104600008093D004CE010E94F61D0E94CF486DE732
:1046100070E00E94B65BBC0186EB9FE00E94B30293
:1046200082EC9EE06CE070E00E94B302DF91CF91DB
:104630000895EF92FF920F931F93DF93CF93CDB71F
:10464000DEB728970FB6F894DEBF0FBECDBF81E06E
:1046500068E046E00E94885681E00E9403570E946D
:1046600038240E9401480E94FC438AE293E060E003
:1046700070E00E94B0440E943047E0916203F091E4
:10468000630309958E010F5F1F4F88E0D8011D92CB
:104690008A95E9F7C80160E070E048E050E00E94C8
:1046A000F95EAEE2BCE0F80188E001900D92815025
:1046B000E1F78DEC9BEA60E070E08E010F5F1F4F29
:1046C000A8010E9425278AE10E940B27C8010E94A9
:1046D000852BEDB7FEB772970FB6F894FEBF0FBEED
:1046E000EDBF319686E291E0ADB7BEB712969C93CE
:1046F0008E9311978981828313828A8184831582A4
:104700008B81868317828C81808711868D81828739
:1047100013868E81848715868F8186871786888584
:10472000808B118A0E94925CEDB7FEB772960FB62D
:10473000F894FEBF0FBEEDBF0E94B34AE091B203F2
:10474000F091B3030995E0919903F0919A030995CB
:10475000E0912304F09124040995E0909703F090F0
:1047600098030091B0031091B1030E9408272DB760
:104770003EB7285030400FB6F8943EBF0FBE2DBF55
:10478000EDB7FEB7319624E131E0ADB7BEB7129672
:104790003C932E931197F382E282158304838683E0
:1047A00017820E94925CE091BE03F091BF032DB787
:1047B0003EB7285F3F4F0FB6F8943EBF0FBE2DBFE8
:1047C0003097D1F00995BC0100D000D081E091E094
:1047D000ADB7BEB712969C938E9311978DE790E07C
:1047E0000E94B65BEDB7FEB7748363830E94925C50
:1047F0000F900F900F900F9000D08FEF90E0ADB71B
:10480000BEB712969C938E9311970E94925C0F9064
:104810000F9081E493E060E070E00E94B04428963D
:104820000FB6F894DEBF0FBECDBFCF91DF911F91C1
:104830000F91FF90EF9008950E94192380E193E07B
:104840000E94E94400D08CED90E0EDB7FEB7928372
:1048500081830E94925C8CEC90E0EDB7FEB792836E
:1048600081830E94925C0F900F900E940C44FDCFB8
:10487000F8941092B60016BC89EF87BD82E084BD23
:1048800094E095BD95B395BB80936E0078940895A0
:104890002091DA043091DB048091DA049091DB04FA
:1048A00028173907A9F7C901089520917A10309186
:1048B0007B1040917C1050917D1080917A109091E6
:1048C0007B10A0917C10B0917D10281739074A0702
:1048D0005B0759F7B901CA01089560937A10709384
:1048E0007B1080937C1090937D100895CF93DF937D
:1048F000EC010E944824C80FD91F0E9448248C1B39
:104900009D0B97FDFACFDF91CF91089584309105EB
:1049100048F00397880F991F880F991F96958795E0
:104920000197F1F70895CF93DF93EC0184EE93E0C4
:1049300005C00E948624219787EE93E02097C9F74F
:10494000DF91CF910895AFB7F8942091DA043091B8
:10495000DB04280F391F3093DB042093DA04209105
:10496000DC04FC01E20FF11D2091761030917710EC
:10497000409178105091791016C0ED57F040609139
:104980007A1070917B1080917C1090917D106F5FF8
:104990007F4F8F4F9F4F60937A1070937B1080935F
:1049A0007C1090937D10722F632F942F852F2F5F93
:1049B0003F4F4F4F5F4FED37F105F8F6709376108C
:1049C000609377109093781080937910E093DC04D3
:1049D000AFBF08951F920F920FB60F920BB60F92B2
:1049E00011242F933F934F935F936F937F938F93F4
:1049F0009F93AF93BF93EF93FF938091DA049091CD
:104A0000DB0401969093DB048093DA048091DC044C
:104A10008F5F8093DC048091DC048D37A8F01092C6
:104A2000DC0480917A1090917B10A0917C10B09161
:104A30007D100196A11DB11D80937A1090937B107B
:104A4000A0937C10B0937D100E94F602009711F0A5
:104A50000E94F601FF91EF91BF91AF919F918F91CD
:104A60007F916F915F914F913F912F910F900BBE6E
:104A70000F900FBE0F901F9018958091891090E0B5
:104A8000FC01EE0FFF1F9695982F88279795879525
:104A9000E80FF91FE657FF4E1082089580918310AA
:104AA00090E008951C990BC081E06FE140E00E9406
:104AB000252A813039F021E030E0813129F020E0F1
:104AC00030E002C021E030E0C90108951C9911C016
:104AD00081E06FE140E00E94252A982F81518230C9
:104AE00050F09F3141F0913041F081E0923031F44B
:104AF00002C081E0089580E0089580E00895CF939A
:104B0000DF93C0E1D7E20E946625882311F4219744
:104B1000D1F7DF91CF91089583B12C988DE090E08B
:104B20000197F1F782E06FE140E023E00E943C2A28
:104B300083E090E00197F1F708950E947F250E949D
:104B40008C252C9A10920C11089580910C118823B9
:104B500021F00E9466250E949D2580E090E0089546
:104B60001C9909C0282F803108F02FE085E06FE004
:104B700040E00E943C2A0895B82FA92FF62FE72F76
:104B80002091151130911611409117115091181163
:104B90002F5F3F4F4F4F5F4F2093151130931611EA
:104BA0004093171150931811862F8E5F87FD0CC00C
:104BB0002DED34E0C9016B2F7A2F4F2F5E2F0E940D
:104BC000575C20E030E002C02FEF3FEFC9010895AD
:104BD00081E06FE140E00E94252A08950F931F9322
:104BE000182F883049F0863039F0893029F0863125
:104BF00019F0893109F03BC01C993CC00E947F2507
:104C00000E94E825082F1817C1F1183019F40E94E6
:104C10008C2526C0193139F4863199F482E06FE190
:104C200040E029E008C0163161F4893151F482E096
:104C30006FE140E026E00E943C2AE3E0F0E031979B
:104C4000F1F782E06FE140E0212F0E943C2A08301A
:104C500019F4E9E6F1E002C0E3E0F0E03197F1F7A2
:104C60000E94E825811749F023E430E008C022E4DF
:104C700030E005C024E430E002C020E430E0C901A7
:104C80001F910F91089581E080930C111C9B05C02A
:104C90002C9881EC9DE00197F1F786E10E94EE25CA
:104CA0000E947F25089580910C11882311F40E94A1
:104CB000432681E090E008950F931F93DF93CF93F5
:104CC0000F92CDB7DEB780910C11882341F01C996B
:104CD0002AC00E946625882331F110E003C00E949B
:104CE000532611E08FB78983F8940E947F2588E0CE
:104CF00060E847E021E00E943C2A89E191E00197C9
:104D0000F1F700E004C081E00E94EF29082F07FFBF
:104D1000FACF89818FBF112311F00E94A52521E0D0
:104D200030E006FD02C020E030E0C9010F90CF91D5
:104D3000DF911F910F91089580935F0508950E9460
:104D4000E8258250813130F4E82FF0E0EA58FC4F3A
:104D50008081089581E00895282F8EE260E245E089
:104D60000E943C2A08958EE06CE00E940A2A8CE2A0
:104D700060EF44E022E00E943C2A8CE26EE041E0D9
:104D800025E00E943C2A8FE260E80E940A2A86E021
:104D90000E94EF29682F8DE20E940A2A85E060E8D0
:104DA00047E021E00E943C2A0895CF93DF93CDEFA6
:104DB000D3E0CE010197F1F70E94CC2910928A101E
:104DC000109289101092881017982C9881EC9DE011
:104DD0000197F1F7179A82E06FE140E023E00E942B
:104DE0003C2A2197F1F78DE10E94EF298EE10E9484
:104DF000EF290E94B32688E593E060E070E00E940E
:104E0000B0440E94432681E090E0DF91CF91089565
:104E100080915E050895DF93CF930F92CDB7DEB7F3
:104E200089830E947F25298120935E0588E06FE1B8
:104E300040E00E943C2A0F90CF91DF9108950E949C
:104E40000B2786E00E94EE250895AF92BF92CF9285
:104E5000DF92EF92FF920F931F93DF93CF9300D0D7
:104E6000CDB7DEB7282F062F6A0182E2622F7A8340
:104E700099830E940A2A83E29981692F0E940A2A53
:104E800080E2602F0E940A2A81E27A81672F0E94C5
:104E90000A2AC114D104F1F186010F5F1F4F8BE282
:104EA000F60160810E940A2A78010894E11CF11C35
:104EB0008AE2F60161810E940A2A57010894A11C26
:104EC000B11C89E2F80161810E940A2A65010894F7
:104ED000C11CD11C88E2F70161810E940A2A860167
:104EE0000F5F1F4F87E2F50161810E940A2A780156
:104EF0000894E11CF11C86E2F60161810E940A2AF5
:104F000085E2F80161810E940A2A84E2F701618149
:104F10000E940A2A0F900F90CF91DF911F910F915D
:104F2000FF90EF90DF90CF90BF90AF90089588E50D
:104F300093E00E94D34481E08093831080915911C3
:104F400090915A11A0915B11B0915C110196A11D35
:104F5000B11D8093591190935A11A0935B11B09396
:104F60005C1181E090E00895EF92FF92CF93DF9380
:104F700050918910252F30E0F901EE0FFF1F369573
:104F8000322F222737952795E20FF31FE657FF4E62
:104F90004081442309F4C8C01C99C6C020910C115B
:104FA000222309F4C1C047FF16C00E943D2580910D
:104FB000451190914611A0914711B0914811019669
:104FC000A11DB11D8093451190934611A0934711E7
:104FD000B0934811A9C04330B0F40E943D258091A0
:104FE000411190914211A0914311B0914411019649
:104FF000A11DB11D8093411190934211A0934311C3
:10500000B093441191C0C42FD0E022976C177D0754
:10501000B0F40E943D2580913D1190913E11A091E8
:105020003F11B09140110196A11DB11D80933D111A
:1050300090933E11A0933F11B093401175C0652F1E
:1050400070E09B01220F331F7695762F66277795A8
:105050006795260F371F25573F4EB90150E00E9434
:10506000575C20918910822F90E0FC01EE0FFF1F0A
:105070009695982F882797958795E80FF91FE65FF3
:10508000FE4E808180937E10822F90E0FC01EE0F17
:10509000FF1F9695982F882797958795E80FF91FFA
:1050A000E657FF4E10821092891080E090E0FC01DC
:1050B000EE0FFF1F9695982F882797958795E80FF5
:1050C000F91FE657FF4E8081882311F00E94972731
:1050D00087E00E94EF29682F80937F1080918210D3
:1050E000882311F0681710F46093821084E070E058
:1050F0000E94874A60917E1083E070E00E94874A98
:105100008091191190911A11A0911B11B0911C114D
:105110000196A11DB11D8093191190931A11A093AE
:105120001B11B0931C1102C0C0E0D0E0CE01DF9192
:10513000CF91FF90EF9008950F931F93DF93CF933C
:105140000F92CDB7DEB78C01FC0180819181009771
:1051500029F0F5E081319F0719F506C081E195E05E
:10516000F8019183808321C06238F9F41092831092
:105170000E94014A8FB78983F8940E945B4960E8D6
:1051800070E00E94B42729812FBF1816190634F742
:105190000E945649E091B803F091B9030995DECF1A
:1051A000F8011182108283E001C081E00F90CF915D
:1051B000DF911F910F9108950E94B02508951C99C9
:1051C00006C085E06FE040E00E94252A089580E156
:1051D00008951F93CF93DF93182F1C9B05C02C9825
:1051E000E1ECFDE03197F1F70E947F2589E10E9413
:1051F000EE2586E00E94924A009751F00E94DF2837
:10520000C82F86E00E94924A81500E94B02502C0B9
:10521000C0E0D0E02C9A2C98612F6E5F8DED94E069
:105220000E94A72A0E947F2582E060EE45E00E944E
:10523000252A182F86E00E94924A009719F08C2F99
:105240000E94B02580910C11882319F00E944326FA
:1052500002C00E949D25113011F0112369F5809143
:10526000551190915611A0915711B0915811019676
:10527000A11DB11D8093551190935611A093571104
:10528000B09358118CE00E94924A009709F445C0EF
:105290008091311190913211A0913311B09134115C
:1052A0000196A11DB11D8093311190933211A093ED
:1052B0003311B093341131C01330A9F480914D11E2
:1052C00090914E11A0914F11B09150110196A11DD6
:1052D000B11D80934D1190934E11A0934F11B09337
:1052E000501112E01DC01530A9F480913911909130
:1052F0003A11A0913B11B0913C110196A11DB11D35
:105300008093391190933A11A0933B11B0933C11C3
:1053100013E006C0173021F402C010E001C011E014
:10532000812F90E0DF91CF911F910895CF93DF936C
:10533000EB010E94BC259C01009721F4CE010E9444
:10534000E9289C01C901DF91CF9108950F931F9324
:1053500080910C11882321F40E94532611E001C092
:1053600010E00E94E825863111F0813129F487E0B0
:105370000E94EF29082F08C086E06FE140E00E94FC
:10538000252A082F000F080F112311F00E94A525D0
:10539000802F1F910F910895109261051092600562
:1053A000249A0F9A85B1836085B984B1876084B9E6
:1053B000239880E58CBD81E08DBD83E480938100DE
:1053C000B59AEFE6F0E0808181608083ED9AEAE6AD
:1053D000F0E080818C60808375986D980895DF93EC
:1053E000CF930F92CDB7DEB780689FB79983F894BB
:1053F00028988EBD0DB407FEFDCF8EB51EBC0DB432
:1054000007FEFDCF8EB5289A99819FBF0F90CF914F
:10541000DF910895DF93CF930F92CDB7DEB7806C05
:105420009FB79983F89428988EBD0DB407FEFDCFE1
:105430008EB56EBD0DB407FEFDCF8EB5289A89815D
:105440008FBF0F90CF91DF910895DF93CF9300D05E
:10545000CDB7DEB74A8369830E94EF29698186232D
:1054600090E04A8102C0959587954A95E2F70F90A2
:105470000F90CF91DF9108951F93DF93CF9300D0CA
:1054800000D0CDB7DEB7182F2C834B836A830E94E0
:10549000EF29898399816A81862F80958923898361
:1054A0002C8130E04B8102C0220F331F4A95E2F776
:1054B00062238981682B812F0E940A2A0F900F9006
:1054C0000F900F90CF91DF911F910895DF93CF93AD
:1054D0000F92CDB7DEB7FC018FB78983F894289877
:1054E00080E28EBD0DB407FEFDCF8EB51EBC0DB49F
:1054F00007FEFDCF8EB5982F93509D37C8F4DF017E
:10550000119680831EBC0DB407FEFDCF9EB59D9302
:105510001EBC0DB407FEFDCF8150C1F78EB5DF0173
:10552000A058BF4F8C93EF57FF4F81E0808308C096
:105530001082DF01A058BF4F1C92EF57FF4F10821F
:10554000289A89818FBF0F90CF91DF910895DF93C3
:10555000CF930F92CDB7DEB7FC018FB78983F89454
:10556000289880E68EBD0DB407FEFDCF8EB56EBDCA
:105570000DB407FEFDCF8EB5CF0101966350860FA7
:10558000911D21912EBD0DB407FEFDCF2EB5E8175C
:10559000F907B9F7289A89818FBF0F90CF91DF91D2
:1055A00008951F920F920FB60F920BB60F9211240F
:1055B0002F933F934F935F936F937F938F939F931B
:1055C000AF93BF93EF93FF93DF93CF9300D0CDB70B
:1055D000DEB78FB78A83F89428988FE88EBD0DB414
:1055E00007FEFDCF1EBC0DB407FEFDCF2EB5289AD9
:1055F0008A818FBF822F90E022FD39C023FF27C010
:1056000081E00E94EF298F7189838981813149F07E
:105610008981863031F08981813019F08981863124
:1056200031F52091881030E0C901880F991F369517
:10563000322F222737952795820F931F86579F4E2B
:105640000E94662A109288100E94972710C026FD9B
:105650000EC083709070009751F427FF08C08EE051
:105660000E94EF29682F6F778EE00E940A2A0F9020
:105670000F90CF91DF91FF91EF91BF91AF919F91EB
:105680008F917F916F915F914F913F912F910F90EB
:105690000BBE0F900FBE0F901F9018951F920F9288
:1056A0000FB60F9211248F939F9380916005909174
:1056B0006105019690936105809360059F918F919C
:1056C0000F900FBE0F901F901895262F372FF901BE
:1056D000282F392FD90188E091919D938150E1F7CE
:1056E0000895282F392FD901862F972FFC0188E0A4
:1056F0002D919191291729F48150D1F721E030E0C3
:1057000002C020E030E0C9010895282F392FD901C7
:10571000EDE0F1E18D91819381E1E531F807D1F779
:105720000895E091B403F091B50309950895E091CF
:105730002504F091260409950895E091BA03F091AB
:10574000BB0309950895E091BC03F091BD03099551
:10575000089580E090E008950895E0917203F0913B
:10576000730309950895009731F0E0917203F09169
:10577000730309950895E0917403F09175030995F9
:10578000089580E090E008950F931F93DF93CF93E7
:10579000CDB7DEB7E0970FB6F894DEBF0FBECDBF32
:1057A0000E94AD498C010E945B49602FAE014F5FA2
:1057B0005F4F0E94F558882309F445C088A99801D5
:1057C000281B3109C9010E9437490097E1F12E8158
:1057D000222371F18A859B853BEA8D3C930721F05A
:1057E0003FEF8F3F930779F5223041F088E090E05A
:1057F00007C0019722912F3F41F00BC082E090E05B
:10580000FE01E80FF91F3C96F4CF181619068CF329
:105810000FC089E1BE01645F7F4F0E949B4A89E10E
:105820000E94A84A6DE071E10E94712B009759F027
:1058300088E1BE016A5E7F4F0E949B4AE0919D0312
:10584000F0919E030995E0960FB6F894DEBF0FBE67
:10585000CDBFCF91DF911F910F910895AF92BF926D
:10586000CF92DF92EF92FF920F931F93DF93CF932C
:10587000CDB7DEB7E0970FB6F894DEBF0FBECDBF51
:105880006C018B01FE01319680E3DF011D928A9548
:10589000E9F781E089838CE00E94924A8C831D8223
:1058A0001F828091620589878F5F8093620583E004
:1058B000E82EE8868DEC9BEA9B878A8789E10E9427
:1058C000A84A67E873E00E94712B009731F082E0EC
:1058D0008E838FEF8C878D8709C089E10E94A84A4B
:1058E000BC01CE010C960E94652BEE828DEC9BEAEA
:1058F0009D8B8C8BCE0146966DE071E10E94652BED
:105900000E945B499FA78EA70E94AD4988AB7E018C
:105910000894E11CF11CC7010E94EC57A82E90E0EE
:105920000E94C349009741F10E946349BC01C7012D
:105930004A2D0E940A58A0906803B09069030E9403
:1059400063497C010E94B749BC01C701F501099573
:10595000C114D10489F0009721F08130910561F4E0
:1059600004C0C80160E070E003C0C80164E070E0FA
:1059700041E050E0F6010995E0960FB6F894DEBFDD
:105980000FBECDBFCF91DF911F910F91FF90EF9090
:10599000DF90CF90BF90AF9008950E94CF48809342
:1059A0006205E0917203F0917303099508950F93D6
:1059B0001F93CF93DF938C01EB014115510549F003
:1059C000FA01828193810E943C4BC801BE010E9472
:1059D0002E2CDF91CF911F910F910895DF92EF92BE
:1059E000FF920F931F93DF93CF93CDB7DEB76297EC
:1059F0000FB6F894DEBF0FBECDBF9C017B018EEFCA
:105A000090E89A8389831C821B821E821D821886DD
:105A10001F821A8619861C861B861E861D86188A7A
:105A20001F868E010F5F1F4FC801B901498B5A8B2A
:105A30000E947421D090DB118D2D813011F58FE5FE
:105A400091E1B8010E9482308C0149895A890097FE
:105A5000C1F0FC01D78E458FE0916611F09167117E
:105A60000280F381E02D309749F4E114F10481F4D0
:105A70008FEF9FEFF801948F838F06C0B7010995D0
:105A8000F4CFE114F10421F4CE0101960E944921E2
:105A900062960FB6F894DEBF0FBECDBFCF91DF91F7
:105AA0001F910F91FF90EF90DF900895EF92FF927A
:105AB0000F931F93CF93DF93C1EEDFE000E010E080
:105AC0008EE2E82EF12CFE01B39780818823E1F06D
:105AD00088819981AA81BB8182309105A105B10598
